{
	"PycharmProjects/UsalMasterCoin/contracts/GestionPuntos.sol": {
		"PuntosFidelizacion": {
			"abi": [
				{
					"inputs": [],
					"stateMutability": "nonpayable",
					"type": "constructor"
				},
				{
					"inputs": [
						{
							"internalType": "address",
							"name": "_direccion",
							"type": "address"
						}
					],
					"name": "AgregarCliente",
					"outputs": [],
					"stateMutability": "nonpayable",
					"type": "function"
				},
				{
					"inputs": [
						{
							"internalType": "uint256",
							"name": "_numPuntos",
							"type": "uint256"
						}
					],
					"name": "CanjearPuntos",
					"outputs": [],
					"stateMutability": "payable",
					"type": "function"
				},
				{
					"inputs": [
						{
							"internalType": "address",
							"name": "_direccion",
							"type": "address"
						}
					],
					"name": "ObtenerCliente",
					"outputs": [
						{
							"components": [
								{
									"internalType": "uint256",
									"name": "puntos_canjeados",
									"type": "uint256"
								},
								{
									"internalType": "string[]",
									"name": "id_productos_comprados",
									"type": "string[]"
								}
							],
							"internalType": "struct PuntosFidelizacion.Cliente",
							"name": "",
							"type": "tuple"
						}
					],
					"stateMutability": "nonpayable",
					"type": "function"
				},
				{
					"inputs": [],
					"name": "ObtenerPuntos",
					"outputs": [
						{
							"internalType": "uint256",
							"name": "",
							"type": "uint256"
						}
					],
					"stateMutability": "view",
					"type": "function"
				},
				{
					"inputs": [],
					"name": "balanceOf",
					"outputs": [
						{
							"internalType": "uint256",
							"name": "",
							"type": "uint256"
						}
					],
					"stateMutability": "view",
					"type": "function"
				},
				{
					"inputs": [],
					"name": "creador",
					"outputs": [
						{
							"internalType": "address",
							"name": "",
							"type": "address"
						}
					],
					"stateMutability": "view",
					"type": "function"
				}
			],
			"devdoc": {
				"kind": "dev",
				"methods": {},
				"version": 1
			},
			"evm": {
				"assembly": "    /* \"PycharmProjects/UsalMasterCoin/contracts/GestionPuntos.sol\":106:2091  contract PuntosFidelizacion{\r... */\n  mstore(0x40, 0x80)\n    /* \"PycharmProjects/UsalMasterCoin/contracts/GestionPuntos.sol\":262:363  constructor () {\r... */\n  callvalue\n  dup1\n  iszero\n  tag_1\n  jumpi\n  0x00\n  dup1\n  revert\ntag_1:\n  pop\n    /* \"PycharmProjects/UsalMasterCoin/contracts/GestionPuntos.sol\":297:324  new PuntosRecompensasCoin() */\n  mload(0x40)\n  tag_4\n  swap1\n  tag_5\n  jump\t// in\ntag_4:\n  mload(0x40)\n  dup1\n  swap2\n  sub\n  swap1\n  0x00\n  create\n  dup1\n  iszero\n  dup1\n  iszero\n  tag_6\n  jumpi\n  returndatasize\n  0x00\n  dup1\n  returndatacopy\n  revert(0x00, returndatasize)\ntag_6:\n  pop\n    /* \"PycharmProjects/UsalMasterCoin/contracts/GestionPuntos.sol\":288:294  puntos */\n  0x00\n  dup1\n    /* \"PycharmProjects/UsalMasterCoin/contracts/GestionPuntos.sol\":288:324  puntos = new PuntosRecompensasCoin() */\n  0x0100\n  exp\n  dup2\n  sload\n  dup2\n  0xffffffffffffffffffffffffffffffffffffffff\n  mul\n  not\n  and\n  swap1\n  dup4\n  0xffffffffffffffffffffffffffffffffffffffff\n  and\n  mul\n  or\n  swap1\n  sstore\n  pop\n    /* \"PycharmProjects/UsalMasterCoin/contracts/GestionPuntos.sol\":345:355  msg.sender */\n  caller\n    /* \"PycharmProjects/UsalMasterCoin/contracts/GestionPuntos.sol\":335:342  creador */\n  0x01\n  0x00\n    /* \"PycharmProjects/UsalMasterCoin/contracts/GestionPuntos.sol\":335:355  creador = msg.sender */\n  0x0100\n  exp\n  dup2\n  sload\n  dup2\n  0xffffffffffffffffffffffffffffffffffffffff\n  mul\n  not\n  and\n  swap1\n  dup4\n  0xffffffffffffffffffffffffffffffffffffffff\n  and\n  mul\n  or\n  swap1\n  sstore\n  pop\n    /* \"PycharmProjects/UsalMasterCoin/contracts/GestionPuntos.sol\":106:2091  contract PuntosFidelizacion{\r... */\n  jump(tag_7)\ntag_5:\n  dataSize(sub_1)\n  dup1\n  dataOffset(sub_1)\n  dup4\n  codecopy\n  add\n  swap1\n  jump\t// out\ntag_7:\n  dataSize(sub_0)\n  dup1\n  dataOffset(sub_0)\n  0x00\n  codecopy\n  0x00\n  return\nstop\n\nsub_0: assembly {\n        /* \"PycharmProjects/UsalMasterCoin/contracts/GestionPuntos.sol\":106:2091  contract PuntosFidelizacion{\r... */\n      mstore(0x40, 0x80)\n      jumpi(tag_1, lt(calldatasize, 0x04))\n      shr(0xe0, calldataload(0x00))\n      dup1\n      0x13ff490f\n      eq\n      tag_2\n      jumpi\n      dup1\n      0x6f120a5d\n      eq\n      tag_3\n      jumpi\n      dup1\n      0x722713f7\n      eq\n      tag_4\n      jumpi\n      dup1\n      0x8bb3d85b\n      eq\n      tag_5\n      jumpi\n      dup1\n      0x92ebdcd2\n      eq\n      tag_6\n      jumpi\n      dup1\n      0xdaba6422\n      eq\n      tag_7\n      jumpi\n    tag_1:\n      0x00\n      dup1\n      revert\n        /* \"PycharmProjects/UsalMasterCoin/contracts/GestionPuntos.sol\":1483:1925  function CanjearPuntos(uint _numPuntos) public payable {\r... */\n    tag_2:\n      tag_8\n      0x04\n      dup1\n      calldatasize\n      sub\n      dup2\n      add\n      swap1\n      tag_9\n      swap2\n      swap1\n      tag_10\n      jump\t// in\n    tag_9:\n      tag_11\n      jump\t// in\n    tag_8:\n      stop\n        /* \"PycharmProjects/UsalMasterCoin/contracts/GestionPuntos.sol\":1101:1221  function AgregarCliente(address _direccion) public  {\r... */\n    tag_3:\n      callvalue\n      dup1\n      iszero\n      tag_12\n      jumpi\n      0x00\n      dup1\n      revert\n    tag_12:\n      pop\n      tag_13\n      0x04\n      dup1\n      calldatasize\n      sub\n      dup2\n      add\n      swap1\n      tag_14\n      swap2\n      swap1\n      tag_15\n      jump\t// in\n    tag_14:\n      tag_16\n      jump\t// in\n    tag_13:\n      stop\n        /* \"PycharmProjects/UsalMasterCoin/contracts/GestionPuntos.sol\":695:800  function balanceOf() public view returns (uint) {\r... */\n    tag_4:\n      callvalue\n      dup1\n      iszero\n      tag_17\n      jumpi\n      0x00\n      dup1\n      revert\n    tag_17:\n      pop\n      tag_18\n      tag_19\n      jump\t// in\n    tag_18:\n      mload(0x40)\n      tag_20\n      swap2\n      swap1\n      tag_21\n      jump\t// in\n    tag_20:\n      mload(0x40)\n      dup1\n      swap2\n      sub\n      swap1\n      return\n        /* \"PycharmProjects/UsalMasterCoin/contracts/GestionPuntos.sol\":1292:1414  function ObtenerCliente(address _direccion) public returns (Cliente memory) {\r... */\n    tag_5:\n      callvalue\n      dup1\n      iszero\n      tag_22\n      jumpi\n      0x00\n      dup1\n      revert\n    tag_22:\n      pop\n      tag_23\n      0x04\n      dup1\n      calldatasize\n      sub\n      dup2\n      add\n      swap1\n      tag_24\n      swap2\n      swap1\n      tag_15\n      jump\t// in\n    tag_24:\n      tag_25\n      jump\t// in\n    tag_23:\n      mload(0x40)\n      tag_26\n      swap2\n      swap1\n      tag_27\n      jump\t// in\n    tag_26:\n      mload(0x40)\n      dup1\n      swap2\n      sub\n      swap1\n      return\n        /* \"PycharmProjects/UsalMasterCoin/contracts/GestionPuntos.sol\":231:253  address public creador */\n    tag_6:\n      callvalue\n      dup1\n      iszero\n      tag_28\n      jumpi\n      0x00\n      dup1\n      revert\n    tag_28:\n      pop\n      tag_29\n      tag_30\n      jump\t// in\n    tag_29:\n      mload(0x40)\n      tag_31\n      swap2\n      swap1\n      tag_32\n      jump\t// in\n    tag_31:\n      mload(0x40)\n      dup1\n      swap2\n      sub\n      swap1\n      return\n        /* \"PycharmProjects/UsalMasterCoin/contracts/GestionPuntos.sol\":1981:2086  function ObtenerPuntos() public view returns (uint){\r... */\n    tag_7:\n      callvalue\n      dup1\n      iszero\n      tag_33\n      jumpi\n      0x00\n      dup1\n      revert\n    tag_33:\n      pop\n      tag_34\n      tag_35\n      jump\t// in\n    tag_34:\n      mload(0x40)\n      tag_36\n      swap2\n      swap1\n      tag_21\n      jump\t// in\n    tag_36:\n      mload(0x40)\n      dup1\n      swap2\n      sub\n      swap1\n      return\n        /* \"PycharmProjects/UsalMasterCoin/contracts/GestionPuntos.sol\":1483:1925  function CanjearPuntos(uint _numPuntos) public payable {\r... */\n    tag_11:\n        /* \"PycharmProjects/UsalMasterCoin/contracts/GestionPuntos.sol\":1603:1615  uint Balance */\n      0x00\n        /* \"PycharmProjects/UsalMasterCoin/contracts/GestionPuntos.sol\":1618:1629  balanceOf() */\n      tag_38\n        /* \"PycharmProjects/UsalMasterCoin/contracts/GestionPuntos.sol\":1618:1627  balanceOf */\n      tag_19\n        /* \"PycharmProjects/UsalMasterCoin/contracts/GestionPuntos.sol\":1618:1629  balanceOf() */\n      jump\t// in\n    tag_38:\n        /* \"PycharmProjects/UsalMasterCoin/contracts/GestionPuntos.sol\":1603:1629  uint Balance = balanceOf() */\n      swap1\n      pop\n        /* \"PycharmProjects/UsalMasterCoin/contracts/GestionPuntos.sol\":1662:1669  Balance */\n      dup1\n        /* \"PycharmProjects/UsalMasterCoin/contracts/GestionPuntos.sol\":1648:1658  _numPuntos */\n      dup3\n        /* \"PycharmProjects/UsalMasterCoin/contracts/GestionPuntos.sol\":1648:1669  _numPuntos <= Balance */\n      gt\n      iszero\n        /* \"PycharmProjects/UsalMasterCoin/contracts/GestionPuntos.sol\":1640:1715  require(_numPuntos <= Balance, \"No quedan puntos disponibles para comprar\") */\n      tag_39\n      jumpi\n      mload(0x40)\n      0x08c379a000000000000000000000000000000000000000000000000000000000\n      dup2\n      mstore\n      0x04\n      add\n      tag_40\n      swap1\n      tag_41\n      jump\t// in\n    tag_40:\n      mload(0x40)\n      dup1\n      swap2\n      sub\n      swap1\n      revert\n    tag_39:\n        /* \"PycharmProjects/UsalMasterCoin/contracts/GestionPuntos.sol\":1775:1781  puntos */\n      0x00\n      dup1\n      sload\n      swap1\n      0x0100\n      exp\n      swap1\n      div\n      0xffffffffffffffffffffffffffffffffffffffff\n      and\n        /* \"PycharmProjects/UsalMasterCoin/contracts/GestionPuntos.sol\":1775:1790  puntos.transfer */\n      0xffffffffffffffffffffffffffffffffffffffff\n      and\n      0xa9059cbb\n        /* \"PycharmProjects/UsalMasterCoin/contracts/GestionPuntos.sol\":1791:1801  msg.sender */\n      caller\n        /* \"PycharmProjects/UsalMasterCoin/contracts/GestionPuntos.sol\":1803:1813  _numPuntos */\n      dup5\n        /* \"PycharmProjects/UsalMasterCoin/contracts/GestionPuntos.sol\":1775:1814  puntos.transfer(msg.sender, _numPuntos) */\n      mload(0x40)\n      dup4\n      0xffffffff\n      and\n      0xe0\n      shl\n      dup2\n      mstore\n      0x04\n      add\n      tag_42\n      swap3\n      swap2\n      swap1\n      tag_43\n      jump\t// in\n    tag_42:\n      0x20\n      mload(0x40)\n      dup1\n      dup4\n      sub\n      dup2\n      0x00\n      dup8\n      dup1\n      extcodesize\n      iszero\n      dup1\n      iszero\n      tag_44\n      jumpi\n      0x00\n      dup1\n      revert\n    tag_44:\n      pop\n      gas\n      call\n      iszero\n      dup1\n      iszero\n      tag_46\n      jumpi\n      returndatasize\n      0x00\n      dup1\n      returndatacopy\n      revert(0x00, returndatasize)\n    tag_46:\n      pop\n      pop\n      pop\n      pop\n      mload(0x40)\n      returndatasize\n      not(0x1f)\n      0x1f\n      dup3\n      add\n      and\n      dup3\n      add\n      dup1\n      0x40\n      mstore\n      pop\n      dup2\n      add\n      swap1\n      tag_47\n      swap2\n      swap1\n      tag_48\n      jump\t// in\n    tag_47:\n      pop\n        /* \"PycharmProjects/UsalMasterCoin/contracts/GestionPuntos.sol\":1907:1917  _numPuntos */\n      dup2\n        /* \"PycharmProjects/UsalMasterCoin/contracts/GestionPuntos.sol\":1866:1874  clientes */\n      0x02\n        /* \"PycharmProjects/UsalMasterCoin/contracts/GestionPuntos.sol\":1866:1886  clientes[msg.sender] */\n      0x00\n        /* \"PycharmProjects/UsalMasterCoin/contracts/GestionPuntos.sol\":1875:1885  msg.sender */\n      caller\n        /* \"PycharmProjects/UsalMasterCoin/contracts/GestionPuntos.sol\":1866:1886  clientes[msg.sender] */\n      0xffffffffffffffffffffffffffffffffffffffff\n      and\n      0xffffffffffffffffffffffffffffffffffffffff\n      and\n      dup2\n      mstore\n      0x20\n      add\n      swap1\n      dup2\n      mstore\n      0x20\n      add\n      0x00\n      keccak256\n        /* \"PycharmProjects/UsalMasterCoin/contracts/GestionPuntos.sol\":1866:1903  clientes[msg.sender].puntos_canjeados */\n      0x00\n      add\n      0x00\n        /* \"PycharmProjects/UsalMasterCoin/contracts/GestionPuntos.sol\":1866:1917  clientes[msg.sender].puntos_canjeados += _numPuntos */\n      dup3\n      dup3\n      sload\n      tag_49\n      swap2\n      swap1\n      tag_50\n      jump\t// in\n    tag_49:\n      swap3\n      pop\n      pop\n      dup2\n      swap1\n      sstore\n      pop\n        /* \"PycharmProjects/UsalMasterCoin/contracts/GestionPuntos.sol\":1538:1925  {\r... */\n      pop\n        /* \"PycharmProjects/UsalMasterCoin/contracts/GestionPuntos.sol\":1483:1925  function CanjearPuntos(uint _numPuntos) public payable {\r... */\n      pop\n      jump\t// out\n        /* \"PycharmProjects/UsalMasterCoin/contracts/GestionPuntos.sol\":1101:1221  function AgregarCliente(address _direccion) public  {\r... */\n    tag_16:\n        /* \"PycharmProjects/UsalMasterCoin/contracts/GestionPuntos.sol\":1187:1213  Cliente(0,new string[](0)) */\n      mload(0x40)\n      dup1\n      0x40\n      add\n      0x40\n      mstore\n      dup1\n        /* \"PycharmProjects/UsalMasterCoin/contracts/GestionPuntos.sol\":1195:1196  0 */\n      0x00\n        /* \"PycharmProjects/UsalMasterCoin/contracts/GestionPuntos.sol\":1187:1213  Cliente(0,new string[](0)) */\n      dup2\n      mstore\n      0x20\n      add\n        /* \"PycharmProjects/UsalMasterCoin/contracts/GestionPuntos.sol\":1210:1211  0 */\n      0x00\n        /* \"PycharmProjects/UsalMasterCoin/contracts/GestionPuntos.sol\":1197:1212  new string[](0) */\n      0xffffffffffffffff\n      dup2\n      gt\n      iszero\n      tag_52\n      jumpi\n      tag_53\n      tag_54\n      jump\t// in\n    tag_53:\n    tag_52:\n      mload(0x40)\n      swap1\n      dup1\n      dup3\n      mstore\n      dup1\n      0x20\n      mul\n      0x20\n      add\n      dup3\n      add\n      0x40\n      mstore\n      dup1\n      iszero\n      tag_55\n      jumpi\n      dup2\n      0x20\n      add\n    tag_56:\n      0x60\n      dup2\n      mstore\n      0x20\n      add\n      swap1\n      0x01\n      swap1\n      sub\n      swap1\n      dup2\n      tag_56\n      jumpi\n      swap1\n      pop\n    tag_55:\n      pop\n        /* \"PycharmProjects/UsalMasterCoin/contracts/GestionPuntos.sol\":1187:1213  Cliente(0,new string[](0)) */\n      dup2\n      mstore\n      pop\n        /* \"PycharmProjects/UsalMasterCoin/contracts/GestionPuntos.sol\":1164:1172  clientes */\n      0x02\n        /* \"PycharmProjects/UsalMasterCoin/contracts/GestionPuntos.sol\":1164:1184  clientes[_direccion] */\n      0x00\n        /* \"PycharmProjects/UsalMasterCoin/contracts/GestionPuntos.sol\":1173:1183  _direccion */\n      dup4\n        /* \"PycharmProjects/UsalMasterCoin/contracts/GestionPuntos.sol\":1164:1184  clientes[_direccion] */\n      0xffffffffffffffffffffffffffffffffffffffff\n      and\n      0xffffffffffffffffffffffffffffffffffffffff\n      and\n      dup2\n      mstore\n      0x20\n      add\n      swap1\n      dup2\n      mstore\n      0x20\n      add\n      0x00\n      keccak256\n        /* \"PycharmProjects/UsalMasterCoin/contracts/GestionPuntos.sol\":1164:1213  clientes[_direccion] = Cliente(0,new string[](0)) */\n      0x00\n      dup3\n      add\n      mload\n      dup2\n      0x00\n      add\n      sstore\n      0x20\n      dup3\n      add\n      mload\n      dup2\n      0x01\n      add\n      swap1\n      dup1\n      mload\n      swap1\n      0x20\n      add\n      swap1\n      tag_57\n      swap3\n      swap2\n      swap1\n      tag_58\n      jump\t// in\n    tag_57:\n      pop\n      swap1\n      pop\n      pop\n        /* \"PycharmProjects/UsalMasterCoin/contracts/GestionPuntos.sol\":1101:1221  function AgregarCliente(address _direccion) public  {\r... */\n      pop\n      jump\t// out\n        /* \"PycharmProjects/UsalMasterCoin/contracts/GestionPuntos.sol\":695:800  function balanceOf() public view returns (uint) {\r... */\n    tag_19:\n        /* \"PycharmProjects/UsalMasterCoin/contracts/GestionPuntos.sol\":737:741  uint */\n      0x00\n        /* \"PycharmProjects/UsalMasterCoin/contracts/GestionPuntos.sol\":761:767  puntos */\n      dup1\n      0x00\n      swap1\n      sload\n      swap1\n      0x0100\n      exp\n      swap1\n      div\n      0xffffffffffffffffffffffffffffffffffffffff\n      and\n        /* \"PycharmProjects/UsalMasterCoin/contracts/GestionPuntos.sol\":761:777  puntos.balanceOf */\n      0xffffffffffffffffffffffffffffffffffffffff\n      and\n      0x70a08231\n        /* \"PycharmProjects/UsalMasterCoin/contracts/GestionPuntos.sol\":786:790  this */\n      address\n        /* \"PycharmProjects/UsalMasterCoin/contracts/GestionPuntos.sol\":761:792  puntos.balanceOf(address(this)) */\n      mload(0x40)\n      dup3\n      0xffffffff\n      and\n      0xe0\n      shl\n      dup2\n      mstore\n      0x04\n      add\n      tag_60\n      swap2\n      swap1\n      tag_32\n      jump\t// in\n    tag_60:\n      0x20\n      mload(0x40)\n      dup1\n      dup4\n      sub\n      dup2\n      dup7\n      dup1\n      extcodesize\n      iszero\n      dup1\n      iszero\n      tag_61\n      jumpi\n      0x00\n      dup1\n      revert\n    tag_61:\n      pop\n      gas\n      staticcall\n      iszero\n      dup1\n      iszero\n      tag_63\n      jumpi\n      returndatasize\n      0x00\n      dup1\n      returndatacopy\n      revert(0x00, returndatasize)\n    tag_63:\n      pop\n      pop\n      pop\n      pop\n      mload(0x40)\n      returndatasize\n      not(0x1f)\n      0x1f\n      dup3\n      add\n      and\n      dup3\n      add\n      dup1\n      0x40\n      mstore\n      pop\n      dup2\n      add\n      swap1\n      tag_64\n      swap2\n      swap1\n      tag_65\n      jump\t// in\n    tag_64:\n        /* \"PycharmProjects/UsalMasterCoin/contracts/GestionPuntos.sol\":754:792  return puntos.balanceOf(address(this)) */\n      swap1\n      pop\n        /* \"PycharmProjects/UsalMasterCoin/contracts/GestionPuntos.sol\":695:800  function balanceOf() public view returns (uint) {\r... */\n      swap1\n      jump\t// out\n        /* \"PycharmProjects/UsalMasterCoin/contracts/GestionPuntos.sol\":1292:1414  function ObtenerCliente(address _direccion) public returns (Cliente memory) {\r... */\n    tag_25:\n        /* \"PycharmProjects/UsalMasterCoin/contracts/GestionPuntos.sol\":1352:1366  Cliente memory */\n      tag_66\n      tag_67\n      jump\t// in\n    tag_66:\n        /* \"PycharmProjects/UsalMasterCoin/contracts/GestionPuntos.sol\":1386:1394  clientes */\n      0x02\n        /* \"PycharmProjects/UsalMasterCoin/contracts/GestionPuntos.sol\":1386:1406  clientes[_direccion] */\n      0x00\n        /* \"PycharmProjects/UsalMasterCoin/contracts/GestionPuntos.sol\":1395:1405  _direccion */\n      dup4\n        /* \"PycharmProjects/UsalMasterCoin/contracts/GestionPuntos.sol\":1386:1406  clientes[_direccion] */\n      0xffffffffffffffffffffffffffffffffffffffff\n      and\n      0xffffffffffffffffffffffffffffffffffffffff\n      and\n      dup2\n      mstore\n      0x20\n      add\n      swap1\n      dup2\n      mstore\n      0x20\n      add\n      0x00\n      keccak256\n        /* \"PycharmProjects/UsalMasterCoin/contracts/GestionPuntos.sol\":1379:1406  return clientes[_direccion] */\n      mload(0x40)\n      dup1\n      0x40\n      add\n      0x40\n      mstore\n      swap1\n      dup2\n      0x00\n      dup3\n      add\n      sload\n      dup2\n      mstore\n      0x20\n      add\n      0x01\n      dup3\n      add\n      dup1\n      sload\n      dup1\n      0x20\n      mul\n      0x20\n      add\n      mload(0x40)\n      swap1\n      dup2\n      add\n      0x40\n      mstore\n      dup1\n      swap3\n      swap2\n      swap1\n      dup2\n      dup2\n      mstore\n      0x20\n      add\n      0x00\n      swap1\n    tag_69:\n      dup3\n      dup3\n      lt\n      iszero\n      tag_70\n      jumpi\n      dup4\n      dup3\n      swap1\n      0x00\n      mstore\n      keccak256(0x00, 0x20)\n      add\n      dup1\n      sload\n      tag_72\n      swap1\n      tag_73\n      jump\t// in\n    tag_72:\n      dup1\n      0x1f\n      add\n      0x20\n      dup1\n      swap2\n      div\n      mul\n      0x20\n      add\n      mload(0x40)\n      swap1\n      dup2\n      add\n      0x40\n      mstore\n      dup1\n      swap3\n      swap2\n      swap1\n      dup2\n      dup2\n      mstore\n      0x20\n      add\n      dup3\n      dup1\n      sload\n      tag_74\n      swap1\n      tag_73\n      jump\t// in\n    tag_74:\n      dup1\n      iszero\n      tag_75\n      jumpi\n      dup1\n      0x1f\n      lt\n      tag_76\n      jumpi\n      0x0100\n      dup1\n      dup4\n      sload\n      div\n      mul\n      dup4\n      mstore\n      swap2\n      0x20\n      add\n      swap2\n      jump(tag_75)\n    tag_76:\n      dup3\n      add\n      swap2\n      swap1\n      0x00\n      mstore\n      keccak256(0x00, 0x20)\n      swap1\n    tag_77:\n      dup2\n      sload\n      dup2\n      mstore\n      swap1\n      0x01\n      add\n      swap1\n      0x20\n      add\n      dup1\n      dup4\n      gt\n      tag_77\n      jumpi\n      dup3\n      swap1\n      sub\n      0x1f\n      and\n      dup3\n      add\n      swap2\n    tag_75:\n      pop\n      pop\n      pop\n      pop\n      pop\n      dup2\n      mstore\n      0x20\n      add\n      swap1\n      0x01\n      add\n      swap1\n      jump(tag_69)\n    tag_70:\n      pop\n      pop\n      pop\n      pop\n      dup2\n      mstore\n      pop\n      pop\n      swap1\n      pop\n        /* \"PycharmProjects/UsalMasterCoin/contracts/GestionPuntos.sol\":1292:1414  function ObtenerCliente(address _direccion) public returns (Cliente memory) {\r... */\n      swap2\n      swap1\n      pop\n      jump\t// out\n        /* \"PycharmProjects/UsalMasterCoin/contracts/GestionPuntos.sol\":231:253  address public creador */\n    tag_30:\n      0x01\n      0x00\n      swap1\n      sload\n      swap1\n      0x0100\n      exp\n      swap1\n      div\n      0xffffffffffffffffffffffffffffffffffffffff\n      and\n      dup2\n      jump\t// out\n        /* \"PycharmProjects/UsalMasterCoin/contracts/GestionPuntos.sol\":1981:2086  function ObtenerPuntos() public view returns (uint){\r... */\n    tag_35:\n        /* \"PycharmProjects/UsalMasterCoin/contracts/GestionPuntos.sol\":2027:2031  uint */\n      0x00\n        /* \"PycharmProjects/UsalMasterCoin/contracts/GestionPuntos.sol\":2050:2056  puntos */\n      dup1\n      0x00\n      swap1\n      sload\n      swap1\n      0x0100\n      exp\n      swap1\n      div\n      0xffffffffffffffffffffffffffffffffffffffff\n      and\n        /* \"PycharmProjects/UsalMasterCoin/contracts/GestionPuntos.sol\":2050:2066  puntos.balanceOf */\n      0xffffffffffffffffffffffffffffffffffffffff\n      and\n      0x70a08231\n        /* \"PycharmProjects/UsalMasterCoin/contracts/GestionPuntos.sol\":2067:2077  msg.sender */\n      caller\n        /* \"PycharmProjects/UsalMasterCoin/contracts/GestionPuntos.sol\":2050:2078  puntos.balanceOf(msg.sender) */\n      mload(0x40)\n      dup3\n      0xffffffff\n      and\n      0xe0\n      shl\n      dup2\n      mstore\n      0x04\n      add\n      tag_79\n      swap2\n      swap1\n      tag_32\n      jump\t// in\n    tag_79:\n      0x20\n      mload(0x40)\n      dup1\n      dup4\n      sub\n      dup2\n      dup7\n      dup1\n      extcodesize\n      iszero\n      dup1\n      iszero\n      tag_80\n      jumpi\n      0x00\n      dup1\n      revert\n    tag_80:\n      pop\n      gas\n      staticcall\n      iszero\n      dup1\n      iszero\n      tag_82\n      jumpi\n      returndatasize\n      0x00\n      dup1\n      returndatacopy\n      revert(0x00, returndatasize)\n    tag_82:\n      pop\n      pop\n      pop\n      pop\n      mload(0x40)\n      returndatasize\n      not(0x1f)\n      0x1f\n      dup3\n      add\n      and\n      dup3\n      add\n      dup1\n      0x40\n      mstore\n      pop\n      dup2\n      add\n      swap1\n      tag_83\n      swap2\n      swap1\n      tag_65\n      jump\t// in\n    tag_83:\n        /* \"PycharmProjects/UsalMasterCoin/contracts/GestionPuntos.sol\":2043:2078  return puntos.balanceOf(msg.sender) */\n      swap1\n      pop\n        /* \"PycharmProjects/UsalMasterCoin/contracts/GestionPuntos.sol\":1981:2086  function ObtenerPuntos() public view returns (uint){\r... */\n      swap1\n      jump\t// out\n    tag_58:\n      dup3\n      dup1\n      sload\n      dup3\n      dup3\n      sstore\n      swap1\n      0x00\n      mstore\n      keccak256(0x00, 0x20)\n      swap1\n      dup2\n      add\n      swap3\n      dup3\n      iszero\n      tag_84\n      jumpi\n      swap2\n      0x20\n      mul\n      dup3\n      add\n    tag_85:\n      dup3\n      dup2\n      gt\n      iszero\n      tag_86\n      jumpi\n      dup3\n      mload\n      dup3\n      swap1\n      dup1\n      mload\n      swap1\n      0x20\n      add\n      swap1\n      tag_87\n      swap3\n      swap2\n      swap1\n      tag_88\n      jump\t// in\n    tag_87:\n      pop\n      swap2\n      0x20\n      add\n      swap2\n      swap1\n      0x01\n      add\n      swap1\n      jump(tag_85)\n    tag_86:\n    tag_84:\n      pop\n      swap1\n      pop\n      tag_89\n      swap2\n      swap1\n      tag_90\n      jump\t// in\n    tag_89:\n      pop\n      swap1\n      jump\t// out\n    tag_67:\n      mload(0x40)\n      dup1\n      0x40\n      add\n      0x40\n      mstore\n      dup1\n      0x00\n      dup2\n      mstore\n      0x20\n      add\n      0x60\n      dup2\n      mstore\n      pop\n      swap1\n      jump\t// out\n    tag_88:\n      dup3\n      dup1\n      sload\n      tag_91\n      swap1\n      tag_73\n      jump\t// in\n    tag_91:\n      swap1\n      0x00\n      mstore\n      keccak256(0x00, 0x20)\n      swap1\n      0x1f\n      add\n      0x20\n      swap1\n      div\n      dup2\n      add\n      swap3\n      dup3\n      tag_93\n      jumpi\n      0x00\n      dup6\n      sstore\n      jump(tag_92)\n    tag_93:\n      dup3\n      0x1f\n      lt\n      tag_94\n      jumpi\n      dup1\n      mload\n      not(0xff)\n      and\n      dup4\n      dup1\n      add\n      or\n      dup6\n      sstore\n      jump(tag_92)\n    tag_94:\n      dup3\n      dup1\n      add\n      0x01\n      add\n      dup6\n      sstore\n      dup3\n      iszero\n      tag_92\n      jumpi\n      swap2\n      dup3\n      add\n    tag_95:\n      dup3\n      dup2\n      gt\n      iszero\n      tag_96\n      jumpi\n      dup3\n      mload\n      dup3\n      sstore\n      swap2\n      0x20\n      add\n      swap2\n      swap1\n      0x01\n      add\n      swap1\n      jump(tag_95)\n    tag_96:\n    tag_92:\n      pop\n      swap1\n      pop\n      tag_97\n      swap2\n      swap1\n      tag_98\n      jump\t// in\n    tag_97:\n      pop\n      swap1\n      jump\t// out\n    tag_90:\n    tag_99:\n      dup1\n      dup3\n      gt\n      iszero\n      tag_100\n      jumpi\n      0x00\n      dup2\n      dup2\n      tag_101\n      swap2\n      swap1\n      tag_102\n      jump\t// in\n    tag_101:\n      pop\n      0x01\n      add\n      jump(tag_99)\n    tag_100:\n      pop\n      swap1\n      jump\t// out\n    tag_98:\n    tag_103:\n      dup1\n      dup3\n      gt\n      iszero\n      tag_104\n      jumpi\n      0x00\n      dup2\n      0x00\n      swap1\n      sstore\n      pop\n      0x01\n      add\n      jump(tag_103)\n    tag_104:\n      pop\n      swap1\n      jump\t// out\n    tag_102:\n      pop\n      dup1\n      sload\n      tag_105\n      swap1\n      tag_73\n      jump\t// in\n    tag_105:\n      0x00\n      dup3\n      sstore\n      dup1\n      0x1f\n      lt\n      tag_107\n      jumpi\n      pop\n      jump(tag_106)\n    tag_107:\n      0x1f\n      add\n      0x20\n      swap1\n      div\n      swap1\n      0x00\n      mstore\n      keccak256(0x00, 0x20)\n      swap1\n      dup2\n      add\n      swap1\n      tag_108\n      swap2\n      swap1\n      tag_98\n      jump\t// in\n    tag_108:\n    tag_106:\n      pop\n      jump\t// out\n        /* \"#utility.yul\":7:146   */\n    tag_110:\n        /* \"#utility.yul\":53:58   */\n      0x00\n        /* \"#utility.yul\":91:97   */\n      dup2\n        /* \"#utility.yul\":78:98   */\n      calldataload\n        /* \"#utility.yul\":69:98   */\n      swap1\n      pop\n        /* \"#utility.yul\":107:140   */\n      tag_112\n        /* \"#utility.yul\":134:139   */\n      dup2\n        /* \"#utility.yul\":107:140   */\n      tag_113\n      jump\t// in\n    tag_112:\n        /* \"#utility.yul\":7:146   */\n      swap3\n      swap2\n      pop\n      pop\n      jump\t// out\n        /* \"#utility.yul\":152:289   */\n    tag_114:\n        /* \"#utility.yul\":206:211   */\n      0x00\n        /* \"#utility.yul\":237:243   */\n      dup2\n        /* \"#utility.yul\":231:244   */\n      mload\n        /* \"#utility.yul\":222:244   */\n      swap1\n      pop\n        /* \"#utility.yul\":253:283   */\n      tag_116\n        /* \"#utility.yul\":277:282   */\n      dup2\n        /* \"#utility.yul\":253:283   */\n      tag_117\n      jump\t// in\n    tag_116:\n        /* \"#utility.yul\":152:289   */\n      swap3\n      swap2\n      pop\n      pop\n      jump\t// out\n        /* \"#utility.yul\":295:434   */\n    tag_118:\n        /* \"#utility.yul\":341:346   */\n      0x00\n        /* \"#utility.yul\":379:385   */\n      dup2\n        /* \"#utility.yul\":366:386   */\n      calldataload\n        /* \"#utility.yul\":357:386   */\n      swap1\n      pop\n        /* \"#utility.yul\":395:428   */\n      tag_120\n        /* \"#utility.yul\":422:427   */\n      dup2\n        /* \"#utility.yul\":395:428   */\n      tag_121\n      jump\t// in\n    tag_120:\n        /* \"#utility.yul\":295:434   */\n      swap3\n      swap2\n      pop\n      pop\n      jump\t// out\n        /* \"#utility.yul\":440:583   */\n    tag_122:\n        /* \"#utility.yul\":497:502   */\n      0x00\n        /* \"#utility.yul\":528:534   */\n      dup2\n        /* \"#utility.yul\":522:535   */\n      mload\n        /* \"#utility.yul\":513:535   */\n      swap1\n      pop\n        /* \"#utility.yul\":544:577   */\n      tag_124\n        /* \"#utility.yul\":571:576   */\n      dup2\n        /* \"#utility.yul\":544:577   */\n      tag_121\n      jump\t// in\n    tag_124:\n        /* \"#utility.yul\":440:583   */\n      swap3\n      swap2\n      pop\n      pop\n      jump\t// out\n        /* \"#utility.yul\":589:918   */\n    tag_15:\n        /* \"#utility.yul\":648:654   */\n      0x00\n        /* \"#utility.yul\":697:699   */\n      0x20\n        /* \"#utility.yul\":685:694   */\n      dup3\n        /* \"#utility.yul\":676:683   */\n      dup5\n        /* \"#utility.yul\":672:695   */\n      sub\n        /* \"#utility.yul\":668:700   */\n      slt\n        /* \"#utility.yul\":665:784   */\n      iszero\n      tag_126\n      jumpi\n        /* \"#utility.yul\":703:782   */\n      tag_127\n      tag_128\n      jump\t// in\n    tag_127:\n        /* \"#utility.yul\":665:784   */\n    tag_126:\n        /* \"#utility.yul\":823:824   */\n      0x00\n        /* \"#utility.yul\":848:901   */\n      tag_129\n        /* \"#utility.yul\":893:900   */\n      dup5\n        /* \"#utility.yul\":884:890   */\n      dup3\n        /* \"#utility.yul\":873:882   */\n      dup6\n        /* \"#utility.yul\":869:891   */\n      add\n        /* \"#utility.yul\":848:901   */\n      tag_110\n      jump\t// in\n    tag_129:\n        /* \"#utility.yul\":838:901   */\n      swap2\n      pop\n        /* \"#utility.yul\":794:911   */\n      pop\n        /* \"#utility.yul\":589:918   */\n      swap3\n      swap2\n      pop\n      pop\n      jump\t// out\n        /* \"#utility.yul\":924:1269   */\n    tag_48:\n        /* \"#utility.yul\":991:997   */\n      0x00\n        /* \"#utility.yul\":1040:1042   */\n      0x20\n        /* \"#utility.yul\":1028:1037   */\n      dup3\n        /* \"#utility.yul\":1019:1026   */\n      dup5\n        /* \"#utility.yul\":1015:1038   */\n      sub\n        /* \"#utility.yul\":1011:1043   */\n      slt\n        /* \"#utility.yul\":1008:1127   */\n      iszero\n      tag_131\n      jumpi\n        /* \"#utility.yul\":1046:1125   */\n      tag_132\n      tag_128\n      jump\t// in\n    tag_132:\n        /* \"#utility.yul\":1008:1127   */\n    tag_131:\n        /* \"#utility.yul\":1166:1167   */\n      0x00\n        /* \"#utility.yul\":1191:1252   */\n      tag_133\n        /* \"#utility.yul\":1244:1251   */\n      dup5\n        /* \"#utility.yul\":1235:1241   */\n      dup3\n        /* \"#utility.yul\":1224:1233   */\n      dup6\n        /* \"#utility.yul\":1220:1242   */\n      add\n        /* \"#utility.yul\":1191:1252   */\n      tag_114\n      jump\t// in\n    tag_133:\n        /* \"#utility.yul\":1181:1252   */\n      swap2\n      pop\n        /* \"#utility.yul\":1137:1262   */\n      pop\n        /* \"#utility.yul\":924:1269   */\n      swap3\n      swap2\n      pop\n      pop\n      jump\t// out\n        /* \"#utility.yul\":1275:1604   */\n    tag_10:\n        /* \"#utility.yul\":1334:1340   */\n      0x00\n        /* \"#utility.yul\":1383:1385   */\n      0x20\n        /* \"#utility.yul\":1371:1380   */\n      dup3\n        /* \"#utility.yul\":1362:1369   */\n      dup5\n        /* \"#utility.yul\":1358:1381   */\n      sub\n        /* \"#utility.yul\":1354:1386   */\n      slt\n        /* \"#utility.yul\":1351:1470   */\n      iszero\n      tag_135\n      jumpi\n        /* \"#utility.yul\":1389:1468   */\n      tag_136\n      tag_128\n      jump\t// in\n    tag_136:\n        /* \"#utility.yul\":1351:1470   */\n    tag_135:\n        /* \"#utility.yul\":1509:1510   */\n      0x00\n        /* \"#utility.yul\":1534:1587   */\n      tag_137\n        /* \"#utility.yul\":1579:1586   */\n      dup5\n        /* \"#utility.yul\":1570:1576   */\n      dup3\n        /* \"#utility.yul\":1559:1568   */\n      dup6\n        /* \"#utility.yul\":1555:1577   */\n      add\n        /* \"#utility.yul\":1534:1587   */\n      tag_118\n      jump\t// in\n    tag_137:\n        /* \"#utility.yul\":1524:1587   */\n      swap2\n      pop\n        /* \"#utility.yul\":1480:1597   */\n      pop\n        /* \"#utility.yul\":1275:1604   */\n      swap3\n      swap2\n      pop\n      pop\n      jump\t// out\n        /* \"#utility.yul\":1610:1961   */\n    tag_65:\n        /* \"#utility.yul\":1680:1686   */\n      0x00\n        /* \"#utility.yul\":1729:1731   */\n      0x20\n        /* \"#utility.yul\":1717:1726   */\n      dup3\n        /* \"#utility.yul\":1708:1715   */\n      dup5\n        /* \"#utility.yul\":1704:1727   */\n      sub\n        /* \"#utility.yul\":1700:1732   */\n      slt\n        /* \"#utility.yul\":1697:1816   */\n      iszero\n      tag_139\n      jumpi\n        /* \"#utility.yul\":1735:1814   */\n      tag_140\n      tag_128\n      jump\t// in\n    tag_140:\n        /* \"#utility.yul\":1697:1816   */\n    tag_139:\n        /* \"#utility.yul\":1855:1856   */\n      0x00\n        /* \"#utility.yul\":1880:1944   */\n      tag_141\n        /* \"#utility.yul\":1936:1943   */\n      dup5\n        /* \"#utility.yul\":1927:1933   */\n      dup3\n        /* \"#utility.yul\":1916:1925   */\n      dup6\n        /* \"#utility.yul\":1912:1934   */\n      add\n        /* \"#utility.yul\":1880:1944   */\n      tag_122\n      jump\t// in\n    tag_141:\n        /* \"#utility.yul\":1870:1944   */\n      swap2\n      pop\n        /* \"#utility.yul\":1826:1954   */\n      pop\n        /* \"#utility.yul\":1610:1961   */\n      swap3\n      swap2\n      pop\n      pop\n      jump\t// out\n        /* \"#utility.yul\":1967:2163   */\n    tag_142:\n        /* \"#utility.yul\":2056:2066   */\n      0x00\n        /* \"#utility.yul\":2091:2157   */\n      tag_144\n        /* \"#utility.yul\":2153:2156   */\n      dup4\n        /* \"#utility.yul\":2145:2151   */\n      dup4\n        /* \"#utility.yul\":2091:2157   */\n      tag_145\n      jump\t// in\n    tag_144:\n        /* \"#utility.yul\":2077:2157   */\n      swap1\n      pop\n        /* \"#utility.yul\":1967:2163   */\n      swap3\n      swap2\n      pop\n      pop\n      jump\t// out\n        /* \"#utility.yul\":2169:2287   */\n    tag_146:\n        /* \"#utility.yul\":2256:2280   */\n      tag_148\n        /* \"#utility.yul\":2274:2279   */\n      dup2\n        /* \"#utility.yul\":2256:2280   */\n      tag_149\n      jump\t// in\n    tag_148:\n        /* \"#utility.yul\":2251:2254   */\n      dup3\n        /* \"#utility.yul\":2244:2281   */\n      mstore\n        /* \"#utility.yul\":2169:2287   */\n      pop\n      pop\n      jump\t// out\n        /* \"#utility.yul\":2321:3292   */\n    tag_150:\n        /* \"#utility.yul\":2450:2453   */\n      0x00\n        /* \"#utility.yul\":2479:2543   */\n      tag_152\n        /* \"#utility.yul\":2537:2542   */\n      dup3\n        /* \"#utility.yul\":2479:2543   */\n      tag_153\n      jump\t// in\n    tag_152:\n        /* \"#utility.yul\":2559:2645   */\n      tag_154\n        /* \"#utility.yul\":2638:2644   */\n      dup2\n        /* \"#utility.yul\":2633:2636   */\n      dup6\n        /* \"#utility.yul\":2559:2645   */\n      tag_155\n      jump\t// in\n    tag_154:\n        /* \"#utility.yul\":2552:2645   */\n      swap4\n      pop\n        /* \"#utility.yul\":2671:2674   */\n      dup4\n        /* \"#utility.yul\":2716:2720   */\n      0x20\n        /* \"#utility.yul\":2708:2714   */\n      dup3\n        /* \"#utility.yul\":2704:2721   */\n      mul\n        /* \"#utility.yul\":2699:2702   */\n      dup6\n        /* \"#utility.yul\":2695:2722   */\n      add\n        /* \"#utility.yul\":2746:2812   */\n      tag_156\n        /* \"#utility.yul\":2806:2811   */\n      dup6\n        /* \"#utility.yul\":2746:2812   */\n      tag_157\n      jump\t// in\n    tag_156:\n        /* \"#utility.yul\":2835:2842   */\n      dup1\n        /* \"#utility.yul\":2866:2867   */\n      0x00\n        /* \"#utility.yul\":2851:3247   */\n    tag_158:\n        /* \"#utility.yul\":2876:2882   */\n      dup6\n        /* \"#utility.yul\":2873:2874   */\n      dup2\n        /* \"#utility.yul\":2870:2883   */\n      lt\n        /* \"#utility.yul\":2851:3247   */\n      iszero\n      tag_160\n      jumpi\n        /* \"#utility.yul\":2947:2956   */\n      dup5\n        /* \"#utility.yul\":2941:2945   */\n      dup5\n        /* \"#utility.yul\":2937:2957   */\n      sub\n        /* \"#utility.yul\":2932:2935   */\n      dup10\n        /* \"#utility.yul\":2925:2958   */\n      mstore\n        /* \"#utility.yul\":2998:3004   */\n      dup2\n        /* \"#utility.yul\":2992:3005   */\n      mload\n        /* \"#utility.yul\":3026:3110   */\n      tag_161\n        /* \"#utility.yul\":3105:3109   */\n      dup6\n        /* \"#utility.yul\":3090:3103   */\n      dup3\n        /* \"#utility.yul\":3026:3110   */\n      tag_142\n      jump\t// in\n    tag_161:\n        /* \"#utility.yul\":3018:3110   */\n      swap5\n      pop\n        /* \"#utility.yul\":3133:3203   */\n      tag_162\n        /* \"#utility.yul\":3196:3202   */\n      dup4\n        /* \"#utility.yul\":3133:3203   */\n      tag_163\n      jump\t// in\n    tag_162:\n        /* \"#utility.yul\":3123:3203   */\n      swap3\n      pop\n        /* \"#utility.yul\":3232:3236   */\n      0x20\n        /* \"#utility.yul\":3227:3230   */\n      dup11\n        /* \"#utility.yul\":3223:3237   */\n      add\n        /* \"#utility.yul\":3216:3237   */\n      swap10\n      pop\n        /* \"#utility.yul\":2911:3247   */\n      pop\n        /* \"#utility.yul\":2898:2899   */\n      0x01\n        /* \"#utility.yul\":2895:2896   */\n      dup2\n        /* \"#utility.yul\":2891:2900   */\n      add\n        /* \"#utility.yul\":2886:2900   */\n      swap1\n      pop\n        /* \"#utility.yul\":2851:3247   */\n      jump(tag_158)\n    tag_160:\n        /* \"#utility.yul\":2855:2869   */\n      pop\n        /* \"#utility.yul\":3263:3267   */\n      dup3\n        /* \"#utility.yul\":3256:3267   */\n      swap8\n      pop\n        /* \"#utility.yul\":3283:3286   */\n      dup8\n        /* \"#utility.yul\":3276:3286   */\n      swap6\n      pop\n        /* \"#utility.yul\":2455:3292   */\n      pop\n      pop\n      pop\n      pop\n      pop\n        /* \"#utility.yul\":2321:3292   */\n      swap3\n      swap2\n      pop\n      pop\n      jump\t// out\n        /* \"#utility.yul\":3298:3642   */\n    tag_145:\n        /* \"#utility.yul\":3376:3379   */\n      0x00\n        /* \"#utility.yul\":3404:3443   */\n      tag_165\n        /* \"#utility.yul\":3437:3442   */\n      dup3\n        /* \"#utility.yul\":3404:3443   */\n      tag_166\n      jump\t// in\n    tag_165:\n        /* \"#utility.yul\":3459:3520   */\n      tag_167\n        /* \"#utility.yul\":3513:3519   */\n      dup2\n        /* \"#utility.yul\":3508:3511   */\n      dup6\n        /* \"#utility.yul\":3459:3520   */\n      tag_168\n      jump\t// in\n    tag_167:\n        /* \"#utility.yul\":3452:3520   */\n      swap4\n      pop\n        /* \"#utility.yul\":3529:3581   */\n      tag_169\n        /* \"#utility.yul\":3574:3580   */\n      dup2\n        /* \"#utility.yul\":3569:3572   */\n      dup6\n        /* \"#utility.yul\":3562:3566   */\n      0x20\n        /* \"#utility.yul\":3555:3560   */\n      dup7\n        /* \"#utility.yul\":3551:3567   */\n      add\n        /* \"#utility.yul\":3529:3581   */\n      tag_170\n      jump\t// in\n    tag_169:\n        /* \"#utility.yul\":3606:3635   */\n      tag_171\n        /* \"#utility.yul\":3628:3634   */\n      dup2\n        /* \"#utility.yul\":3606:3635   */\n      tag_172\n      jump\t// in\n    tag_171:\n        /* \"#utility.yul\":3601:3604   */\n      dup5\n        /* \"#utility.yul\":3597:3636   */\n      add\n        /* \"#utility.yul\":3590:3636   */\n      swap2\n      pop\n        /* \"#utility.yul\":3380:3642   */\n      pop\n        /* \"#utility.yul\":3298:3642   */\n      swap3\n      swap2\n      pop\n      pop\n      jump\t// out\n        /* \"#utility.yul\":3648:4014   */\n    tag_173:\n        /* \"#utility.yul\":3790:3793   */\n      0x00\n        /* \"#utility.yul\":3811:3878   */\n      tag_175\n        /* \"#utility.yul\":3875:3877   */\n      0x29\n        /* \"#utility.yul\":3870:3873   */\n      dup4\n        /* \"#utility.yul\":3811:3878   */\n      tag_176\n      jump\t// in\n    tag_175:\n        /* \"#utility.yul\":3804:3878   */\n      swap2\n      pop\n        /* \"#utility.yul\":3887:3980   */\n      tag_177\n        /* \"#utility.yul\":3976:3979   */\n      dup3\n        /* \"#utility.yul\":3887:3980   */\n      tag_178\n      jump\t// in\n    tag_177:\n        /* \"#utility.yul\":4005:4007   */\n      0x40\n        /* \"#utility.yul\":4000:4003   */\n      dup3\n        /* \"#utility.yul\":3996:4008   */\n      add\n        /* \"#utility.yul\":3989:4008   */\n      swap1\n      pop\n        /* \"#utility.yul\":3648:4014   */\n      swap2\n      swap1\n      pop\n      jump\t// out\n        /* \"#utility.yul\":4098:4782   */\n    tag_179:\n        /* \"#utility.yul\":4215:4218   */\n      0x00\n        /* \"#utility.yul\":4251:4255   */\n      0x40\n        /* \"#utility.yul\":4246:4249   */\n      dup4\n        /* \"#utility.yul\":4242:4256   */\n      add\n        /* \"#utility.yul\":4350:4354   */\n      0x00\n        /* \"#utility.yul\":4343:4348   */\n      dup4\n        /* \"#utility.yul\":4339:4355   */\n      add\n        /* \"#utility.yul\":4333:4356   */\n      mload\n        /* \"#utility.yul\":4369:4432   */\n      tag_181\n        /* \"#utility.yul\":4426:4430   */\n      0x00\n        /* \"#utility.yul\":4421:4424   */\n      dup7\n        /* \"#utility.yul\":4417:4431   */\n      add\n        /* \"#utility.yul\":4403:4415   */\n      dup3\n        /* \"#utility.yul\":4369:4432   */\n      tag_182\n      jump\t// in\n    tag_181:\n        /* \"#utility.yul\":4266:4442   */\n      pop\n        /* \"#utility.yul\":4542:4546   */\n      0x20\n        /* \"#utility.yul\":4535:4540   */\n      dup4\n        /* \"#utility.yul\":4531:4547   */\n      add\n        /* \"#utility.yul\":4525:4548   */\n      mload\n        /* \"#utility.yul\":4595:4598   */\n      dup5\n        /* \"#utility.yul\":4589:4593   */\n      dup3\n        /* \"#utility.yul\":4585:4599   */\n      sub\n        /* \"#utility.yul\":4578:4582   */\n      0x20\n        /* \"#utility.yul\":4573:4576   */\n      dup7\n        /* \"#utility.yul\":4569:4583   */\n      add\n        /* \"#utility.yul\":4562:4600   */\n      mstore\n        /* \"#utility.yul\":4621:4744   */\n      tag_183\n        /* \"#utility.yul\":4739:4743   */\n      dup3\n        /* \"#utility.yul\":4725:4737   */\n      dup3\n        /* \"#utility.yul\":4621:4744   */\n      tag_150\n      jump\t// in\n    tag_183:\n        /* \"#utility.yul\":4613:4744   */\n      swap2\n      pop\n        /* \"#utility.yul\":4452:4755   */\n      pop\n        /* \"#utility.yul\":4772:4776   */\n      dup1\n        /* \"#utility.yul\":4765:4776   */\n      swap2\n      pop\n        /* \"#utility.yul\":4220:4782   */\n      pop\n        /* \"#utility.yul\":4098:4782   */\n      swap3\n      swap2\n      pop\n      pop\n      jump\t// out\n        /* \"#utility.yul\":4788:4896   */\n    tag_182:\n        /* \"#utility.yul\":4865:4889   */\n      tag_185\n        /* \"#utility.yul\":4883:4888   */\n      dup2\n        /* \"#utility.yul\":4865:4889   */\n      tag_186\n      jump\t// in\n    tag_185:\n        /* \"#utility.yul\":4860:4863   */\n      dup3\n        /* \"#utility.yul\":4853:4890   */\n      mstore\n        /* \"#utility.yul\":4788:4896   */\n      pop\n      pop\n      jump\t// out\n        /* \"#utility.yul\":4902:5020   */\n    tag_187:\n        /* \"#utility.yul\":4989:5013   */\n      tag_189\n        /* \"#utility.yul\":5007:5012   */\n      dup2\n        /* \"#utility.yul\":4989:5013   */\n      tag_186\n      jump\t// in\n    tag_189:\n        /* \"#utility.yul\":4984:4987   */\n      dup3\n        /* \"#utility.yul\":4977:5014   */\n      mstore\n        /* \"#utility.yul\":4902:5020   */\n      pop\n      pop\n      jump\t// out\n        /* \"#utility.yul\":5026:5248   */\n    tag_32:\n        /* \"#utility.yul\":5119:5123   */\n      0x00\n        /* \"#utility.yul\":5157:5159   */\n      0x20\n        /* \"#utility.yul\":5146:5155   */\n      dup3\n        /* \"#utility.yul\":5142:5160   */\n      add\n        /* \"#utility.yul\":5134:5160   */\n      swap1\n      pop\n        /* \"#utility.yul\":5170:5241   */\n      tag_191\n        /* \"#utility.yul\":5238:5239   */\n      0x00\n        /* \"#utility.yul\":5227:5236   */\n      dup4\n        /* \"#utility.yul\":5223:5240   */\n      add\n        /* \"#utility.yul\":5214:5220   */\n      dup5\n        /* \"#utility.yul\":5170:5241   */\n      tag_146\n      jump\t// in\n    tag_191:\n        /* \"#utility.yul\":5026:5248   */\n      swap3\n      swap2\n      pop\n      pop\n      jump\t// out\n        /* \"#utility.yul\":5254:5586   */\n    tag_43:\n        /* \"#utility.yul\":5375:5379   */\n      0x00\n        /* \"#utility.yul\":5413:5415   */\n      0x40\n        /* \"#utility.yul\":5402:5411   */\n      dup3\n        /* \"#utility.yul\":5398:5416   */\n      add\n        /* \"#utility.yul\":5390:5416   */\n      swap1\n      pop\n        /* \"#utility.yul\":5426:5497   */\n      tag_193\n        /* \"#utility.yul\":5494:5495   */\n      0x00\n        /* \"#utility.yul\":5483:5492   */\n      dup4\n        /* \"#utility.yul\":5479:5496   */\n      add\n        /* \"#utility.yul\":5470:5476   */\n      dup6\n        /* \"#utility.yul\":5426:5497   */\n      tag_146\n      jump\t// in\n    tag_193:\n        /* \"#utility.yul\":5507:5579   */\n      tag_194\n        /* \"#utility.yul\":5575:5577   */\n      0x20\n        /* \"#utility.yul\":5564:5573   */\n      dup4\n        /* \"#utility.yul\":5560:5578   */\n      add\n        /* \"#utility.yul\":5551:5557   */\n      dup5\n        /* \"#utility.yul\":5507:5579   */\n      tag_187\n      jump\t// in\n    tag_194:\n        /* \"#utility.yul\":5254:5586   */\n      swap4\n      swap3\n      pop\n      pop\n      pop\n      jump\t// out\n        /* \"#utility.yul\":5592:6011   */\n    tag_41:\n        /* \"#utility.yul\":5758:5762   */\n      0x00\n        /* \"#utility.yul\":5796:5798   */\n      0x20\n        /* \"#utility.yul\":5785:5794   */\n      dup3\n        /* \"#utility.yul\":5781:5799   */\n      add\n        /* \"#utility.yul\":5773:5799   */\n      swap1\n      pop\n        /* \"#utility.yul\":5845:5854   */\n      dup2\n        /* \"#utility.yul\":5839:5843   */\n      dup2\n        /* \"#utility.yul\":5835:5855   */\n      sub\n        /* \"#utility.yul\":5831:5832   */\n      0x00\n        /* \"#utility.yul\":5820:5829   */\n      dup4\n        /* \"#utility.yul\":5816:5833   */\n      add\n        /* \"#utility.yul\":5809:5856   */\n      mstore\n        /* \"#utility.yul\":5873:6004   */\n      tag_196\n        /* \"#utility.yul\":5999:6003   */\n      dup2\n        /* \"#utility.yul\":5873:6004   */\n      tag_173\n      jump\t// in\n    tag_196:\n        /* \"#utility.yul\":5865:6004   */\n      swap1\n      pop\n        /* \"#utility.yul\":5592:6011   */\n      swap2\n      swap1\n      pop\n      jump\t// out\n        /* \"#utility.yul\":6017:6386   */\n    tag_27:\n        /* \"#utility.yul\":6158:6162   */\n      0x00\n        /* \"#utility.yul\":6196:6198   */\n      0x20\n        /* \"#utility.yul\":6185:6194   */\n      dup3\n        /* \"#utility.yul\":6181:6199   */\n      add\n        /* \"#utility.yul\":6173:6199   */\n      swap1\n      pop\n        /* \"#utility.yul\":6245:6254   */\n      dup2\n        /* \"#utility.yul\":6239:6243   */\n      dup2\n        /* \"#utility.yul\":6235:6255   */\n      sub\n        /* \"#utility.yul\":6231:6232   */\n      0x00\n        /* \"#utility.yul\":6220:6229   */\n      dup4\n        /* \"#utility.yul\":6216:6233   */\n      add\n        /* \"#utility.yul\":6209:6256   */\n      mstore\n        /* \"#utility.yul\":6273:6379   */\n      tag_198\n        /* \"#utility.yul\":6374:6378   */\n      dup2\n        /* \"#utility.yul\":6365:6371   */\n      dup5\n        /* \"#utility.yul\":6273:6379   */\n      tag_179\n      jump\t// in\n    tag_198:\n        /* \"#utility.yul\":6265:6379   */\n      swap1\n      pop\n        /* \"#utility.yul\":6017:6386   */\n      swap3\n      swap2\n      pop\n      pop\n      jump\t// out\n        /* \"#utility.yul\":6392:6614   */\n    tag_21:\n        /* \"#utility.yul\":6485:6489   */\n      0x00\n        /* \"#utility.yul\":6523:6525   */\n      0x20\n        /* \"#utility.yul\":6512:6521   */\n      dup3\n        /* \"#utility.yul\":6508:6526   */\n      add\n        /* \"#utility.yul\":6500:6526   */\n      swap1\n      pop\n        /* \"#utility.yul\":6536:6607   */\n      tag_200\n        /* \"#utility.yul\":6604:6605   */\n      0x00\n        /* \"#utility.yul\":6593:6602   */\n      dup4\n        /* \"#utility.yul\":6589:6606   */\n      add\n        /* \"#utility.yul\":6580:6586   */\n      dup5\n        /* \"#utility.yul\":6536:6607   */\n      tag_187\n      jump\t// in\n    tag_200:\n        /* \"#utility.yul\":6392:6614   */\n      swap3\n      swap2\n      pop\n      pop\n      jump\t// out\n        /* \"#utility.yul\":6701:6843   */\n    tag_157:\n        /* \"#utility.yul\":6778:6782   */\n      0x00\n        /* \"#utility.yul\":6801:6804   */\n      dup2\n        /* \"#utility.yul\":6793:6804   */\n      swap1\n      pop\n        /* \"#utility.yul\":6831:6835   */\n      0x20\n        /* \"#utility.yul\":6826:6829   */\n      dup3\n        /* \"#utility.yul\":6822:6836   */\n      add\n        /* \"#utility.yul\":6814:6836   */\n      swap1\n      pop\n        /* \"#utility.yul\":6701:6843   */\n      swap2\n      swap1\n      pop\n      jump\t// out\n        /* \"#utility.yul\":6849:6973   */\n    tag_153:\n        /* \"#utility.yul\":6926:6932   */\n      0x00\n        /* \"#utility.yul\":6960:6965   */\n      dup2\n        /* \"#utility.yul\":6954:6966   */\n      mload\n        /* \"#utility.yul\":6944:6966   */\n      swap1\n      pop\n        /* \"#utility.yul\":6849:6973   */\n      swap2\n      swap1\n      pop\n      jump\t// out\n        /* \"#utility.yul\":6979:7078   */\n    tag_166:\n        /* \"#utility.yul\":7031:7037   */\n      0x00\n        /* \"#utility.yul\":7065:7070   */\n      dup2\n        /* \"#utility.yul\":7059:7071   */\n      mload\n        /* \"#utility.yul\":7049:7071   */\n      swap1\n      pop\n        /* \"#utility.yul\":6979:7078   */\n      swap2\n      swap1\n      pop\n      jump\t// out\n        /* \"#utility.yul\":7084:7207   */\n    tag_163:\n        /* \"#utility.yul\":7164:7168   */\n      0x00\n        /* \"#utility.yul\":7196:7200   */\n      0x20\n        /* \"#utility.yul\":7191:7194   */\n      dup3\n        /* \"#utility.yul\":7187:7201   */\n      add\n        /* \"#utility.yul\":7179:7201   */\n      swap1\n      pop\n        /* \"#utility.yul\":7084:7207   */\n      swap2\n      swap1\n      pop\n      jump\t// out\n        /* \"#utility.yul\":7213:7397   */\n    tag_155:\n        /* \"#utility.yul\":7312:7323   */\n      0x00\n        /* \"#utility.yul\":7346:7352   */\n      dup3\n        /* \"#utility.yul\":7341:7344   */\n      dup3\n        /* \"#utility.yul\":7334:7353   */\n      mstore\n        /* \"#utility.yul\":7386:7390   */\n      0x20\n        /* \"#utility.yul\":7381:7384   */\n      dup3\n        /* \"#utility.yul\":7377:7391   */\n      add\n        /* \"#utility.yul\":7362:7391   */\n      swap1\n      pop\n        /* \"#utility.yul\":7213:7397   */\n      swap3\n      swap2\n      pop\n      pop\n      jump\t// out\n        /* \"#utility.yul\":7403:7562   */\n    tag_168:\n        /* \"#utility.yul\":7477:7488   */\n      0x00\n        /* \"#utility.yul\":7511:7517   */\n      dup3\n        /* \"#utility.yul\":7506:7509   */\n      dup3\n        /* \"#utility.yul\":7499:7518   */\n      mstore\n        /* \"#utility.yul\":7551:7555   */\n      0x20\n        /* \"#utility.yul\":7546:7549   */\n      dup3\n        /* \"#utility.yul\":7542:7556   */\n      add\n        /* \"#utility.yul\":7527:7556   */\n      swap1\n      pop\n        /* \"#utility.yul\":7403:7562   */\n      swap3\n      swap2\n      pop\n      pop\n      jump\t// out\n        /* \"#utility.yul\":7568:7737   */\n    tag_176:\n        /* \"#utility.yul\":7652:7663   */\n      0x00\n        /* \"#utility.yul\":7686:7692   */\n      dup3\n        /* \"#utility.yul\":7681:7684   */\n      dup3\n        /* \"#utility.yul\":7674:7693   */\n      mstore\n        /* \"#utility.yul\":7726:7730   */\n      0x20\n        /* \"#utility.yul\":7721:7724   */\n      dup3\n        /* \"#utility.yul\":7717:7731   */\n      add\n        /* \"#utility.yul\":7702:7731   */\n      swap1\n      pop\n        /* \"#utility.yul\":7568:7737   */\n      swap3\n      swap2\n      pop\n      pop\n      jump\t// out\n        /* \"#utility.yul\":7743:8048   */\n    tag_50:\n        /* \"#utility.yul\":7783:7786   */\n      0x00\n        /* \"#utility.yul\":7802:7822   */\n      tag_211\n        /* \"#utility.yul\":7820:7821   */\n      dup3\n        /* \"#utility.yul\":7802:7822   */\n      tag_186\n      jump\t// in\n    tag_211:\n        /* \"#utility.yul\":7797:7822   */\n      swap2\n      pop\n        /* \"#utility.yul\":7836:7856   */\n      tag_212\n        /* \"#utility.yul\":7854:7855   */\n      dup4\n        /* \"#utility.yul\":7836:7856   */\n      tag_186\n      jump\t// in\n    tag_212:\n        /* \"#utility.yul\":7831:7856   */\n      swap3\n      pop\n        /* \"#utility.yul\":7990:7991   */\n      dup3\n        /* \"#utility.yul\":7922:7988   */\n      0xffffffffffffffffffffffffffffffffffffffffffffffffffffffffffffffff\n        /* \"#utility.yul\":7918:7992   */\n      sub\n        /* \"#utility.yul\":7915:7916   */\n      dup3\n        /* \"#utility.yul\":7912:7993   */\n      gt\n        /* \"#utility.yul\":7909:8016   */\n      iszero\n      tag_213\n      jumpi\n        /* \"#utility.yul\":7996:8014   */\n      tag_214\n      tag_215\n      jump\t// in\n    tag_214:\n        /* \"#utility.yul\":7909:8016   */\n    tag_213:\n        /* \"#utility.yul\":8040:8041   */\n      dup3\n        /* \"#utility.yul\":8037:8038   */\n      dup3\n        /* \"#utility.yul\":8033:8042   */\n      add\n        /* \"#utility.yul\":8026:8042   */\n      swap1\n      pop\n        /* \"#utility.yul\":7743:8048   */\n      swap3\n      swap2\n      pop\n      pop\n      jump\t// out\n        /* \"#utility.yul\":8054:8150   */\n    tag_149:\n        /* \"#utility.yul\":8091:8098   */\n      0x00\n        /* \"#utility.yul\":8120:8144   */\n      tag_217\n        /* \"#utility.yul\":8138:8143   */\n      dup3\n        /* \"#utility.yul\":8120:8144   */\n      tag_218\n      jump\t// in\n    tag_217:\n        /* \"#utility.yul\":8109:8144   */\n      swap1\n      pop\n        /* \"#utility.yul\":8054:8150   */\n      swap2\n      swap1\n      pop\n      jump\t// out\n        /* \"#utility.yul\":8156:8246   */\n    tag_219:\n        /* \"#utility.yul\":8190:8197   */\n      0x00\n        /* \"#utility.yul\":8233:8238   */\n      dup2\n        /* \"#utility.yul\":8226:8239   */\n      iszero\n        /* \"#utility.yul\":8219:8240   */\n      iszero\n        /* \"#utility.yul\":8208:8240   */\n      swap1\n      pop\n        /* \"#utility.yul\":8156:8246   */\n      swap2\n      swap1\n      pop\n      jump\t// out\n        /* \"#utility.yul\":8252:8378   */\n    tag_218:\n        /* \"#utility.yul\":8289:8296   */\n      0x00\n        /* \"#utility.yul\":8329:8371   */\n      0xffffffffffffffffffffffffffffffffffffffff\n        /* \"#utility.yul\":8322:8327   */\n      dup3\n        /* \"#utility.yul\":8318:8372   */\n      and\n        /* \"#utility.yul\":8307:8372   */\n      swap1\n      pop\n        /* \"#utility.yul\":8252:8378   */\n      swap2\n      swap1\n      pop\n      jump\t// out\n        /* \"#utility.yul\":8384:8461   */\n    tag_186:\n        /* \"#utility.yul\":8421:8428   */\n      0x00\n        /* \"#utility.yul\":8450:8455   */\n      dup2\n        /* \"#utility.yul\":8439:8455   */\n      swap1\n      pop\n        /* \"#utility.yul\":8384:8461   */\n      swap2\n      swap1\n      pop\n      jump\t// out\n        /* \"#utility.yul\":8467:8774   */\n    tag_170:\n        /* \"#utility.yul\":8535:8536   */\n      0x00\n        /* \"#utility.yul\":8545:8658   */\n    tag_224:\n        /* \"#utility.yul\":8559:8565   */\n      dup4\n        /* \"#utility.yul\":8556:8557   */\n      dup2\n        /* \"#utility.yul\":8553:8566   */\n      lt\n        /* \"#utility.yul\":8545:8658   */\n      iszero\n      tag_226\n      jumpi\n        /* \"#utility.yul\":8644:8645   */\n      dup1\n        /* \"#utility.yul\":8639:8642   */\n      dup3\n        /* \"#utility.yul\":8635:8646   */\n      add\n        /* \"#utility.yul\":8629:8647   */\n      mload\n        /* \"#utility.yul\":8625:8626   */\n      dup2\n        /* \"#utility.yul\":8620:8623   */\n      dup5\n        /* \"#utility.yul\":8616:8627   */\n      add\n        /* \"#utility.yul\":8609:8648   */\n      mstore\n        /* \"#utility.yul\":8581:8583   */\n      0x20\n        /* \"#utility.yul\":8578:8579   */\n      dup2\n        /* \"#utility.yul\":8574:8584   */\n      add\n        /* \"#utility.yul\":8569:8584   */\n      swap1\n      pop\n        /* \"#utility.yul\":8545:8658   */\n      jump(tag_224)\n    tag_226:\n        /* \"#utility.yul\":8676:8682   */\n      dup4\n        /* \"#utility.yul\":8673:8674   */\n      dup2\n        /* \"#utility.yul\":8670:8683   */\n      gt\n        /* \"#utility.yul\":8667:8768   */\n      iszero\n      tag_227\n      jumpi\n        /* \"#utility.yul\":8756:8757   */\n      0x00\n        /* \"#utility.yul\":8747:8753   */\n      dup5\n        /* \"#utility.yul\":8742:8745   */\n      dup5\n        /* \"#utility.yul\":8738:8754   */\n      add\n        /* \"#utility.yul\":8731:8758   */\n      mstore\n        /* \"#utility.yul\":8667:8768   */\n    tag_227:\n        /* \"#utility.yul\":8516:8774   */\n      pop\n        /* \"#utility.yul\":8467:8774   */\n      pop\n      pop\n      pop\n      jump\t// out\n        /* \"#utility.yul\":8780:9100   */\n    tag_73:\n        /* \"#utility.yul\":8824:8830   */\n      0x00\n        /* \"#utility.yul\":8861:8862   */\n      0x02\n        /* \"#utility.yul\":8855:8859   */\n      dup3\n        /* \"#utility.yul\":8851:8863   */\n      div\n        /* \"#utility.yul\":8841:8863   */\n      swap1\n      pop\n        /* \"#utility.yul\":8908:8909   */\n      0x01\n        /* \"#utility.yul\":8902:8906   */\n      dup3\n        /* \"#utility.yul\":8898:8910   */\n      and\n        /* \"#utility.yul\":8929:8947   */\n      dup1\n        /* \"#utility.yul\":8919:9000   */\n      tag_229\n      jumpi\n        /* \"#utility.yul\":8985:8989   */\n      0x7f\n        /* \"#utility.yul\":8977:8983   */\n      dup3\n        /* \"#utility.yul\":8973:8990   */\n      and\n        /* \"#utility.yul\":8963:8990   */\n      swap2\n      pop\n        /* \"#utility.yul\":8919:9000   */\n    tag_229:\n        /* \"#utility.yul\":9047:9049   */\n      0x20\n        /* \"#utility.yul\":9039:9045   */\n      dup3\n        /* \"#utility.yul\":9036:9050   */\n      lt\n        /* \"#utility.yul\":9016:9034   */\n      dup2\n        /* \"#utility.yul\":9013:9051   */\n      eq\n        /* \"#utility.yul\":9010:9094   */\n      iszero\n      tag_230\n      jumpi\n        /* \"#utility.yul\":9066:9084   */\n      tag_231\n      tag_232\n      jump\t// in\n    tag_231:\n        /* \"#utility.yul\":9010:9094   */\n    tag_230:\n        /* \"#utility.yul\":8831:9100   */\n      pop\n        /* \"#utility.yul\":8780:9100   */\n      swap2\n      swap1\n      pop\n      jump\t// out\n        /* \"#utility.yul\":9106:9286   */\n    tag_215:\n        /* \"#utility.yul\":9154:9231   */\n      0x4e487b7100000000000000000000000000000000000000000000000000000000\n        /* \"#utility.yul\":9151:9152   */\n      0x00\n        /* \"#utility.yul\":9144:9232   */\n      mstore\n        /* \"#utility.yul\":9251:9255   */\n      0x11\n        /* \"#utility.yul\":9248:9249   */\n      0x04\n        /* \"#utility.yul\":9241:9256   */\n      mstore\n        /* \"#utility.yul\":9275:9279   */\n      0x24\n        /* \"#utility.yul\":9272:9273   */\n      0x00\n        /* \"#utility.yul\":9265:9280   */\n      revert\n        /* \"#utility.yul\":9292:9472   */\n    tag_232:\n        /* \"#utility.yul\":9340:9417   */\n      0x4e487b7100000000000000000000000000000000000000000000000000000000\n        /* \"#utility.yul\":9337:9338   */\n      0x00\n        /* \"#utility.yul\":9330:9418   */\n      mstore\n        /* \"#utility.yul\":9437:9441   */\n      0x22\n        /* \"#utility.yul\":9434:9435   */\n      0x04\n        /* \"#utility.yul\":9427:9442   */\n      mstore\n        /* \"#utility.yul\":9461:9465   */\n      0x24\n        /* \"#utility.yul\":9458:9459   */\n      0x00\n        /* \"#utility.yul\":9451:9466   */\n      revert\n        /* \"#utility.yul\":9478:9658   */\n    tag_54:\n        /* \"#utility.yul\":9526:9603   */\n      0x4e487b7100000000000000000000000000000000000000000000000000000000\n        /* \"#utility.yul\":9523:9524   */\n      0x00\n        /* \"#utility.yul\":9516:9604   */\n      mstore\n        /* \"#utility.yul\":9623:9627   */\n      0x41\n        /* \"#utility.yul\":9620:9621   */\n      0x04\n        /* \"#utility.yul\":9613:9628   */\n      mstore\n        /* \"#utility.yul\":9647:9651   */\n      0x24\n        /* \"#utility.yul\":9644:9645   */\n      0x00\n        /* \"#utility.yul\":9637:9652   */\n      revert\n        /* \"#utility.yul\":9787:9904   */\n    tag_128:\n        /* \"#utility.yul\":9896:9897   */\n      0x00\n        /* \"#utility.yul\":9893:9894   */\n      dup1\n        /* \"#utility.yul\":9886:9898   */\n      revert\n        /* \"#utility.yul\":9910:10012   */\n    tag_172:\n        /* \"#utility.yul\":9951:9957   */\n      0x00\n        /* \"#utility.yul\":10002:10004   */\n      0x1f\n        /* \"#utility.yul\":9998:10005   */\n      not\n        /* \"#utility.yul\":9993:9995   */\n      0x1f\n        /* \"#utility.yul\":9986:9991   */\n      dup4\n        /* \"#utility.yul\":9982:9996   */\n      add\n        /* \"#utility.yul\":9978:10006   */\n      and\n        /* \"#utility.yul\":9968:10006   */\n      swap1\n      pop\n        /* \"#utility.yul\":9910:10012   */\n      swap2\n      swap1\n      pop\n      jump\t// out\n        /* \"#utility.yul\":10018:10246   */\n    tag_178:\n        /* \"#utility.yul\":10158:10192   */\n      0x4e6f2071756564616e2070756e746f7320646973706f6e69626c657320706172\n        /* \"#utility.yul\":10154:10155   */\n      0x00\n        /* \"#utility.yul\":10146:10152   */\n      dup3\n        /* \"#utility.yul\":10142:10156   */\n      add\n        /* \"#utility.yul\":10135:10193   */\n      mstore\n        /* \"#utility.yul\":10227:10238   */\n      0x6120636f6d707261720000000000000000000000000000000000000000000000\n        /* \"#utility.yul\":10222:10224   */\n      0x20\n        /* \"#utility.yul\":10214:10220   */\n      dup3\n        /* \"#utility.yul\":10210:10225   */\n      add\n        /* \"#utility.yul\":10203:10239   */\n      mstore\n        /* \"#utility.yul\":10018:10246   */\n      pop\n      jump\t// out\n        /* \"#utility.yul\":10252:10374   */\n    tag_113:\n        /* \"#utility.yul\":10325:10349   */\n      tag_242\n        /* \"#utility.yul\":10343:10348   */\n      dup2\n        /* \"#utility.yul\":10325:10349   */\n      tag_149\n      jump\t// in\n    tag_242:\n        /* \"#utility.yul\":10318:10323   */\n      dup2\n        /* \"#utility.yul\":10315:10350   */\n      eq\n        /* \"#utility.yul\":10305:10368   */\n      tag_243\n      jumpi\n        /* \"#utility.yul\":10364:10365   */\n      0x00\n        /* \"#utility.yul\":10361:10362   */\n      dup1\n        /* \"#utility.yul\":10354:10366   */\n      revert\n        /* \"#utility.yul\":10305:10368   */\n    tag_243:\n        /* \"#utility.yul\":10252:10374   */\n      pop\n      jump\t// out\n        /* \"#utility.yul\":10380:10496   */\n    tag_117:\n        /* \"#utility.yul\":10450:10471   */\n      tag_245\n        /* \"#utility.yul\":10465:10470   */\n      dup2\n        /* \"#utility.yul\":10450:10471   */\n      tag_219\n      jump\t// in\n    tag_245:\n        /* \"#utility.yul\":10443:10448   */\n      dup2\n        /* \"#utility.yul\":10440:10472   */\n      eq\n        /* \"#utility.yul\":10430:10490   */\n      tag_246\n      jumpi\n        /* \"#utility.yul\":10486:10487   */\n      0x00\n        /* \"#utility.yul\":10483:10484   */\n      dup1\n        /* \"#utility.yul\":10476:10488   */\n      revert\n        /* \"#utility.yul\":10430:10490   */\n    tag_246:\n        /* \"#utility.yul\":10380:10496   */\n      pop\n      jump\t// out\n        /* \"#utility.yul\":10502:10624   */\n    tag_121:\n        /* \"#utility.yul\":10575:10599   */\n      tag_248\n        /* \"#utility.yul\":10593:10598   */\n      dup2\n        /* \"#utility.yul\":10575:10599   */\n      tag_186\n      jump\t// in\n    tag_248:\n        /* \"#utility.yul\":10568:10573   */\n      dup2\n        /* \"#utility.yul\":10565:10600   */\n      eq\n        /* \"#utility.yul\":10555:10618   */\n      tag_249\n      jumpi\n        /* \"#utility.yul\":10614:10615   */\n      0x00\n        /* \"#utility.yul\":10611:10612   */\n      dup1\n        /* \"#utility.yul\":10604:10616   */\n      revert\n        /* \"#utility.yul\":10555:10618   */\n    tag_249:\n        /* \"#utility.yul\":10502:10624   */\n      pop\n      jump\t// out\n\n    auxdata: 0xa26469706673582212201199af61c686c19c4ac123ae82b5dcae20f1b968d6391c8d44045a97df08287664736f6c63430008070033\n}\n\nsub_1: assembly {\n        /* \"PycharmProjects/UsalMasterCoin/contracts/PuntosRecompensasCoin.sol\":124:280  contract PuntosRecompensasCoin is ERC20 {\r... */\n      mstore(0x40, 0x80)\n        /* \"PycharmProjects/UsalMasterCoin/contracts/PuntosRecompensasCoin.sol\":171:277  constructor() ERC20(\"PuntosRecomensasCoin\", \"PRC\") {\r... */\n      callvalue\n      dup1\n      iszero\n      tag_1\n      jumpi\n      0x00\n      dup1\n      revert\n    tag_1:\n      pop\n        /* \"@openzeppelin/contracts/token/ERC20/ERC20.sol\":1978:2091  constructor(string memory name_, string memory symbol_) {... */\n      mload(0x40)\n      dup1\n      0x40\n      add\n      0x40\n      mstore\n      dup1\n      0x14\n      dup2\n      mstore\n      0x20\n      add\n      0x50756e746f735265636f6d656e736173436f696e000000000000000000000000\n      dup2\n      mstore\n      pop\n      mload(0x40)\n      dup1\n      0x40\n      add\n      0x40\n      mstore\n      dup1\n      0x03\n      dup2\n      mstore\n      0x20\n      add\n      0x5052430000000000000000000000000000000000000000000000000000000000\n      dup2\n      mstore\n      pop\n        /* \"@openzeppelin/contracts/token/ERC20/ERC20.sol\":2052:2057  name_ */\n      dup2\n        /* \"@openzeppelin/contracts/token/ERC20/ERC20.sol\":2044:2049  _name */\n      0x03\n        /* \"@openzeppelin/contracts/token/ERC20/ERC20.sol\":2044:2057  _name = name_ */\n      swap1\n      dup1\n      mload\n      swap1\n      0x20\n      add\n      swap1\n      tag_5\n      swap3\n      swap2\n      swap1\n      tag_6\n      jump\t// in\n    tag_5:\n      pop\n        /* \"@openzeppelin/contracts/token/ERC20/ERC20.sol\":2077:2084  symbol_ */\n      dup1\n        /* \"@openzeppelin/contracts/token/ERC20/ERC20.sol\":2067:2074  _symbol */\n      0x04\n        /* \"@openzeppelin/contracts/token/ERC20/ERC20.sol\":2067:2084  _symbol = symbol_ */\n      swap1\n      dup1\n      mload\n      swap1\n      0x20\n      add\n      swap1\n      tag_7\n      swap3\n      swap2\n      swap1\n      tag_6\n      jump\t// in\n    tag_7:\n      pop\n        /* \"@openzeppelin/contracts/token/ERC20/ERC20.sol\":1978:2091  constructor(string memory name_, string memory symbol_) {... */\n      pop\n      pop\n        /* \"PycharmProjects/UsalMasterCoin/contracts/PuntosRecompensasCoin.sol\":233:269  _mint(msg.sender,2*(10**6)*(10**18)) */\n      tag_9\n        /* \"PycharmProjects/UsalMasterCoin/contracts/PuntosRecompensasCoin.sol\":239:249  msg.sender */\n      caller\n        /* \"PycharmProjects/UsalMasterCoin/contracts/PuntosRecompensasCoin.sol\":250:268  2*(10**6)*(10**18) */\n      0x01a784379d99db42000000\n        /* \"PycharmProjects/UsalMasterCoin/contracts/PuntosRecompensasCoin.sol\":233:238  _mint */\n      shl(0x20, tag_10)\n        /* \"PycharmProjects/UsalMasterCoin/contracts/PuntosRecompensasCoin.sol\":233:269  _mint(msg.sender,2*(10**6)*(10**18)) */\n      0x20\n      shr\n      jump\t// in\n    tag_9:\n        /* \"PycharmProjects/UsalMasterCoin/contracts/PuntosRecompensasCoin.sol\":124:280  contract PuntosRecompensasCoin is ERC20 {\r... */\n      jump(tag_11)\n        /* \"@openzeppelin/contracts/token/ERC20/ERC20.sol\":8402:8791  function _mint(address account, uint256 amount) internal virtual {... */\n    tag_10:\n        /* \"@openzeppelin/contracts/token/ERC20/ERC20.sol\":8504:8505  0 */\n      0x00\n        /* \"@openzeppelin/contracts/token/ERC20/ERC20.sol\":8485:8506  account != address(0) */\n      0xffffffffffffffffffffffffffffffffffffffff\n      and\n        /* \"@openzeppelin/contracts/token/ERC20/ERC20.sol\":8485:8492  account */\n      dup3\n        /* \"@openzeppelin/contracts/token/ERC20/ERC20.sol\":8485:8506  account != address(0) */\n      0xffffffffffffffffffffffffffffffffffffffff\n      and\n      eq\n      iszero\n        /* \"@openzeppelin/contracts/token/ERC20/ERC20.sol\":8477:8542  require(account != address(0), \"ERC20: mint to the zero address\") */\n      tag_13\n      jumpi\n      mload(0x40)\n      0x08c379a000000000000000000000000000000000000000000000000000000000\n      dup2\n      mstore\n      0x04\n      add\n      tag_14\n      swap1\n      tag_15\n      jump\t// in\n    tag_14:\n      mload(0x40)\n      dup1\n      swap2\n      sub\n      swap1\n      revert\n    tag_13:\n        /* \"@openzeppelin/contracts/token/ERC20/ERC20.sol\":8553:8602  _beforeTokenTransfer(address(0), account, amount) */\n      tag_16\n        /* \"@openzeppelin/contracts/token/ERC20/ERC20.sol\":8582:8583  0 */\n      0x00\n        /* \"@openzeppelin/contracts/token/ERC20/ERC20.sol\":8586:8593  account */\n      dup4\n        /* \"@openzeppelin/contracts/token/ERC20/ERC20.sol\":8595:8601  amount */\n      dup4\n        /* \"@openzeppelin/contracts/token/ERC20/ERC20.sol\":8553:8573  _beforeTokenTransfer */\n      shl(0x20, tag_17)\n        /* \"@openzeppelin/contracts/token/ERC20/ERC20.sol\":8553:8602  _beforeTokenTransfer(address(0), account, amount) */\n      0x20\n      shr\n      jump\t// in\n    tag_16:\n        /* \"@openzeppelin/contracts/token/ERC20/ERC20.sol\":8629:8635  amount */\n      dup1\n        /* \"@openzeppelin/contracts/token/ERC20/ERC20.sol\":8613:8625  _totalSupply */\n      0x02\n      0x00\n        /* \"@openzeppelin/contracts/token/ERC20/ERC20.sol\":8613:8635  _totalSupply += amount */\n      dup3\n      dup3\n      sload\n      tag_18\n      swap2\n      swap1\n      tag_19\n      jump\t// in\n    tag_18:\n      swap3\n      pop\n      pop\n      dup2\n      swap1\n      sstore\n      pop\n        /* \"@openzeppelin/contracts/token/ERC20/ERC20.sol\":8667:8673  amount */\n      dup1\n        /* \"@openzeppelin/contracts/token/ERC20/ERC20.sol\":8645:8654  _balances */\n      0x00\n        /* \"@openzeppelin/contracts/token/ERC20/ERC20.sol\":8645:8663  _balances[account] */\n      dup1\n        /* \"@openzeppelin/contracts/token/ERC20/ERC20.sol\":8655:8662  account */\n      dup5\n        /* \"@openzeppelin/contracts/token/ERC20/ERC20.sol\":8645:8663  _balances[account] */\n      0xffffffffffffffffffffffffffffffffffffffff\n      and\n      0xffffffffffffffffffffffffffffffffffffffff\n      and\n      dup2\n      mstore\n      0x20\n      add\n      swap1\n      dup2\n      mstore\n      0x20\n      add\n      0x00\n      keccak256\n      0x00\n        /* \"@openzeppelin/contracts/token/ERC20/ERC20.sol\":8645:8673  _balances[account] += amount */\n      dup3\n      dup3\n      sload\n      tag_20\n      swap2\n      swap1\n      tag_19\n      jump\t// in\n    tag_20:\n      swap3\n      pop\n      pop\n      dup2\n      swap1\n      sstore\n      pop\n        /* \"@openzeppelin/contracts/token/ERC20/ERC20.sol\":8709:8716  account */\n      dup2\n        /* \"@openzeppelin/contracts/token/ERC20/ERC20.sol\":8688:8725  Transfer(address(0), account, amount) */\n      0xffffffffffffffffffffffffffffffffffffffff\n      and\n        /* \"@openzeppelin/contracts/token/ERC20/ERC20.sol\":8705:8706  0 */\n      0x00\n        /* \"@openzeppelin/contracts/token/ERC20/ERC20.sol\":8688:8725  Transfer(address(0), account, amount) */\n      0xffffffffffffffffffffffffffffffffffffffff\n      and\n      0xddf252ad1be2c89b69c2b068fc378daa952ba7f163c4a11628f55a4df523b3ef\n        /* \"@openzeppelin/contracts/token/ERC20/ERC20.sol\":8718:8724  amount */\n      dup4\n        /* \"@openzeppelin/contracts/token/ERC20/ERC20.sol\":8688:8725  Transfer(address(0), account, amount) */\n      mload(0x40)\n      tag_21\n      swap2\n      swap1\n      tag_22\n      jump\t// in\n    tag_21:\n      mload(0x40)\n      dup1\n      swap2\n      sub\n      swap1\n      log3\n        /* \"@openzeppelin/contracts/token/ERC20/ERC20.sol\":8736:8784  _afterTokenTransfer(address(0), account, amount) */\n      tag_23\n        /* \"@openzeppelin/contracts/token/ERC20/ERC20.sol\":8764:8765  0 */\n      0x00\n        /* \"@openzeppelin/contracts/token/ERC20/ERC20.sol\":8768:8775  account */\n      dup4\n        /* \"@openzeppelin/contracts/token/ERC20/ERC20.sol\":8777:8783  amount */\n      dup4\n        /* \"@openzeppelin/contracts/token/ERC20/ERC20.sol\":8736:8755  _afterTokenTransfer */\n      shl(0x20, tag_24)\n        /* \"@openzeppelin/contracts/token/ERC20/ERC20.sol\":8736:8784  _afterTokenTransfer(address(0), account, amount) */\n      0x20\n      shr\n      jump\t// in\n    tag_23:\n        /* \"@openzeppelin/contracts/token/ERC20/ERC20.sol\":8402:8791  function _mint(address account, uint256 amount) internal virtual {... */\n      pop\n      pop\n      jump\t// out\n        /* \"@openzeppelin/contracts/token/ERC20/ERC20.sol\":11786:11907  function _beforeTokenTransfer(... */\n    tag_17:\n      pop\n      pop\n      pop\n      jump\t// out\n        /* \"@openzeppelin/contracts/token/ERC20/ERC20.sol\":12495:12615  function _afterTokenTransfer(... */\n    tag_24:\n      pop\n      pop\n      pop\n      jump\t// out\n        /* \"PycharmProjects/UsalMasterCoin/contracts/PuntosRecompensasCoin.sol\":124:280  contract PuntosRecompensasCoin is ERC20 {\r... */\n    tag_6:\n      dup3\n      dup1\n      sload\n      tag_27\n      swap1\n      tag_28\n      jump\t// in\n    tag_27:\n      swap1\n      0x00\n      mstore\n      keccak256(0x00, 0x20)\n      swap1\n      0x1f\n      add\n      0x20\n      swap1\n      div\n      dup2\n      add\n      swap3\n      dup3\n      tag_30\n      jumpi\n      0x00\n      dup6\n      sstore\n      jump(tag_29)\n    tag_30:\n      dup3\n      0x1f\n      lt\n      tag_31\n      jumpi\n      dup1\n      mload\n      not(0xff)\n      and\n      dup4\n      dup1\n      add\n      or\n      dup6\n      sstore\n      jump(tag_29)\n    tag_31:\n      dup3\n      dup1\n      add\n      0x01\n      add\n      dup6\n      sstore\n      dup3\n      iszero\n      tag_29\n      jumpi\n      swap2\n      dup3\n      add\n    tag_32:\n      dup3\n      dup2\n      gt\n      iszero\n      tag_33\n      jumpi\n      dup3\n      mload\n      dup3\n      sstore\n      swap2\n      0x20\n      add\n      swap2\n      swap1\n      0x01\n      add\n      swap1\n      jump(tag_32)\n    tag_33:\n    tag_29:\n      pop\n      swap1\n      pop\n      tag_34\n      swap2\n      swap1\n      tag_35\n      jump\t// in\n    tag_34:\n      pop\n      swap1\n      jump\t// out\n    tag_35:\n    tag_36:\n      dup1\n      dup3\n      gt\n      iszero\n      tag_37\n      jumpi\n      0x00\n      dup2\n      0x00\n      swap1\n      sstore\n      pop\n      0x01\n      add\n      jump(tag_36)\n    tag_37:\n      pop\n      swap1\n      jump\t// out\n        /* \"#utility.yul\":7:373   */\n    tag_39:\n        /* \"#utility.yul\":149:152   */\n      0x00\n        /* \"#utility.yul\":170:237   */\n      tag_41\n        /* \"#utility.yul\":234:236   */\n      0x1f\n        /* \"#utility.yul\":229:232   */\n      dup4\n        /* \"#utility.yul\":170:237   */\n      tag_42\n      jump\t// in\n    tag_41:\n        /* \"#utility.yul\":163:237   */\n      swap2\n      pop\n        /* \"#utility.yul\":246:339   */\n      tag_43\n        /* \"#utility.yul\":335:338   */\n      dup3\n        /* \"#utility.yul\":246:339   */\n      tag_44\n      jump\t// in\n    tag_43:\n        /* \"#utility.yul\":364:366   */\n      0x20\n        /* \"#utility.yul\":359:362   */\n      dup3\n        /* \"#utility.yul\":355:367   */\n      add\n        /* \"#utility.yul\":348:367   */\n      swap1\n      pop\n        /* \"#utility.yul\":7:373   */\n      swap2\n      swap1\n      pop\n      jump\t// out\n        /* \"#utility.yul\":379:497   */\n    tag_45:\n        /* \"#utility.yul\":466:490   */\n      tag_47\n        /* \"#utility.yul\":484:489   */\n      dup2\n        /* \"#utility.yul\":466:490   */\n      tag_48\n      jump\t// in\n    tag_47:\n        /* \"#utility.yul\":461:464   */\n      dup3\n        /* \"#utility.yul\":454:491   */\n      mstore\n        /* \"#utility.yul\":379:497   */\n      pop\n      pop\n      jump\t// out\n        /* \"#utility.yul\":503:922   */\n    tag_15:\n        /* \"#utility.yul\":669:673   */\n      0x00\n        /* \"#utility.yul\":707:709   */\n      0x20\n        /* \"#utility.yul\":696:705   */\n      dup3\n        /* \"#utility.yul\":692:710   */\n      add\n        /* \"#utility.yul\":684:710   */\n      swap1\n      pop\n        /* \"#utility.yul\":756:765   */\n      dup2\n        /* \"#utility.yul\":750:754   */\n      dup2\n        /* \"#utility.yul\":746:766   */\n      sub\n        /* \"#utility.yul\":742:743   */\n      0x00\n        /* \"#utility.yul\":731:740   */\n      dup4\n        /* \"#utility.yul\":727:744   */\n      add\n        /* \"#utility.yul\":720:767   */\n      mstore\n        /* \"#utility.yul\":784:915   */\n      tag_50\n        /* \"#utility.yul\":910:914   */\n      dup2\n        /* \"#utility.yul\":784:915   */\n      tag_39\n      jump\t// in\n    tag_50:\n        /* \"#utility.yul\":776:915   */\n      swap1\n      pop\n        /* \"#utility.yul\":503:922   */\n      swap2\n      swap1\n      pop\n      jump\t// out\n        /* \"#utility.yul\":928:1150   */\n    tag_22:\n        /* \"#utility.yul\":1021:1025   */\n      0x00\n        /* \"#utility.yul\":1059:1061   */\n      0x20\n        /* \"#utility.yul\":1048:1057   */\n      dup3\n        /* \"#utility.yul\":1044:1062   */\n      add\n        /* \"#utility.yul\":1036:1062   */\n      swap1\n      pop\n        /* \"#utility.yul\":1072:1143   */\n      tag_52\n        /* \"#utility.yul\":1140:1141   */\n      0x00\n        /* \"#utility.yul\":1129:1138   */\n      dup4\n        /* \"#utility.yul\":1125:1142   */\n      add\n        /* \"#utility.yul\":1116:1122   */\n      dup5\n        /* \"#utility.yul\":1072:1143   */\n      tag_45\n      jump\t// in\n    tag_52:\n        /* \"#utility.yul\":928:1150   */\n      swap3\n      swap2\n      pop\n      pop\n      jump\t// out\n        /* \"#utility.yul\":1156:1325   */\n    tag_42:\n        /* \"#utility.yul\":1240:1251   */\n      0x00\n        /* \"#utility.yul\":1274:1280   */\n      dup3\n        /* \"#utility.yul\":1269:1272   */\n      dup3\n        /* \"#utility.yul\":1262:1281   */\n      mstore\n        /* \"#utility.yul\":1314:1318   */\n      0x20\n        /* \"#utility.yul\":1309:1312   */\n      dup3\n        /* \"#utility.yul\":1305:1319   */\n      add\n        /* \"#utility.yul\":1290:1319   */\n      swap1\n      pop\n        /* \"#utility.yul\":1156:1325   */\n      swap3\n      swap2\n      pop\n      pop\n      jump\t// out\n        /* \"#utility.yul\":1331:1636   */\n    tag_19:\n        /* \"#utility.yul\":1371:1374   */\n      0x00\n        /* \"#utility.yul\":1390:1410   */\n      tag_55\n        /* \"#utility.yul\":1408:1409   */\n      dup3\n        /* \"#utility.yul\":1390:1410   */\n      tag_48\n      jump\t// in\n    tag_55:\n        /* \"#utility.yul\":1385:1410   */\n      swap2\n      pop\n        /* \"#utility.yul\":1424:1444   */\n      tag_56\n        /* \"#utility.yul\":1442:1443   */\n      dup4\n        /* \"#utility.yul\":1424:1444   */\n      tag_48\n      jump\t// in\n    tag_56:\n        /* \"#utility.yul\":1419:1444   */\n      swap3\n      pop\n        /* \"#utility.yul\":1578:1579   */\n      dup3\n        /* \"#utility.yul\":1510:1576   */\n      0xffffffffffffffffffffffffffffffffffffffffffffffffffffffffffffffff\n        /* \"#utility.yul\":1506:1580   */\n      sub\n        /* \"#utility.yul\":1503:1504   */\n      dup3\n        /* \"#utility.yul\":1500:1581   */\n      gt\n        /* \"#utility.yul\":1497:1604   */\n      iszero\n      tag_57\n      jumpi\n        /* \"#utility.yul\":1584:1602   */\n      tag_58\n      tag_59\n      jump\t// in\n    tag_58:\n        /* \"#utility.yul\":1497:1604   */\n    tag_57:\n        /* \"#utility.yul\":1628:1629   */\n      dup3\n        /* \"#utility.yul\":1625:1626   */\n      dup3\n        /* \"#utility.yul\":1621:1630   */\n      add\n        /* \"#utility.yul\":1614:1630   */\n      swap1\n      pop\n        /* \"#utility.yul\":1331:1636   */\n      swap3\n      swap2\n      pop\n      pop\n      jump\t// out\n        /* \"#utility.yul\":1642:1719   */\n    tag_48:\n        /* \"#utility.yul\":1679:1686   */\n      0x00\n        /* \"#utility.yul\":1708:1713   */\n      dup2\n        /* \"#utility.yul\":1697:1713   */\n      swap1\n      pop\n        /* \"#utility.yul\":1642:1719   */\n      swap2\n      swap1\n      pop\n      jump\t// out\n        /* \"#utility.yul\":1725:2045   */\n    tag_28:\n        /* \"#utility.yul\":1769:1775   */\n      0x00\n        /* \"#utility.yul\":1806:1807   */\n      0x02\n        /* \"#utility.yul\":1800:1804   */\n      dup3\n        /* \"#utility.yul\":1796:1808   */\n      div\n        /* \"#utility.yul\":1786:1808   */\n      swap1\n      pop\n        /* \"#utility.yul\":1853:1854   */\n      0x01\n        /* \"#utility.yul\":1847:1851   */\n      dup3\n        /* \"#utility.yul\":1843:1855   */\n      and\n        /* \"#utility.yul\":1874:1892   */\n      dup1\n        /* \"#utility.yul\":1864:1945   */\n      tag_62\n      jumpi\n        /* \"#utility.yul\":1930:1934   */\n      0x7f\n        /* \"#utility.yul\":1922:1928   */\n      dup3\n        /* \"#utility.yul\":1918:1935   */\n      and\n        /* \"#utility.yul\":1908:1935   */\n      swap2\n      pop\n        /* \"#utility.yul\":1864:1945   */\n    tag_62:\n        /* \"#utility.yul\":1992:1994   */\n      0x20\n        /* \"#utility.yul\":1984:1990   */\n      dup3\n        /* \"#utility.yul\":1981:1995   */\n      lt\n        /* \"#utility.yul\":1961:1979   */\n      dup2\n        /* \"#utility.yul\":1958:1996   */\n      eq\n        /* \"#utility.yul\":1955:2039   */\n      iszero\n      tag_63\n      jumpi\n        /* \"#utility.yul\":2011:2029   */\n      tag_64\n      tag_65\n      jump\t// in\n    tag_64:\n        /* \"#utility.yul\":1955:2039   */\n    tag_63:\n        /* \"#utility.yul\":1776:2045   */\n      pop\n        /* \"#utility.yul\":1725:2045   */\n      swap2\n      swap1\n      pop\n      jump\t// out\n        /* \"#utility.yul\":2051:2231   */\n    tag_59:\n        /* \"#utility.yul\":2099:2176   */\n      0x4e487b7100000000000000000000000000000000000000000000000000000000\n        /* \"#utility.yul\":2096:2097   */\n      0x00\n        /* \"#utility.yul\":2089:2177   */\n      mstore\n        /* \"#utility.yul\":2196:2200   */\n      0x11\n        /* \"#utility.yul\":2193:2194   */\n      0x04\n        /* \"#utility.yul\":2186:2201   */\n      mstore\n        /* \"#utility.yul\":2220:2224   */\n      0x24\n        /* \"#utility.yul\":2217:2218   */\n      0x00\n        /* \"#utility.yul\":2210:2225   */\n      revert\n        /* \"#utility.yul\":2237:2417   */\n    tag_65:\n        /* \"#utility.yul\":2285:2362   */\n      0x4e487b7100000000000000000000000000000000000000000000000000000000\n        /* \"#utility.yul\":2282:2283   */\n      0x00\n        /* \"#utility.yul\":2275:2363   */\n      mstore\n        /* \"#utility.yul\":2382:2386   */\n      0x22\n        /* \"#utility.yul\":2379:2380   */\n      0x04\n        /* \"#utility.yul\":2372:2387   */\n      mstore\n        /* \"#utility.yul\":2406:2410   */\n      0x24\n        /* \"#utility.yul\":2403:2404   */\n      0x00\n        /* \"#utility.yul\":2396:2411   */\n      revert\n        /* \"#utility.yul\":2423:2604   */\n    tag_44:\n        /* \"#utility.yul\":2563:2596   */\n      0x45524332303a206d696e7420746f20746865207a65726f206164647265737300\n        /* \"#utility.yul\":2559:2560   */\n      0x00\n        /* \"#utility.yul\":2551:2557   */\n      dup3\n        /* \"#utility.yul\":2547:2561   */\n      add\n        /* \"#utility.yul\":2540:2597   */\n      mstore\n        /* \"#utility.yul\":2423:2604   */\n      pop\n      jump\t// out\n        /* \"PycharmProjects/UsalMasterCoin/contracts/PuntosRecompensasCoin.sol\":124:280  contract PuntosRecompensasCoin is ERC20 {\r... */\n    tag_11:\n      dataSize(sub_0)\n      dup1\n      dataOffset(sub_0)\n      0x00\n      codecopy\n      0x00\n      return\n    stop\n\n    sub_0: assembly {\n            /* \"PycharmProjects/UsalMasterCoin/contracts/PuntosRecompensasCoin.sol\":124:280  contract PuntosRecompensasCoin is ERC20 {\r... */\n          mstore(0x40, 0x80)\n          callvalue\n          dup1\n          iszero\n          tag_1\n          jumpi\n          0x00\n          dup1\n          revert\n        tag_1:\n          pop\n          jumpi(tag_2, lt(calldatasize, 0x04))\n          shr(0xe0, calldataload(0x00))\n          dup1\n          0x39509351\n          gt\n          tag_14\n          jumpi\n          dup1\n          0x39509351\n          eq\n          tag_8\n          jumpi\n          dup1\n          0x70a08231\n          eq\n          tag_9\n          jumpi\n          dup1\n          0x95d89b41\n          eq\n          tag_10\n          jumpi\n          dup1\n          0xa457c2d7\n          eq\n          tag_11\n          jumpi\n          dup1\n          0xa9059cbb\n          eq\n          tag_12\n          jumpi\n          dup1\n          0xdd62ed3e\n          eq\n          tag_13\n          jumpi\n          jump(tag_2)\n        tag_14:\n          dup1\n          0x06fdde03\n          eq\n          tag_3\n          jumpi\n          dup1\n          0x095ea7b3\n          eq\n          tag_4\n          jumpi\n          dup1\n          0x18160ddd\n          eq\n          tag_5\n          jumpi\n          dup1\n          0x23b872dd\n          eq\n          tag_6\n          jumpi\n          dup1\n          0x313ce567\n          eq\n          tag_7\n          jumpi\n        tag_2:\n          0x00\n          dup1\n          revert\n            /* \"@openzeppelin/contracts/token/ERC20/ERC20.sol\":2156:2254  function name() public view virtual override returns (string memory) {... */\n        tag_3:\n          tag_15\n          tag_16\n          jump\t// in\n        tag_15:\n          mload(0x40)\n          tag_17\n          swap2\n          swap1\n          tag_18\n          jump\t// in\n        tag_17:\n          mload(0x40)\n          dup1\n          swap2\n          sub\n          swap1\n          return\n            /* \"@openzeppelin/contracts/token/ERC20/ERC20.sol\":4433:4630  function approve(address spender, uint256 amount) public virtual override returns (bool) {... */\n        tag_4:\n          tag_19\n          0x04\n          dup1\n          calldatasize\n          sub\n          dup2\n          add\n          swap1\n          tag_20\n          swap2\n          swap1\n          tag_21\n          jump\t// in\n        tag_20:\n          tag_22\n          jump\t// in\n        tag_19:\n          mload(0x40)\n          tag_23\n          swap2\n          swap1\n          tag_24\n          jump\t// in\n        tag_23:\n          mload(0x40)\n          dup1\n          swap2\n          sub\n          swap1\n          return\n            /* \"@openzeppelin/contracts/token/ERC20/ERC20.sol\":3244:3350  function totalSupply() public view virtual override returns (uint256) {... */\n        tag_5:\n          tag_25\n          tag_26\n          jump\t// in\n        tag_25:\n          mload(0x40)\n          tag_27\n          swap2\n          swap1\n          tag_28\n          jump\t// in\n        tag_27:\n          mload(0x40)\n          dup1\n          swap2\n          sub\n          swap1\n          return\n            /* \"@openzeppelin/contracts/token/ERC20/ERC20.sol\":5192:5478  function transferFrom(... */\n        tag_6:\n          tag_29\n          0x04\n          dup1\n          calldatasize\n          sub\n          dup2\n          add\n          swap1\n          tag_30\n          swap2\n          swap1\n          tag_31\n          jump\t// in\n        tag_30:\n          tag_32\n          jump\t// in\n        tag_29:\n          mload(0x40)\n          tag_33\n          swap2\n          swap1\n          tag_24\n          jump\t// in\n        tag_33:\n          mload(0x40)\n          dup1\n          swap2\n          sub\n          swap1\n          return\n            /* \"@openzeppelin/contracts/token/ERC20/ERC20.sol\":3093:3184  function decimals() public view virtual override returns (uint8) {... */\n        tag_7:\n          tag_34\n          tag_35\n          jump\t// in\n        tag_34:\n          mload(0x40)\n          tag_36\n          swap2\n          swap1\n          tag_37\n          jump\t// in\n        tag_36:\n          mload(0x40)\n          dup1\n          swap2\n          sub\n          swap1\n          return\n            /* \"@openzeppelin/contracts/token/ERC20/ERC20.sol\":5873:6107  function increaseAllowance(address spender, uint256 addedValue) public virtual returns (bool) {... */\n        tag_8:\n          tag_38\n          0x04\n          dup1\n          calldatasize\n          sub\n          dup2\n          add\n          swap1\n          tag_39\n          swap2\n          swap1\n          tag_21\n          jump\t// in\n        tag_39:\n          tag_40\n          jump\t// in\n        tag_38:\n          mload(0x40)\n          tag_41\n          swap2\n          swap1\n          tag_24\n          jump\t// in\n        tag_41:\n          mload(0x40)\n          dup1\n          swap2\n          sub\n          swap1\n          return\n            /* \"@openzeppelin/contracts/token/ERC20/ERC20.sol\":3408:3533  function balanceOf(address account) public view virtual override returns (uint256) {... */\n        tag_9:\n          tag_42\n          0x04\n          dup1\n          calldatasize\n          sub\n          dup2\n          add\n          swap1\n          tag_43\n          swap2\n          swap1\n          tag_44\n          jump\t// in\n        tag_43:\n          tag_45\n          jump\t// in\n        tag_42:\n          mload(0x40)\n          tag_46\n          swap2\n          swap1\n          tag_28\n          jump\t// in\n        tag_46:\n          mload(0x40)\n          dup1\n          swap2\n          sub\n          swap1\n          return\n            /* \"@openzeppelin/contracts/token/ERC20/ERC20.sol\":2367:2469  function symbol() public view virtual override returns (string memory) {... */\n        tag_10:\n          tag_47\n          tag_48\n          jump\t// in\n        tag_47:\n          mload(0x40)\n          tag_49\n          swap2\n          swap1\n          tag_18\n          jump\t// in\n        tag_49:\n          mload(0x40)\n          dup1\n          swap2\n          sub\n          swap1\n          return\n            /* \"@openzeppelin/contracts/token/ERC20/ERC20.sol\":6594:7021  function decreaseAllowance(address spender, uint256 subtractedValue) public virtual returns (bool) {... */\n        tag_11:\n          tag_50\n          0x04\n          dup1\n          calldatasize\n          sub\n          dup2\n          add\n          swap1\n          tag_51\n          swap2\n          swap1\n          tag_21\n          jump\t// in\n        tag_51:\n          tag_52\n          jump\t// in\n        tag_50:\n          mload(0x40)\n          tag_53\n          swap2\n          swap1\n          tag_24\n          jump\t// in\n        tag_53:\n          mload(0x40)\n          dup1\n          swap2\n          sub\n          swap1\n          return\n            /* \"@openzeppelin/contracts/token/ERC20/ERC20.sol\":3729:3918  function transfer(address to, uint256 amount) public virtual override returns (bool) {... */\n        tag_12:\n          tag_54\n          0x04\n          dup1\n          calldatasize\n          sub\n          dup2\n          add\n          swap1\n          tag_55\n          swap2\n          swap1\n          tag_21\n          jump\t// in\n        tag_55:\n          tag_56\n          jump\t// in\n        tag_54:\n          mload(0x40)\n          tag_57\n          swap2\n          swap1\n          tag_24\n          jump\t// in\n        tag_57:\n          mload(0x40)\n          dup1\n          swap2\n          sub\n          swap1\n          return\n            /* \"@openzeppelin/contracts/token/ERC20/ERC20.sol\":3976:4125  function allowance(address owner, address spender) public view virtual override returns (uint256) {... */\n        tag_13:\n          tag_58\n          0x04\n          dup1\n          calldatasize\n          sub\n          dup2\n          add\n          swap1\n          tag_59\n          swap2\n          swap1\n          tag_60\n          jump\t// in\n        tag_59:\n          tag_61\n          jump\t// in\n        tag_58:\n          mload(0x40)\n          tag_62\n          swap2\n          swap1\n          tag_28\n          jump\t// in\n        tag_62:\n          mload(0x40)\n          dup1\n          swap2\n          sub\n          swap1\n          return\n            /* \"@openzeppelin/contracts/token/ERC20/ERC20.sol\":2156:2254  function name() public view virtual override returns (string memory) {... */\n        tag_16:\n            /* \"@openzeppelin/contracts/token/ERC20/ERC20.sol\":2210:2223  string memory */\n          0x60\n            /* \"@openzeppelin/contracts/token/ERC20/ERC20.sol\":2242:2247  _name */\n          0x03\n            /* \"@openzeppelin/contracts/token/ERC20/ERC20.sol\":2235:2247  return _name */\n          dup1\n          sload\n          tag_64\n          swap1\n          tag_65\n          jump\t// in\n        tag_64:\n          dup1\n          0x1f\n          add\n          0x20\n          dup1\n          swap2\n          div\n          mul\n          0x20\n          add\n          mload(0x40)\n          swap1\n          dup2\n          add\n          0x40\n          mstore\n          dup1\n          swap3\n          swap2\n          swap1\n          dup2\n          dup2\n          mstore\n          0x20\n          add\n          dup3\n          dup1\n          sload\n          tag_66\n          swap1\n          tag_65\n          jump\t// in\n        tag_66:\n          dup1\n          iszero\n          tag_67\n          jumpi\n          dup1\n          0x1f\n          lt\n          tag_68\n          jumpi\n          0x0100\n          dup1\n          dup4\n          sload\n          div\n          mul\n          dup4\n          mstore\n          swap2\n          0x20\n          add\n          swap2\n          jump(tag_67)\n        tag_68:\n          dup3\n          add\n          swap2\n          swap1\n          0x00\n          mstore\n          keccak256(0x00, 0x20)\n          swap1\n        tag_69:\n          dup2\n          sload\n          dup2\n          mstore\n          swap1\n          0x01\n          add\n          swap1\n          0x20\n          add\n          dup1\n          dup4\n          gt\n          tag_69\n          jumpi\n          dup3\n          swap1\n          sub\n          0x1f\n          and\n          dup3\n          add\n          swap2\n        tag_67:\n          pop\n          pop\n          pop\n          pop\n          pop\n          swap1\n          pop\n            /* \"@openzeppelin/contracts/token/ERC20/ERC20.sol\":2156:2254  function name() public view virtual override returns (string memory) {... */\n          swap1\n          jump\t// out\n            /* \"@openzeppelin/contracts/token/ERC20/ERC20.sol\":4433:4630  function approve(address spender, uint256 amount) public virtual override returns (bool) {... */\n        tag_22:\n            /* \"@openzeppelin/contracts/token/ERC20/ERC20.sol\":4516:4520  bool */\n          0x00\n            /* \"@openzeppelin/contracts/token/ERC20/ERC20.sol\":4532:4545  address owner */\n          dup1\n            /* \"@openzeppelin/contracts/token/ERC20/ERC20.sol\":4548:4560  _msgSender() */\n          tag_71\n            /* \"@openzeppelin/contracts/token/ERC20/ERC20.sol\":4548:4558  _msgSender */\n          tag_72\n            /* \"@openzeppelin/contracts/token/ERC20/ERC20.sol\":4548:4560  _msgSender() */\n          jump\t// in\n        tag_71:\n            /* \"@openzeppelin/contracts/token/ERC20/ERC20.sol\":4532:4560  address owner = _msgSender() */\n          swap1\n          pop\n            /* \"@openzeppelin/contracts/token/ERC20/ERC20.sol\":4570:4602  _approve(owner, spender, amount) */\n          tag_73\n            /* \"@openzeppelin/contracts/token/ERC20/ERC20.sol\":4579:4584  owner */\n          dup2\n            /* \"@openzeppelin/contracts/token/ERC20/ERC20.sol\":4586:4593  spender */\n          dup6\n            /* \"@openzeppelin/contracts/token/ERC20/ERC20.sol\":4595:4601  amount */\n          dup6\n            /* \"@openzeppelin/contracts/token/ERC20/ERC20.sol\":4570:4578  _approve */\n          tag_74\n            /* \"@openzeppelin/contracts/token/ERC20/ERC20.sol\":4570:4602  _approve(owner, spender, amount) */\n          jump\t// in\n        tag_73:\n            /* \"@openzeppelin/contracts/token/ERC20/ERC20.sol\":4619:4623  true */\n          0x01\n            /* \"@openzeppelin/contracts/token/ERC20/ERC20.sol\":4612:4623  return true */\n          swap2\n          pop\n          pop\n            /* \"@openzeppelin/contracts/token/ERC20/ERC20.sol\":4433:4630  function approve(address spender, uint256 amount) public virtual override returns (bool) {... */\n          swap3\n          swap2\n          pop\n          pop\n          jump\t// out\n            /* \"@openzeppelin/contracts/token/ERC20/ERC20.sol\":3244:3350  function totalSupply() public view virtual override returns (uint256) {... */\n        tag_26:\n            /* \"@openzeppelin/contracts/token/ERC20/ERC20.sol\":3305:3312  uint256 */\n          0x00\n            /* \"@openzeppelin/contracts/token/ERC20/ERC20.sol\":3331:3343  _totalSupply */\n          sload(0x02)\n            /* \"@openzeppelin/contracts/token/ERC20/ERC20.sol\":3324:3343  return _totalSupply */\n          swap1\n          pop\n            /* \"@openzeppelin/contracts/token/ERC20/ERC20.sol\":3244:3350  function totalSupply() public view virtual override returns (uint256) {... */\n          swap1\n          jump\t// out\n            /* \"@openzeppelin/contracts/token/ERC20/ERC20.sol\":5192:5478  function transferFrom(... */\n        tag_32:\n            /* \"@openzeppelin/contracts/token/ERC20/ERC20.sol\":5319:5323  bool */\n          0x00\n            /* \"@openzeppelin/contracts/token/ERC20/ERC20.sol\":5335:5350  address spender */\n          dup1\n            /* \"@openzeppelin/contracts/token/ERC20/ERC20.sol\":5353:5365  _msgSender() */\n          tag_77\n            /* \"@openzeppelin/contracts/token/ERC20/ERC20.sol\":5353:5363  _msgSender */\n          tag_72\n            /* \"@openzeppelin/contracts/token/ERC20/ERC20.sol\":5353:5365  _msgSender() */\n          jump\t// in\n        tag_77:\n            /* \"@openzeppelin/contracts/token/ERC20/ERC20.sol\":5335:5365  address spender = _msgSender() */\n          swap1\n          pop\n            /* \"@openzeppelin/contracts/token/ERC20/ERC20.sol\":5375:5413  _spendAllowance(from, spender, amount) */\n          tag_78\n            /* \"@openzeppelin/contracts/token/ERC20/ERC20.sol\":5391:5395  from */\n          dup6\n            /* \"@openzeppelin/contracts/token/ERC20/ERC20.sol\":5397:5404  spender */\n          dup3\n            /* \"@openzeppelin/contracts/token/ERC20/ERC20.sol\":5406:5412  amount */\n          dup6\n            /* \"@openzeppelin/contracts/token/ERC20/ERC20.sol\":5375:5390  _spendAllowance */\n          tag_79\n            /* \"@openzeppelin/contracts/token/ERC20/ERC20.sol\":5375:5413  _spendAllowance(from, spender, amount) */\n          jump\t// in\n        tag_78:\n            /* \"@openzeppelin/contracts/token/ERC20/ERC20.sol\":5423:5450  _transfer(from, to, amount) */\n          tag_80\n            /* \"@openzeppelin/contracts/token/ERC20/ERC20.sol\":5433:5437  from */\n          dup6\n            /* \"@openzeppelin/contracts/token/ERC20/ERC20.sol\":5439:5441  to */\n          dup6\n            /* \"@openzeppelin/contracts/token/ERC20/ERC20.sol\":5443:5449  amount */\n          dup6\n            /* \"@openzeppelin/contracts/token/ERC20/ERC20.sol\":5423:5432  _transfer */\n          tag_81\n            /* \"@openzeppelin/contracts/token/ERC20/ERC20.sol\":5423:5450  _transfer(from, to, amount) */\n          jump\t// in\n        tag_80:\n            /* \"@openzeppelin/contracts/token/ERC20/ERC20.sol\":5467:5471  true */\n          0x01\n            /* \"@openzeppelin/contracts/token/ERC20/ERC20.sol\":5460:5471  return true */\n          swap2\n          pop\n          pop\n            /* \"@openzeppelin/contracts/token/ERC20/ERC20.sol\":5192:5478  function transferFrom(... */\n          swap4\n          swap3\n          pop\n          pop\n          pop\n          jump\t// out\n            /* \"@openzeppelin/contracts/token/ERC20/ERC20.sol\":3093:3184  function decimals() public view virtual override returns (uint8) {... */\n        tag_35:\n            /* \"@openzeppelin/contracts/token/ERC20/ERC20.sol\":3151:3156  uint8 */\n          0x00\n            /* \"@openzeppelin/contracts/token/ERC20/ERC20.sol\":3175:3177  18 */\n          0x12\n            /* \"@openzeppelin/contracts/token/ERC20/ERC20.sol\":3168:3177  return 18 */\n          swap1\n          pop\n            /* \"@openzeppelin/contracts/token/ERC20/ERC20.sol\":3093:3184  function decimals() public view virtual override returns (uint8) {... */\n          swap1\n          jump\t// out\n            /* \"@openzeppelin/contracts/token/ERC20/ERC20.sol\":5873:6107  function increaseAllowance(address spender, uint256 addedValue) public virtual returns (bool) {... */\n        tag_40:\n            /* \"@openzeppelin/contracts/token/ERC20/ERC20.sol\":5961:5965  bool */\n          0x00\n            /* \"@openzeppelin/contracts/token/ERC20/ERC20.sol\":5977:5990  address owner */\n          dup1\n            /* \"@openzeppelin/contracts/token/ERC20/ERC20.sol\":5993:6005  _msgSender() */\n          tag_84\n            /* \"@openzeppelin/contracts/token/ERC20/ERC20.sol\":5993:6003  _msgSender */\n          tag_72\n            /* \"@openzeppelin/contracts/token/ERC20/ERC20.sol\":5993:6005  _msgSender() */\n          jump\t// in\n        tag_84:\n            /* \"@openzeppelin/contracts/token/ERC20/ERC20.sol\":5977:6005  address owner = _msgSender() */\n          swap1\n          pop\n            /* \"@openzeppelin/contracts/token/ERC20/ERC20.sol\":6015:6079  _approve(owner, spender, allowance(owner, spender) + addedValue) */\n          tag_85\n            /* \"@openzeppelin/contracts/token/ERC20/ERC20.sol\":6024:6029  owner */\n          dup2\n            /* \"@openzeppelin/contracts/token/ERC20/ERC20.sol\":6031:6038  spender */\n          dup6\n            /* \"@openzeppelin/contracts/token/ERC20/ERC20.sol\":6068:6078  addedValue */\n          dup6\n            /* \"@openzeppelin/contracts/token/ERC20/ERC20.sol\":6040:6065  allowance(owner, spender) */\n          tag_86\n            /* \"@openzeppelin/contracts/token/ERC20/ERC20.sol\":6050:6055  owner */\n          dup6\n            /* \"@openzeppelin/contracts/token/ERC20/ERC20.sol\":6057:6064  spender */\n          dup10\n            /* \"@openzeppelin/contracts/token/ERC20/ERC20.sol\":6040:6049  allowance */\n          tag_61\n            /* \"@openzeppelin/contracts/token/ERC20/ERC20.sol\":6040:6065  allowance(owner, spender) */\n          jump\t// in\n        tag_86:\n            /* \"@openzeppelin/contracts/token/ERC20/ERC20.sol\":6040:6078  allowance(owner, spender) + addedValue */\n          tag_87\n          swap2\n          swap1\n          tag_88\n          jump\t// in\n        tag_87:\n            /* \"@openzeppelin/contracts/token/ERC20/ERC20.sol\":6015:6023  _approve */\n          tag_74\n            /* \"@openzeppelin/contracts/token/ERC20/ERC20.sol\":6015:6079  _approve(owner, spender, allowance(owner, spender) + addedValue) */\n          jump\t// in\n        tag_85:\n            /* \"@openzeppelin/contracts/token/ERC20/ERC20.sol\":6096:6100  true */\n          0x01\n            /* \"@openzeppelin/contracts/token/ERC20/ERC20.sol\":6089:6100  return true */\n          swap2\n          pop\n          pop\n            /* \"@openzeppelin/contracts/token/ERC20/ERC20.sol\":5873:6107  function increaseAllowance(address spender, uint256 addedValue) public virtual returns (bool) {... */\n          swap3\n          swap2\n          pop\n          pop\n          jump\t// out\n            /* \"@openzeppelin/contracts/token/ERC20/ERC20.sol\":3408:3533  function balanceOf(address account) public view virtual override returns (uint256) {... */\n        tag_45:\n            /* \"@openzeppelin/contracts/token/ERC20/ERC20.sol\":3482:3489  uint256 */\n          0x00\n            /* \"@openzeppelin/contracts/token/ERC20/ERC20.sol\":3508:3517  _balances */\n          dup1\n            /* \"@openzeppelin/contracts/token/ERC20/ERC20.sol\":3508:3526  _balances[account] */\n          0x00\n            /* \"@openzeppelin/contracts/token/ERC20/ERC20.sol\":3518:3525  account */\n          dup4\n            /* \"@openzeppelin/contracts/token/ERC20/ERC20.sol\":3508:3526  _balances[account] */\n          0xffffffffffffffffffffffffffffffffffffffff\n          and\n          0xffffffffffffffffffffffffffffffffffffffff\n          and\n          dup2\n          mstore\n          0x20\n          add\n          swap1\n          dup2\n          mstore\n          0x20\n          add\n          0x00\n          keccak256\n          sload\n            /* \"@openzeppelin/contracts/token/ERC20/ERC20.sol\":3501:3526  return _balances[account] */\n          swap1\n          pop\n            /* \"@openzeppelin/contracts/token/ERC20/ERC20.sol\":3408:3533  function balanceOf(address account) public view virtual override returns (uint256) {... */\n          swap2\n          swap1\n          pop\n          jump\t// out\n            /* \"@openzeppelin/contracts/token/ERC20/ERC20.sol\":2367:2469  function symbol() public view virtual override returns (string memory) {... */\n        tag_48:\n            /* \"@openzeppelin/contracts/token/ERC20/ERC20.sol\":2423:2436  string memory */\n          0x60\n            /* \"@openzeppelin/contracts/token/ERC20/ERC20.sol\":2455:2462  _symbol */\n          0x04\n            /* \"@openzeppelin/contracts/token/ERC20/ERC20.sol\":2448:2462  return _symbol */\n          dup1\n          sload\n          tag_91\n          swap1\n          tag_65\n          jump\t// in\n        tag_91:\n          dup1\n          0x1f\n          add\n          0x20\n          dup1\n          swap2\n          div\n          mul\n          0x20\n          add\n          mload(0x40)\n          swap1\n          dup2\n          add\n          0x40\n          mstore\n          dup1\n          swap3\n          swap2\n          swap1\n          dup2\n          dup2\n          mstore\n          0x20\n          add\n          dup3\n          dup1\n          sload\n          tag_92\n          swap1\n          tag_65\n          jump\t// in\n        tag_92:\n          dup1\n          iszero\n          tag_93\n          jumpi\n          dup1\n          0x1f\n          lt\n          tag_94\n          jumpi\n          0x0100\n          dup1\n          dup4\n          sload\n          div\n          mul\n          dup4\n          mstore\n          swap2\n          0x20\n          add\n          swap2\n          jump(tag_93)\n        tag_94:\n          dup3\n          add\n          swap2\n          swap1\n          0x00\n          mstore\n          keccak256(0x00, 0x20)\n          swap1\n        tag_95:\n          dup2\n          sload\n          dup2\n          mstore\n          swap1\n          0x01\n          add\n          swap1\n          0x20\n          add\n          dup1\n          dup4\n          gt\n          tag_95\n          jumpi\n          dup3\n          swap1\n          sub\n          0x1f\n          and\n          dup3\n          add\n          swap2\n        tag_93:\n          pop\n          pop\n          pop\n          pop\n          pop\n          swap1\n          pop\n            /* \"@openzeppelin/contracts/token/ERC20/ERC20.sol\":2367:2469  function symbol() public view virtual override returns (string memory) {... */\n          swap1\n          jump\t// out\n            /* \"@openzeppelin/contracts/token/ERC20/ERC20.sol\":6594:7021  function decreaseAllowance(address spender, uint256 subtractedValue) public virtual returns (bool) {... */\n        tag_52:\n            /* \"@openzeppelin/contracts/token/ERC20/ERC20.sol\":6687:6691  bool */\n          0x00\n            /* \"@openzeppelin/contracts/token/ERC20/ERC20.sol\":6703:6716  address owner */\n          dup1\n            /* \"@openzeppelin/contracts/token/ERC20/ERC20.sol\":6719:6731  _msgSender() */\n          tag_97\n            /* \"@openzeppelin/contracts/token/ERC20/ERC20.sol\":6719:6729  _msgSender */\n          tag_72\n            /* \"@openzeppelin/contracts/token/ERC20/ERC20.sol\":6719:6731  _msgSender() */\n          jump\t// in\n        tag_97:\n            /* \"@openzeppelin/contracts/token/ERC20/ERC20.sol\":6703:6731  address owner = _msgSender() */\n          swap1\n          pop\n            /* \"@openzeppelin/contracts/token/ERC20/ERC20.sol\":6741:6765  uint256 currentAllowance */\n          0x00\n            /* \"@openzeppelin/contracts/token/ERC20/ERC20.sol\":6768:6793  allowance(owner, spender) */\n          tag_98\n            /* \"@openzeppelin/contracts/token/ERC20/ERC20.sol\":6778:6783  owner */\n          dup3\n            /* \"@openzeppelin/contracts/token/ERC20/ERC20.sol\":6785:6792  spender */\n          dup7\n            /* \"@openzeppelin/contracts/token/ERC20/ERC20.sol\":6768:6777  allowance */\n          tag_61\n            /* \"@openzeppelin/contracts/token/ERC20/ERC20.sol\":6768:6793  allowance(owner, spender) */\n          jump\t// in\n        tag_98:\n            /* \"@openzeppelin/contracts/token/ERC20/ERC20.sol\":6741:6793  uint256 currentAllowance = allowance(owner, spender) */\n          swap1\n          pop\n            /* \"@openzeppelin/contracts/token/ERC20/ERC20.sol\":6831:6846  subtractedValue */\n          dup4\n            /* \"@openzeppelin/contracts/token/ERC20/ERC20.sol\":6811:6827  currentAllowance */\n          dup2\n            /* \"@openzeppelin/contracts/token/ERC20/ERC20.sol\":6811:6846  currentAllowance >= subtractedValue */\n          lt\n          iszero\n            /* \"@openzeppelin/contracts/token/ERC20/ERC20.sol\":6803:6888  require(currentAllowance >= subtractedValue, \"ERC20: decreased allowance below zero\") */\n          tag_99\n          jumpi\n          mload(0x40)\n          0x08c379a000000000000000000000000000000000000000000000000000000000\n          dup2\n          mstore\n          0x04\n          add\n          tag_100\n          swap1\n          tag_101\n          jump\t// in\n        tag_100:\n          mload(0x40)\n          dup1\n          swap2\n          sub\n          swap1\n          revert\n        tag_99:\n            /* \"@openzeppelin/contracts/token/ERC20/ERC20.sol\":6922:6982  _approve(owner, spender, currentAllowance - subtractedValue) */\n          tag_102\n            /* \"@openzeppelin/contracts/token/ERC20/ERC20.sol\":6931:6936  owner */\n          dup3\n            /* \"@openzeppelin/contracts/token/ERC20/ERC20.sol\":6938:6945  spender */\n          dup7\n            /* \"@openzeppelin/contracts/token/ERC20/ERC20.sol\":6966:6981  subtractedValue */\n          dup7\n            /* \"@openzeppelin/contracts/token/ERC20/ERC20.sol\":6947:6963  currentAllowance */\n          dup5\n            /* \"@openzeppelin/contracts/token/ERC20/ERC20.sol\":6947:6981  currentAllowance - subtractedValue */\n          sub\n            /* \"@openzeppelin/contracts/token/ERC20/ERC20.sol\":6922:6930  _approve */\n          tag_74\n            /* \"@openzeppelin/contracts/token/ERC20/ERC20.sol\":6922:6982  _approve(owner, spender, currentAllowance - subtractedValue) */\n          jump\t// in\n        tag_102:\n            /* \"@openzeppelin/contracts/token/ERC20/ERC20.sol\":7010:7014  true */\n          0x01\n            /* \"@openzeppelin/contracts/token/ERC20/ERC20.sol\":7003:7014  return true */\n          swap3\n          pop\n          pop\n          pop\n            /* \"@openzeppelin/contracts/token/ERC20/ERC20.sol\":6594:7021  function decreaseAllowance(address spender, uint256 subtractedValue) public virtual returns (bool) {... */\n          swap3\n          swap2\n          pop\n          pop\n          jump\t// out\n            /* \"@openzeppelin/contracts/token/ERC20/ERC20.sol\":3729:3918  function transfer(address to, uint256 amount) public virtual override returns (bool) {... */\n        tag_56:\n            /* \"@openzeppelin/contracts/token/ERC20/ERC20.sol\":3808:3812  bool */\n          0x00\n            /* \"@openzeppelin/contracts/token/ERC20/ERC20.sol\":3824:3837  address owner */\n          dup1\n            /* \"@openzeppelin/contracts/token/ERC20/ERC20.sol\":3840:3852  _msgSender() */\n          tag_104\n            /* \"@openzeppelin/contracts/token/ERC20/ERC20.sol\":3840:3850  _msgSender */\n          tag_72\n            /* \"@openzeppelin/contracts/token/ERC20/ERC20.sol\":3840:3852  _msgSender() */\n          jump\t// in\n        tag_104:\n            /* \"@openzeppelin/contracts/token/ERC20/ERC20.sol\":3824:3852  address owner = _msgSender() */\n          swap1\n          pop\n            /* \"@openzeppelin/contracts/token/ERC20/ERC20.sol\":3862:3890  _transfer(owner, to, amount) */\n          tag_105\n            /* \"@openzeppelin/contracts/token/ERC20/ERC20.sol\":3872:3877  owner */\n          dup2\n            /* \"@openzeppelin/contracts/token/ERC20/ERC20.sol\":3879:3881  to */\n          dup6\n            /* \"@openzeppelin/contracts/token/ERC20/ERC20.sol\":3883:3889  amount */\n          dup6\n            /* \"@openzeppelin/contracts/token/ERC20/ERC20.sol\":3862:3871  _transfer */\n          tag_81\n            /* \"@openzeppelin/contracts/token/ERC20/ERC20.sol\":3862:3890  _transfer(owner, to, amount) */\n          jump\t// in\n        tag_105:\n            /* \"@openzeppelin/contracts/token/ERC20/ERC20.sol\":3907:3911  true */\n          0x01\n            /* \"@openzeppelin/contracts/token/ERC20/ERC20.sol\":3900:3911  return true */\n          swap2\n          pop\n          pop\n            /* \"@openzeppelin/contracts/token/ERC20/ERC20.sol\":3729:3918  function transfer(address to, uint256 amount) public virtual override returns (bool) {... */\n          swap3\n          swap2\n          pop\n          pop\n          jump\t// out\n            /* \"@openzeppelin/contracts/token/ERC20/ERC20.sol\":3976:4125  function allowance(address owner, address spender) public view virtual override returns (uint256) {... */\n        tag_61:\n            /* \"@openzeppelin/contracts/token/ERC20/ERC20.sol\":4065:4072  uint256 */\n          0x00\n            /* \"@openzeppelin/contracts/token/ERC20/ERC20.sol\":4091:4102  _allowances */\n          0x01\n            /* \"@openzeppelin/contracts/token/ERC20/ERC20.sol\":4091:4109  _allowances[owner] */\n          0x00\n            /* \"@openzeppelin/contracts/token/ERC20/ERC20.sol\":4103:4108  owner */\n          dup5\n            /* \"@openzeppelin/contracts/token/ERC20/ERC20.sol\":4091:4109  _allowances[owner] */\n          0xffffffffffffffffffffffffffffffffffffffff\n          and\n          0xffffffffffffffffffffffffffffffffffffffff\n          and\n          dup2\n          mstore\n          0x20\n          add\n          swap1\n          dup2\n          mstore\n          0x20\n          add\n          0x00\n          keccak256\n            /* \"@openzeppelin/contracts/token/ERC20/ERC20.sol\":4091:4118  _allowances[owner][spender] */\n          0x00\n            /* \"@openzeppelin/contracts/token/ERC20/ERC20.sol\":4110:4117  spender */\n          dup4\n            /* \"@openzeppelin/contracts/token/ERC20/ERC20.sol\":4091:4118  _allowances[owner][spender] */\n          0xffffffffffffffffffffffffffffffffffffffff\n          and\n          0xffffffffffffffffffffffffffffffffffffffff\n          and\n          dup2\n          mstore\n          0x20\n          add\n          swap1\n          dup2\n          mstore\n          0x20\n          add\n          0x00\n          keccak256\n          sload\n            /* \"@openzeppelin/contracts/token/ERC20/ERC20.sol\":4084:4118  return _allowances[owner][spender] */\n          swap1\n          pop\n            /* \"@openzeppelin/contracts/token/ERC20/ERC20.sol\":3976:4125  function allowance(address owner, address spender) public view virtual override returns (uint256) {... */\n          swap3\n          swap2\n          pop\n          pop\n          jump\t// out\n            /* \"@openzeppelin/contracts/utils/Context.sol\":640:736  function _msgSender() internal view virtual returns (address) {... */\n        tag_72:\n            /* \"@openzeppelin/contracts/utils/Context.sol\":693:700  address */\n          0x00\n            /* \"@openzeppelin/contracts/utils/Context.sol\":719:729  msg.sender */\n          caller\n            /* \"@openzeppelin/contracts/utils/Context.sol\":712:729  return msg.sender */\n          swap1\n          pop\n            /* \"@openzeppelin/contracts/utils/Context.sol\":640:736  function _msgSender() internal view virtual returns (address) {... */\n          swap1\n          jump\t// out\n            /* \"@openzeppelin/contracts/token/ERC20/ERC20.sol\":10110:10480  function _approve(... */\n        tag_74:\n            /* \"@openzeppelin/contracts/token/ERC20/ERC20.sol\":10258:10259  0 */\n          0x00\n            /* \"@openzeppelin/contracts/token/ERC20/ERC20.sol\":10241:10260  owner != address(0) */\n          0xffffffffffffffffffffffffffffffffffffffff\n          and\n            /* \"@openzeppelin/contracts/token/ERC20/ERC20.sol\":10241:10246  owner */\n          dup4\n            /* \"@openzeppelin/contracts/token/ERC20/ERC20.sol\":10241:10260  owner != address(0) */\n          0xffffffffffffffffffffffffffffffffffffffff\n          and\n          eq\n          iszero\n            /* \"@openzeppelin/contracts/token/ERC20/ERC20.sol\":10233:10301  require(owner != address(0), \"ERC20: approve from the zero address\") */\n          tag_109\n          jumpi\n          mload(0x40)\n          0x08c379a000000000000000000000000000000000000000000000000000000000\n          dup2\n          mstore\n          0x04\n          add\n          tag_110\n          swap1\n          tag_111\n          jump\t// in\n        tag_110:\n          mload(0x40)\n          dup1\n          swap2\n          sub\n          swap1\n          revert\n        tag_109:\n            /* \"@openzeppelin/contracts/token/ERC20/ERC20.sol\":10338:10339  0 */\n          0x00\n            /* \"@openzeppelin/contracts/token/ERC20/ERC20.sol\":10319:10340  spender != address(0) */\n          0xffffffffffffffffffffffffffffffffffffffff\n          and\n            /* \"@openzeppelin/contracts/token/ERC20/ERC20.sol\":10319:10326  spender */\n          dup3\n            /* \"@openzeppelin/contracts/token/ERC20/ERC20.sol\":10319:10340  spender != address(0) */\n          0xffffffffffffffffffffffffffffffffffffffff\n          and\n          eq\n          iszero\n            /* \"@openzeppelin/contracts/token/ERC20/ERC20.sol\":10311:10379  require(spender != address(0), \"ERC20: approve to the zero address\") */\n          tag_112\n          jumpi\n          mload(0x40)\n          0x08c379a000000000000000000000000000000000000000000000000000000000\n          dup2\n          mstore\n          0x04\n          add\n          tag_113\n          swap1\n          tag_114\n          jump\t// in\n        tag_113:\n          mload(0x40)\n          dup1\n          swap2\n          sub\n          swap1\n          revert\n        tag_112:\n            /* \"@openzeppelin/contracts/token/ERC20/ERC20.sol\":10420:10426  amount */\n          dup1\n            /* \"@openzeppelin/contracts/token/ERC20/ERC20.sol\":10390:10401  _allowances */\n          0x01\n            /* \"@openzeppelin/contracts/token/ERC20/ERC20.sol\":10390:10408  _allowances[owner] */\n          0x00\n            /* \"@openzeppelin/contracts/token/ERC20/ERC20.sol\":10402:10407  owner */\n          dup6\n            /* \"@openzeppelin/contracts/token/ERC20/ERC20.sol\":10390:10408  _allowances[owner] */\n          0xffffffffffffffffffffffffffffffffffffffff\n          and\n          0xffffffffffffffffffffffffffffffffffffffff\n          and\n          dup2\n          mstore\n          0x20\n          add\n          swap1\n          dup2\n          mstore\n          0x20\n          add\n          0x00\n          keccak256\n            /* \"@openzeppelin/contracts/token/ERC20/ERC20.sol\":10390:10417  _allowances[owner][spender] */\n          0x00\n            /* \"@openzeppelin/contracts/token/ERC20/ERC20.sol\":10409:10416  spender */\n          dup5\n            /* \"@openzeppelin/contracts/token/ERC20/ERC20.sol\":10390:10417  _allowances[owner][spender] */\n          0xffffffffffffffffffffffffffffffffffffffff\n          and\n          0xffffffffffffffffffffffffffffffffffffffff\n          and\n          dup2\n          mstore\n          0x20\n          add\n          swap1\n          dup2\n          mstore\n          0x20\n          add\n          0x00\n          keccak256\n            /* \"@openzeppelin/contracts/token/ERC20/ERC20.sol\":10390:10426  _allowances[owner][spender] = amount */\n          dup2\n          swap1\n          sstore\n          pop\n            /* \"@openzeppelin/contracts/token/ERC20/ERC20.sol\":10457:10464  spender */\n          dup2\n            /* \"@openzeppelin/contracts/token/ERC20/ERC20.sol\":10441:10473  Approval(owner, spender, amount) */\n          0xffffffffffffffffffffffffffffffffffffffff\n          and\n            /* \"@openzeppelin/contracts/token/ERC20/ERC20.sol\":10450:10455  owner */\n          dup4\n            /* \"@openzeppelin/contracts/token/ERC20/ERC20.sol\":10441:10473  Approval(owner, spender, amount) */\n          0xffffffffffffffffffffffffffffffffffffffff\n          and\n          0x8c5be1e5ebec7d5bd14f71427d1e84f3dd0314c0f7b2291e5b200ac8c7c3b925\n            /* \"@openzeppelin/contracts/token/ERC20/ERC20.sol\":10466:10472  amount */\n          dup4\n            /* \"@openzeppelin/contracts/token/ERC20/ERC20.sol\":10441:10473  Approval(owner, spender, amount) */\n          mload(0x40)\n          tag_115\n          swap2\n          swap1\n          tag_28\n          jump\t// in\n        tag_115:\n          mload(0x40)\n          dup1\n          swap2\n          sub\n          swap1\n          log3\n            /* \"@openzeppelin/contracts/token/ERC20/ERC20.sol\":10110:10480  function _approve(... */\n          pop\n          pop\n          pop\n          jump\t// out\n            /* \"@openzeppelin/contracts/token/ERC20/ERC20.sol\":10761:11202  function _spendAllowance(... */\n        tag_79:\n            /* \"@openzeppelin/contracts/token/ERC20/ERC20.sol\":10891:10915  uint256 currentAllowance */\n          0x00\n            /* \"@openzeppelin/contracts/token/ERC20/ERC20.sol\":10918:10943  allowance(owner, spender) */\n          tag_117\n            /* \"@openzeppelin/contracts/token/ERC20/ERC20.sol\":10928:10933  owner */\n          dup5\n            /* \"@openzeppelin/contracts/token/ERC20/ERC20.sol\":10935:10942  spender */\n          dup5\n            /* \"@openzeppelin/contracts/token/ERC20/ERC20.sol\":10918:10927  allowance */\n          tag_61\n            /* \"@openzeppelin/contracts/token/ERC20/ERC20.sol\":10918:10943  allowance(owner, spender) */\n          jump\t// in\n        tag_117:\n            /* \"@openzeppelin/contracts/token/ERC20/ERC20.sol\":10891:10943  uint256 currentAllowance = allowance(owner, spender) */\n          swap1\n          pop\n            /* \"@openzeppelin/contracts/token/ERC20/ERC20.sol\":10977:10994  type(uint256).max */\n          0xffffffffffffffffffffffffffffffffffffffffffffffffffffffffffffffff\n            /* \"@openzeppelin/contracts/token/ERC20/ERC20.sol\":10957:10973  currentAllowance */\n          dup2\n            /* \"@openzeppelin/contracts/token/ERC20/ERC20.sol\":10957:10994  currentAllowance != type(uint256).max */\n          eq\n            /* \"@openzeppelin/contracts/token/ERC20/ERC20.sol\":10953:11196  if (currentAllowance != type(uint256).max) {... */\n          tag_118\n          jumpi\n            /* \"@openzeppelin/contracts/token/ERC20/ERC20.sol\":11038:11044  amount */\n          dup2\n            /* \"@openzeppelin/contracts/token/ERC20/ERC20.sol\":11018:11034  currentAllowance */\n          dup2\n            /* \"@openzeppelin/contracts/token/ERC20/ERC20.sol\":11018:11044  currentAllowance >= amount */\n          lt\n          iszero\n            /* \"@openzeppelin/contracts/token/ERC20/ERC20.sol\":11010:11078  require(currentAllowance >= amount, \"ERC20: insufficient allowance\") */\n          tag_119\n          jumpi\n          mload(0x40)\n          0x08c379a000000000000000000000000000000000000000000000000000000000\n          dup2\n          mstore\n          0x04\n          add\n          tag_120\n          swap1\n          tag_121\n          jump\t// in\n        tag_120:\n          mload(0x40)\n          dup1\n          swap2\n          sub\n          swap1\n          revert\n        tag_119:\n            /* \"@openzeppelin/contracts/token/ERC20/ERC20.sol\":11120:11171  _approve(owner, spender, currentAllowance - amount) */\n          tag_122\n            /* \"@openzeppelin/contracts/token/ERC20/ERC20.sol\":11129:11134  owner */\n          dup5\n            /* \"@openzeppelin/contracts/token/ERC20/ERC20.sol\":11136:11143  spender */\n          dup5\n            /* \"@openzeppelin/contracts/token/ERC20/ERC20.sol\":11164:11170  amount */\n          dup5\n            /* \"@openzeppelin/contracts/token/ERC20/ERC20.sol\":11145:11161  currentAllowance */\n          dup5\n            /* \"@openzeppelin/contracts/token/ERC20/ERC20.sol\":11145:11170  currentAllowance - amount */\n          sub\n            /* \"@openzeppelin/contracts/token/ERC20/ERC20.sol\":11120:11128  _approve */\n          tag_74\n            /* \"@openzeppelin/contracts/token/ERC20/ERC20.sol\":11120:11171  _approve(owner, spender, currentAllowance - amount) */\n          jump\t// in\n        tag_122:\n            /* \"@openzeppelin/contracts/token/ERC20/ERC20.sol\":10953:11196  if (currentAllowance != type(uint256).max) {... */\n        tag_118:\n            /* \"@openzeppelin/contracts/token/ERC20/ERC20.sol\":10881:11202  {... */\n          pop\n            /* \"@openzeppelin/contracts/token/ERC20/ERC20.sol\":10761:11202  function _spendAllowance(... */\n          pop\n          pop\n          pop\n          jump\t// out\n            /* \"@openzeppelin/contracts/token/ERC20/ERC20.sol\":7475:8126  function _transfer(... */\n        tag_81:\n            /* \"@openzeppelin/contracts/token/ERC20/ERC20.sol\":7617:7618  0 */\n          0x00\n            /* \"@openzeppelin/contracts/token/ERC20/ERC20.sol\":7601:7619  from != address(0) */\n          0xffffffffffffffffffffffffffffffffffffffff\n          and\n            /* \"@openzeppelin/contracts/token/ERC20/ERC20.sol\":7601:7605  from */\n          dup4\n            /* \"@openzeppelin/contracts/token/ERC20/ERC20.sol\":7601:7619  from != address(0) */\n          0xffffffffffffffffffffffffffffffffffffffff\n          and\n          eq\n          iszero\n            /* \"@openzeppelin/contracts/token/ERC20/ERC20.sol\":7593:7661  require(from != address(0), \"ERC20: transfer from the zero address\") */\n          tag_124\n          jumpi\n          mload(0x40)\n          0x08c379a000000000000000000000000000000000000000000000000000000000\n          dup2\n          mstore\n          0x04\n          add\n          tag_125\n          swap1\n          tag_126\n          jump\t// in\n        tag_125:\n          mload(0x40)\n          dup1\n          swap2\n          sub\n          swap1\n          revert\n        tag_124:\n            /* \"@openzeppelin/contracts/token/ERC20/ERC20.sol\":7693:7694  0 */\n          0x00\n            /* \"@openzeppelin/contracts/token/ERC20/ERC20.sol\":7679:7695  to != address(0) */\n          0xffffffffffffffffffffffffffffffffffffffff\n          and\n            /* \"@openzeppelin/contracts/token/ERC20/ERC20.sol\":7679:7681  to */\n          dup3\n            /* \"@openzeppelin/contracts/token/ERC20/ERC20.sol\":7679:7695  to != address(0) */\n          0xffffffffffffffffffffffffffffffffffffffff\n          and\n          eq\n          iszero\n            /* \"@openzeppelin/contracts/token/ERC20/ERC20.sol\":7671:7735  require(to != address(0), \"ERC20: transfer to the zero address\") */\n          tag_127\n          jumpi\n          mload(0x40)\n          0x08c379a000000000000000000000000000000000000000000000000000000000\n          dup2\n          mstore\n          0x04\n          add\n          tag_128\n          swap1\n          tag_129\n          jump\t// in\n        tag_128:\n          mload(0x40)\n          dup1\n          swap2\n          sub\n          swap1\n          revert\n        tag_127:\n            /* \"@openzeppelin/contracts/token/ERC20/ERC20.sol\":7746:7784  _beforeTokenTransfer(from, to, amount) */\n          tag_130\n            /* \"@openzeppelin/contracts/token/ERC20/ERC20.sol\":7767:7771  from */\n          dup4\n            /* \"@openzeppelin/contracts/token/ERC20/ERC20.sol\":7773:7775  to */\n          dup4\n            /* \"@openzeppelin/contracts/token/ERC20/ERC20.sol\":7777:7783  amount */\n          dup4\n            /* \"@openzeppelin/contracts/token/ERC20/ERC20.sol\":7746:7766  _beforeTokenTransfer */\n          tag_131\n            /* \"@openzeppelin/contracts/token/ERC20/ERC20.sol\":7746:7784  _beforeTokenTransfer(from, to, amount) */\n          jump\t// in\n        tag_130:\n            /* \"@openzeppelin/contracts/token/ERC20/ERC20.sol\":7795:7814  uint256 fromBalance */\n          0x00\n            /* \"@openzeppelin/contracts/token/ERC20/ERC20.sol\":7817:7826  _balances */\n          dup1\n            /* \"@openzeppelin/contracts/token/ERC20/ERC20.sol\":7817:7832  _balances[from] */\n          0x00\n            /* \"@openzeppelin/contracts/token/ERC20/ERC20.sol\":7827:7831  from */\n          dup6\n            /* \"@openzeppelin/contracts/token/ERC20/ERC20.sol\":7817:7832  _balances[from] */\n          0xffffffffffffffffffffffffffffffffffffffff\n          and\n          0xffffffffffffffffffffffffffffffffffffffff\n          and\n          dup2\n          mstore\n          0x20\n          add\n          swap1\n          dup2\n          mstore\n          0x20\n          add\n          0x00\n          keccak256\n          sload\n            /* \"@openzeppelin/contracts/token/ERC20/ERC20.sol\":7795:7832  uint256 fromBalance = _balances[from] */\n          swap1\n          pop\n            /* \"@openzeppelin/contracts/token/ERC20/ERC20.sol\":7865:7871  amount */\n          dup2\n            /* \"@openzeppelin/contracts/token/ERC20/ERC20.sol\":7850:7861  fromBalance */\n          dup2\n            /* \"@openzeppelin/contracts/token/ERC20/ERC20.sol\":7850:7871  fromBalance >= amount */\n          lt\n          iszero\n            /* \"@openzeppelin/contracts/token/ERC20/ERC20.sol\":7842:7914  require(fromBalance >= amount, \"ERC20: transfer amount exceeds balance\") */\n          tag_132\n          jumpi\n          mload(0x40)\n          0x08c379a000000000000000000000000000000000000000000000000000000000\n          dup2\n          mstore\n          0x04\n          add\n          tag_133\n          swap1\n          tag_134\n          jump\t// in\n        tag_133:\n          mload(0x40)\n          dup1\n          swap2\n          sub\n          swap1\n          revert\n        tag_132:\n            /* \"@openzeppelin/contracts/token/ERC20/ERC20.sol\":7980:7986  amount */\n          dup2\n            /* \"@openzeppelin/contracts/token/ERC20/ERC20.sol\":7966:7977  fromBalance */\n          dup2\n            /* \"@openzeppelin/contracts/token/ERC20/ERC20.sol\":7966:7986  fromBalance - amount */\n          sub\n            /* \"@openzeppelin/contracts/token/ERC20/ERC20.sol\":7948:7957  _balances */\n          0x00\n            /* \"@openzeppelin/contracts/token/ERC20/ERC20.sol\":7948:7963  _balances[from] */\n          dup1\n            /* \"@openzeppelin/contracts/token/ERC20/ERC20.sol\":7958:7962  from */\n          dup7\n            /* \"@openzeppelin/contracts/token/ERC20/ERC20.sol\":7948:7963  _balances[from] */\n          0xffffffffffffffffffffffffffffffffffffffff\n          and\n          0xffffffffffffffffffffffffffffffffffffffff\n          and\n          dup2\n          mstore\n          0x20\n          add\n          swap1\n          dup2\n          mstore\n          0x20\n          add\n          0x00\n          keccak256\n            /* \"@openzeppelin/contracts/token/ERC20/ERC20.sol\":7948:7986  _balances[from] = fromBalance - amount */\n          dup2\n          swap1\n          sstore\n          pop\n            /* \"@openzeppelin/contracts/token/ERC20/ERC20.sol\":8023:8029  amount */\n          dup2\n            /* \"@openzeppelin/contracts/token/ERC20/ERC20.sol\":8006:8015  _balances */\n          0x00\n            /* \"@openzeppelin/contracts/token/ERC20/ERC20.sol\":8006:8019  _balances[to] */\n          dup1\n            /* \"@openzeppelin/contracts/token/ERC20/ERC20.sol\":8016:8018  to */\n          dup6\n            /* \"@openzeppelin/contracts/token/ERC20/ERC20.sol\":8006:8019  _balances[to] */\n          0xffffffffffffffffffffffffffffffffffffffff\n          and\n          0xffffffffffffffffffffffffffffffffffffffff\n          and\n          dup2\n          mstore\n          0x20\n          add\n          swap1\n          dup2\n          mstore\n          0x20\n          add\n          0x00\n          keccak256\n          0x00\n            /* \"@openzeppelin/contracts/token/ERC20/ERC20.sol\":8006:8029  _balances[to] += amount */\n          dup3\n          dup3\n          sload\n          tag_135\n          swap2\n          swap1\n          tag_88\n          jump\t// in\n        tag_135:\n          swap3\n          pop\n          pop\n          dup2\n          swap1\n          sstore\n          pop\n            /* \"@openzeppelin/contracts/token/ERC20/ERC20.sol\":8060:8062  to */\n          dup3\n            /* \"@openzeppelin/contracts/token/ERC20/ERC20.sol\":8045:8071  Transfer(from, to, amount) */\n          0xffffffffffffffffffffffffffffffffffffffff\n          and\n            /* \"@openzeppelin/contracts/token/ERC20/ERC20.sol\":8054:8058  from */\n          dup5\n            /* \"@openzeppelin/contracts/token/ERC20/ERC20.sol\":8045:8071  Transfer(from, to, amount) */\n          0xffffffffffffffffffffffffffffffffffffffff\n          and\n          0xddf252ad1be2c89b69c2b068fc378daa952ba7f163c4a11628f55a4df523b3ef\n            /* \"@openzeppelin/contracts/token/ERC20/ERC20.sol\":8064:8070  amount */\n          dup5\n            /* \"@openzeppelin/contracts/token/ERC20/ERC20.sol\":8045:8071  Transfer(from, to, amount) */\n          mload(0x40)\n          tag_136\n          swap2\n          swap1\n          tag_28\n          jump\t// in\n        tag_136:\n          mload(0x40)\n          dup1\n          swap2\n          sub\n          swap1\n          log3\n            /* \"@openzeppelin/contracts/token/ERC20/ERC20.sol\":8082:8119  _afterTokenTransfer(from, to, amount) */\n          tag_137\n            /* \"@openzeppelin/contracts/token/ERC20/ERC20.sol\":8102:8106  from */\n          dup5\n            /* \"@openzeppelin/contracts/token/ERC20/ERC20.sol\":8108:8110  to */\n          dup5\n            /* \"@openzeppelin/contracts/token/ERC20/ERC20.sol\":8112:8118  amount */\n          dup5\n            /* \"@openzeppelin/contracts/token/ERC20/ERC20.sol\":8082:8101  _afterTokenTransfer */\n          tag_138\n            /* \"@openzeppelin/contracts/token/ERC20/ERC20.sol\":8082:8119  _afterTokenTransfer(from, to, amount) */\n          jump\t// in\n        tag_137:\n            /* \"@openzeppelin/contracts/token/ERC20/ERC20.sol\":7583:8126  {... */\n          pop\n            /* \"@openzeppelin/contracts/token/ERC20/ERC20.sol\":7475:8126  function _transfer(... */\n          pop\n          pop\n          pop\n          jump\t// out\n            /* \"@openzeppelin/contracts/token/ERC20/ERC20.sol\":11786:11907  function _beforeTokenTransfer(... */\n        tag_131:\n          pop\n          pop\n          pop\n          jump\t// out\n            /* \"@openzeppelin/contracts/token/ERC20/ERC20.sol\":12495:12615  function _afterTokenTransfer(... */\n        tag_138:\n          pop\n          pop\n          pop\n          jump\t// out\n            /* \"#utility.yul\":7:146   */\n        tag_142:\n            /* \"#utility.yul\":53:58   */\n          0x00\n            /* \"#utility.yul\":91:97   */\n          dup2\n            /* \"#utility.yul\":78:98   */\n          calldataload\n            /* \"#utility.yul\":69:98   */\n          swap1\n          pop\n            /* \"#utility.yul\":107:140   */\n          tag_144\n            /* \"#utility.yul\":134:139   */\n          dup2\n            /* \"#utility.yul\":107:140   */\n          tag_145\n          jump\t// in\n        tag_144:\n            /* \"#utility.yul\":7:146   */\n          swap3\n          swap2\n          pop\n          pop\n          jump\t// out\n            /* \"#utility.yul\":152:291   */\n        tag_146:\n            /* \"#utility.yul\":198:203   */\n          0x00\n            /* \"#utility.yul\":236:242   */\n          dup2\n            /* \"#utility.yul\":223:243   */\n          calldataload\n            /* \"#utility.yul\":214:243   */\n          swap1\n          pop\n            /* \"#utility.yul\":252:285   */\n          tag_148\n            /* \"#utility.yul\":279:284   */\n          dup2\n            /* \"#utility.yul\":252:285   */\n          tag_149\n          jump\t// in\n        tag_148:\n            /* \"#utility.yul\":152:291   */\n          swap3\n          swap2\n          pop\n          pop\n          jump\t// out\n            /* \"#utility.yul\":297:626   */\n        tag_44:\n            /* \"#utility.yul\":356:362   */\n          0x00\n            /* \"#utility.yul\":405:407   */\n          0x20\n            /* \"#utility.yul\":393:402   */\n          dup3\n            /* \"#utility.yul\":384:391   */\n          dup5\n            /* \"#utility.yul\":380:403   */\n          sub\n            /* \"#utility.yul\":376:408   */\n          slt\n            /* \"#utility.yul\":373:492   */\n          iszero\n          tag_151\n          jumpi\n            /* \"#utility.yul\":411:490   */\n          tag_152\n          tag_153\n          jump\t// in\n        tag_152:\n            /* \"#utility.yul\":373:492   */\n        tag_151:\n            /* \"#utility.yul\":531:532   */\n          0x00\n            /* \"#utility.yul\":556:609   */\n          tag_154\n            /* \"#utility.yul\":601:608   */\n          dup5\n            /* \"#utility.yul\":592:598   */\n          dup3\n            /* \"#utility.yul\":581:590   */\n          dup6\n            /* \"#utility.yul\":577:599   */\n          add\n            /* \"#utility.yul\":556:609   */\n          tag_142\n          jump\t// in\n        tag_154:\n            /* \"#utility.yul\":546:609   */\n          swap2\n          pop\n            /* \"#utility.yul\":502:619   */\n          pop\n            /* \"#utility.yul\":297:626   */\n          swap3\n          swap2\n          pop\n          pop\n          jump\t// out\n            /* \"#utility.yul\":632:1106   */\n        tag_60:\n            /* \"#utility.yul\":700:706   */\n          0x00\n            /* \"#utility.yul\":708:714   */\n          dup1\n            /* \"#utility.yul\":757:759   */\n          0x40\n            /* \"#utility.yul\":745:754   */\n          dup4\n            /* \"#utility.yul\":736:743   */\n          dup6\n            /* \"#utility.yul\":732:755   */\n          sub\n            /* \"#utility.yul\":728:760   */\n          slt\n            /* \"#utility.yul\":725:844   */\n          iszero\n          tag_156\n          jumpi\n            /* \"#utility.yul\":763:842   */\n          tag_157\n          tag_153\n          jump\t// in\n        tag_157:\n            /* \"#utility.yul\":725:844   */\n        tag_156:\n            /* \"#utility.yul\":883:884   */\n          0x00\n            /* \"#utility.yul\":908:961   */\n          tag_158\n            /* \"#utility.yul\":953:960   */\n          dup6\n            /* \"#utility.yul\":944:950   */\n          dup3\n            /* \"#utility.yul\":933:942   */\n          dup7\n            /* \"#utility.yul\":929:951   */\n          add\n            /* \"#utility.yul\":908:961   */\n          tag_142\n          jump\t// in\n        tag_158:\n            /* \"#utility.yul\":898:961   */\n          swap3\n          pop\n            /* \"#utility.yul\":854:971   */\n          pop\n            /* \"#utility.yul\":1010:1012   */\n          0x20\n            /* \"#utility.yul\":1036:1089   */\n          tag_159\n            /* \"#utility.yul\":1081:1088   */\n          dup6\n            /* \"#utility.yul\":1072:1078   */\n          dup3\n            /* \"#utility.yul\":1061:1070   */\n          dup7\n            /* \"#utility.yul\":1057:1079   */\n          add\n            /* \"#utility.yul\":1036:1089   */\n          tag_142\n          jump\t// in\n        tag_159:\n            /* \"#utility.yul\":1026:1089   */\n          swap2\n          pop\n            /* \"#utility.yul\":981:1099   */\n          pop\n            /* \"#utility.yul\":632:1106   */\n          swap3\n          pop\n          swap3\n          swap1\n          pop\n          jump\t// out\n            /* \"#utility.yul\":1112:1731   */\n        tag_31:\n            /* \"#utility.yul\":1189:1195   */\n          0x00\n            /* \"#utility.yul\":1197:1203   */\n          dup1\n            /* \"#utility.yul\":1205:1211   */\n          0x00\n            /* \"#utility.yul\":1254:1256   */\n          0x60\n            /* \"#utility.yul\":1242:1251   */\n          dup5\n            /* \"#utility.yul\":1233:1240   */\n          dup7\n            /* \"#utility.yul\":1229:1252   */\n          sub\n            /* \"#utility.yul\":1225:1257   */\n          slt\n            /* \"#utility.yul\":1222:1341   */\n          iszero\n          tag_161\n          jumpi\n            /* \"#utility.yul\":1260:1339   */\n          tag_162\n          tag_153\n          jump\t// in\n        tag_162:\n            /* \"#utility.yul\":1222:1341   */\n        tag_161:\n            /* \"#utility.yul\":1380:1381   */\n          0x00\n            /* \"#utility.yul\":1405:1458   */\n          tag_163\n            /* \"#utility.yul\":1450:1457   */\n          dup7\n            /* \"#utility.yul\":1441:1447   */\n          dup3\n            /* \"#utility.yul\":1430:1439   */\n          dup8\n            /* \"#utility.yul\":1426:1448   */\n          add\n            /* \"#utility.yul\":1405:1458   */\n          tag_142\n          jump\t// in\n        tag_163:\n            /* \"#utility.yul\":1395:1458   */\n          swap4\n          pop\n            /* \"#utility.yul\":1351:1468   */\n          pop\n            /* \"#utility.yul\":1507:1509   */\n          0x20\n            /* \"#utility.yul\":1533:1586   */\n          tag_164\n            /* \"#utility.yul\":1578:1585   */\n          dup7\n            /* \"#utility.yul\":1569:1575   */\n          dup3\n            /* \"#utility.yul\":1558:1567   */\n          dup8\n            /* \"#utility.yul\":1554:1576   */\n          add\n            /* \"#utility.yul\":1533:1586   */\n          tag_142\n          jump\t// in\n        tag_164:\n            /* \"#utility.yul\":1523:1586   */\n          swap3\n          pop\n            /* \"#utility.yul\":1478:1596   */\n          pop\n            /* \"#utility.yul\":1635:1637   */\n          0x40\n            /* \"#utility.yul\":1661:1714   */\n          tag_165\n            /* \"#utility.yul\":1706:1713   */\n          dup7\n            /* \"#utility.yul\":1697:1703   */\n          dup3\n            /* \"#utility.yul\":1686:1695   */\n          dup8\n            /* \"#utility.yul\":1682:1704   */\n          add\n            /* \"#utility.yul\":1661:1714   */\n          tag_146\n          jump\t// in\n        tag_165:\n            /* \"#utility.yul\":1651:1714   */\n          swap2\n          pop\n            /* \"#utility.yul\":1606:1724   */\n          pop\n            /* \"#utility.yul\":1112:1731   */\n          swap3\n          pop\n          swap3\n          pop\n          swap3\n          jump\t// out\n            /* \"#utility.yul\":1737:2211   */\n        tag_21:\n            /* \"#utility.yul\":1805:1811   */\n          0x00\n            /* \"#utility.yul\":1813:1819   */\n          dup1\n            /* \"#utility.yul\":1862:1864   */\n          0x40\n            /* \"#utility.yul\":1850:1859   */\n          dup4\n            /* \"#utility.yul\":1841:1848   */\n          dup6\n            /* \"#utility.yul\":1837:1860   */\n          sub\n            /* \"#utility.yul\":1833:1865   */\n          slt\n            /* \"#utility.yul\":1830:1949   */\n          iszero\n          tag_167\n          jumpi\n            /* \"#utility.yul\":1868:1947   */\n          tag_168\n          tag_153\n          jump\t// in\n        tag_168:\n            /* \"#utility.yul\":1830:1949   */\n        tag_167:\n            /* \"#utility.yul\":1988:1989   */\n          0x00\n            /* \"#utility.yul\":2013:2066   */\n          tag_169\n            /* \"#utility.yul\":2058:2065   */\n          dup6\n            /* \"#utility.yul\":2049:2055   */\n          dup3\n            /* \"#utility.yul\":2038:2047   */\n          dup7\n            /* \"#utility.yul\":2034:2056   */\n          add\n            /* \"#utility.yul\":2013:2066   */\n          tag_142\n          jump\t// in\n        tag_169:\n            /* \"#utility.yul\":2003:2066   */\n          swap3\n          pop\n            /* \"#utility.yul\":1959:2076   */\n          pop\n            /* \"#utility.yul\":2115:2117   */\n          0x20\n            /* \"#utility.yul\":2141:2194   */\n          tag_170\n            /* \"#utility.yul\":2186:2193   */\n          dup6\n            /* \"#utility.yul\":2177:2183   */\n          dup3\n            /* \"#utility.yul\":2166:2175   */\n          dup7\n            /* \"#utility.yul\":2162:2184   */\n          add\n            /* \"#utility.yul\":2141:2194   */\n          tag_146\n          jump\t// in\n        tag_170:\n            /* \"#utility.yul\":2131:2194   */\n          swap2\n          pop\n            /* \"#utility.yul\":2086:2204   */\n          pop\n            /* \"#utility.yul\":1737:2211   */\n          swap3\n          pop\n          swap3\n          swap1\n          pop\n          jump\t// out\n            /* \"#utility.yul\":2217:2326   */\n        tag_171:\n            /* \"#utility.yul\":2298:2319   */\n          tag_173\n            /* \"#utility.yul\":2313:2318   */\n          dup2\n            /* \"#utility.yul\":2298:2319   */\n          tag_174\n          jump\t// in\n        tag_173:\n            /* \"#utility.yul\":2293:2296   */\n          dup3\n            /* \"#utility.yul\":2286:2320   */\n          mstore\n            /* \"#utility.yul\":2217:2326   */\n          pop\n          pop\n          jump\t// out\n            /* \"#utility.yul\":2332:2696   */\n        tag_175:\n            /* \"#utility.yul\":2420:2423   */\n          0x00\n            /* \"#utility.yul\":2448:2487   */\n          tag_177\n            /* \"#utility.yul\":2481:2486   */\n          dup3\n            /* \"#utility.yul\":2448:2487   */\n          tag_178\n          jump\t// in\n        tag_177:\n            /* \"#utility.yul\":2503:2574   */\n          tag_179\n            /* \"#utility.yul\":2567:2573   */\n          dup2\n            /* \"#utility.yul\":2562:2565   */\n          dup6\n            /* \"#utility.yul\":2503:2574   */\n          tag_180\n          jump\t// in\n        tag_179:\n            /* \"#utility.yul\":2496:2574   */\n          swap4\n          pop\n            /* \"#utility.yul\":2583:2635   */\n          tag_181\n            /* \"#utility.yul\":2628:2634   */\n          dup2\n            /* \"#utility.yul\":2623:2626   */\n          dup6\n            /* \"#utility.yul\":2616:2620   */\n          0x20\n            /* \"#utility.yul\":2609:2614   */\n          dup7\n            /* \"#utility.yul\":2605:2621   */\n          add\n            /* \"#utility.yul\":2583:2635   */\n          tag_182\n          jump\t// in\n        tag_181:\n            /* \"#utility.yul\":2660:2689   */\n          tag_183\n            /* \"#utility.yul\":2682:2688   */\n          dup2\n            /* \"#utility.yul\":2660:2689   */\n          tag_184\n          jump\t// in\n        tag_183:\n            /* \"#utility.yul\":2655:2658   */\n          dup5\n            /* \"#utility.yul\":2651:2690   */\n          add\n            /* \"#utility.yul\":2644:2690   */\n          swap2\n          pop\n            /* \"#utility.yul\":2424:2696   */\n          pop\n            /* \"#utility.yul\":2332:2696   */\n          swap3\n          swap2\n          pop\n          pop\n          jump\t// out\n            /* \"#utility.yul\":2702:3068   */\n        tag_185:\n            /* \"#utility.yul\":2844:2847   */\n          0x00\n            /* \"#utility.yul\":2865:2932   */\n          tag_187\n            /* \"#utility.yul\":2929:2931   */\n          0x23\n            /* \"#utility.yul\":2924:2927   */\n          dup4\n            /* \"#utility.yul\":2865:2932   */\n          tag_180\n          jump\t// in\n        tag_187:\n            /* \"#utility.yul\":2858:2932   */\n          swap2\n          pop\n            /* \"#utility.yul\":2941:3034   */\n          tag_188\n            /* \"#utility.yul\":3030:3033   */\n          dup3\n            /* \"#utility.yul\":2941:3034   */\n          tag_189\n          jump\t// in\n        tag_188:\n            /* \"#utility.yul\":3059:3061   */\n          0x40\n            /* \"#utility.yul\":3054:3057   */\n          dup3\n            /* \"#utility.yul\":3050:3062   */\n          add\n            /* \"#utility.yul\":3043:3062   */\n          swap1\n          pop\n            /* \"#utility.yul\":2702:3068   */\n          swap2\n          swap1\n          pop\n          jump\t// out\n            /* \"#utility.yul\":3074:3440   */\n        tag_190:\n            /* \"#utility.yul\":3216:3219   */\n          0x00\n            /* \"#utility.yul\":3237:3304   */\n          tag_192\n            /* \"#utility.yul\":3301:3303   */\n          0x22\n            /* \"#utility.yul\":3296:3299   */\n          dup4\n            /* \"#utility.yul\":3237:3304   */\n          tag_180\n          jump\t// in\n        tag_192:\n            /* \"#utility.yul\":3230:3304   */\n          swap2\n          pop\n            /* \"#utility.yul\":3313:3406   */\n          tag_193\n            /* \"#utility.yul\":3402:3405   */\n          dup3\n            /* \"#utility.yul\":3313:3406   */\n          tag_194\n          jump\t// in\n        tag_193:\n            /* \"#utility.yul\":3431:3433   */\n          0x40\n            /* \"#utility.yul\":3426:3429   */\n          dup3\n            /* \"#utility.yul\":3422:3434   */\n          add\n            /* \"#utility.yul\":3415:3434   */\n          swap1\n          pop\n            /* \"#utility.yul\":3074:3440   */\n          swap2\n          swap1\n          pop\n          jump\t// out\n            /* \"#utility.yul\":3446:3812   */\n        tag_195:\n            /* \"#utility.yul\":3588:3591   */\n          0x00\n            /* \"#utility.yul\":3609:3676   */\n          tag_197\n            /* \"#utility.yul\":3673:3675   */\n          0x1d\n            /* \"#utility.yul\":3668:3671   */\n          dup4\n            /* \"#utility.yul\":3609:3676   */\n          tag_180\n          jump\t// in\n        tag_197:\n            /* \"#utility.yul\":3602:3676   */\n          swap2\n          pop\n            /* \"#utility.yul\":3685:3778   */\n          tag_198\n            /* \"#utility.yul\":3774:3777   */\n          dup3\n            /* \"#utility.yul\":3685:3778   */\n          tag_199\n          jump\t// in\n        tag_198:\n            /* \"#utility.yul\":3803:3805   */\n          0x20\n            /* \"#utility.yul\":3798:3801   */\n          dup3\n            /* \"#utility.yul\":3794:3806   */\n          add\n            /* \"#utility.yul\":3787:3806   */\n          swap1\n          pop\n            /* \"#utility.yul\":3446:3812   */\n          swap2\n          swap1\n          pop\n          jump\t// out\n            /* \"#utility.yul\":3818:4184   */\n        tag_200:\n            /* \"#utility.yul\":3960:3963   */\n          0x00\n            /* \"#utility.yul\":3981:4048   */\n          tag_202\n            /* \"#utility.yul\":4045:4047   */\n          0x26\n            /* \"#utility.yul\":4040:4043   */\n          dup4\n            /* \"#utility.yul\":3981:4048   */\n          tag_180\n          jump\t// in\n        tag_202:\n            /* \"#utility.yul\":3974:4048   */\n          swap2\n          pop\n            /* \"#utility.yul\":4057:4150   */\n          tag_203\n            /* \"#utility.yul\":4146:4149   */\n          dup3\n            /* \"#utility.yul\":4057:4150   */\n          tag_204\n          jump\t// in\n        tag_203:\n            /* \"#utility.yul\":4175:4177   */\n          0x40\n            /* \"#utility.yul\":4170:4173   */\n          dup3\n            /* \"#utility.yul\":4166:4178   */\n          add\n            /* \"#utility.yul\":4159:4178   */\n          swap1\n          pop\n            /* \"#utility.yul\":3818:4184   */\n          swap2\n          swap1\n          pop\n          jump\t// out\n            /* \"#utility.yul\":4190:4556   */\n        tag_205:\n            /* \"#utility.yul\":4332:4335   */\n          0x00\n            /* \"#utility.yul\":4353:4420   */\n          tag_207\n            /* \"#utility.yul\":4417:4419   */\n          0x25\n            /* \"#utility.yul\":4412:4415   */\n          dup4\n            /* \"#utility.yul\":4353:4420   */\n          tag_180\n          jump\t// in\n        tag_207:\n            /* \"#utility.yul\":4346:4420   */\n          swap2\n          pop\n            /* \"#utility.yul\":4429:4522   */\n          tag_208\n            /* \"#utility.yul\":4518:4521   */\n          dup3\n            /* \"#utility.yul\":4429:4522   */\n          tag_209\n          jump\t// in\n        tag_208:\n            /* \"#utility.yul\":4547:4549   */\n          0x40\n            /* \"#utility.yul\":4542:4545   */\n          dup3\n            /* \"#utility.yul\":4538:4550   */\n          add\n            /* \"#utility.yul\":4531:4550   */\n          swap1\n          pop\n            /* \"#utility.yul\":4190:4556   */\n          swap2\n          swap1\n          pop\n          jump\t// out\n            /* \"#utility.yul\":4562:4928   */\n        tag_210:\n            /* \"#utility.yul\":4704:4707   */\n          0x00\n            /* \"#utility.yul\":4725:4792   */\n          tag_212\n            /* \"#utility.yul\":4789:4791   */\n          0x24\n            /* \"#utility.yul\":4784:4787   */\n          dup4\n            /* \"#utility.yul\":4725:4792   */\n          tag_180\n          jump\t// in\n        tag_212:\n            /* \"#utility.yul\":4718:4792   */\n          swap2\n          pop\n            /* \"#utility.yul\":4801:4894   */\n          tag_213\n            /* \"#utility.yul\":4890:4893   */\n          dup3\n            /* \"#utility.yul\":4801:4894   */\n          tag_214\n          jump\t// in\n        tag_213:\n            /* \"#utility.yul\":4919:4921   */\n          0x40\n            /* \"#utility.yul\":4914:4917   */\n          dup3\n            /* \"#utility.yul\":4910:4922   */\n          add\n            /* \"#utility.yul\":4903:4922   */\n          swap1\n          pop\n            /* \"#utility.yul\":4562:4928   */\n          swap2\n          swap1\n          pop\n          jump\t// out\n            /* \"#utility.yul\":4934:5300   */\n        tag_215:\n            /* \"#utility.yul\":5076:5079   */\n          0x00\n            /* \"#utility.yul\":5097:5164   */\n          tag_217\n            /* \"#utility.yul\":5161:5163   */\n          0x25\n            /* \"#utility.yul\":5156:5159   */\n          dup4\n            /* \"#utility.yul\":5097:5164   */\n          tag_180\n          jump\t// in\n        tag_217:\n            /* \"#utility.yul\":5090:5164   */\n          swap2\n          pop\n            /* \"#utility.yul\":5173:5266   */\n          tag_218\n            /* \"#utility.yul\":5262:5265   */\n          dup3\n            /* \"#utility.yul\":5173:5266   */\n          tag_219\n          jump\t// in\n        tag_218:\n            /* \"#utility.yul\":5291:5293   */\n          0x40\n            /* \"#utility.yul\":5286:5289   */\n          dup3\n            /* \"#utility.yul\":5282:5294   */\n          add\n            /* \"#utility.yul\":5275:5294   */\n          swap1\n          pop\n            /* \"#utility.yul\":4934:5300   */\n          swap2\n          swap1\n          pop\n          jump\t// out\n            /* \"#utility.yul\":5306:5424   */\n        tag_220:\n            /* \"#utility.yul\":5393:5417   */\n          tag_222\n            /* \"#utility.yul\":5411:5416   */\n          dup2\n            /* \"#utility.yul\":5393:5417   */\n          tag_223\n          jump\t// in\n        tag_222:\n            /* \"#utility.yul\":5388:5391   */\n          dup3\n            /* \"#utility.yul\":5381:5418   */\n          mstore\n            /* \"#utility.yul\":5306:5424   */\n          pop\n          pop\n          jump\t// out\n            /* \"#utility.yul\":5430:5542   */\n        tag_224:\n            /* \"#utility.yul\":5513:5535   */\n          tag_226\n            /* \"#utility.yul\":5529:5534   */\n          dup2\n            /* \"#utility.yul\":5513:5535   */\n          tag_227\n          jump\t// in\n        tag_226:\n            /* \"#utility.yul\":5508:5511   */\n          dup3\n            /* \"#utility.yul\":5501:5536   */\n          mstore\n            /* \"#utility.yul\":5430:5542   */\n          pop\n          pop\n          jump\t// out\n            /* \"#utility.yul\":5548:5758   */\n        tag_24:\n            /* \"#utility.yul\":5635:5639   */\n          0x00\n            /* \"#utility.yul\":5673:5675   */\n          0x20\n            /* \"#utility.yul\":5662:5671   */\n          dup3\n            /* \"#utility.yul\":5658:5676   */\n          add\n            /* \"#utility.yul\":5650:5676   */\n          swap1\n          pop\n            /* \"#utility.yul\":5686:5751   */\n          tag_229\n            /* \"#utility.yul\":5748:5749   */\n          0x00\n            /* \"#utility.yul\":5737:5746   */\n          dup4\n            /* \"#utility.yul\":5733:5750   */\n          add\n            /* \"#utility.yul\":5724:5730   */\n          dup5\n            /* \"#utility.yul\":5686:5751   */\n          tag_171\n          jump\t// in\n        tag_229:\n            /* \"#utility.yul\":5548:5758   */\n          swap3\n          swap2\n          pop\n          pop\n          jump\t// out\n            /* \"#utility.yul\":5764:6077   */\n        tag_18:\n            /* \"#utility.yul\":5877:5881   */\n          0x00\n            /* \"#utility.yul\":5915:5917   */\n          0x20\n            /* \"#utility.yul\":5904:5913   */\n          dup3\n            /* \"#utility.yul\":5900:5918   */\n          add\n            /* \"#utility.yul\":5892:5918   */\n          swap1\n          pop\n            /* \"#utility.yul\":5964:5973   */\n          dup2\n            /* \"#utility.yul\":5958:5962   */\n          dup2\n            /* \"#utility.yul\":5954:5974   */\n          sub\n            /* \"#utility.yul\":5950:5951   */\n          0x00\n            /* \"#utility.yul\":5939:5948   */\n          dup4\n            /* \"#utility.yul\":5935:5952   */\n          add\n            /* \"#utility.yul\":5928:5975   */\n          mstore\n            /* \"#utility.yul\":5992:6070   */\n          tag_231\n            /* \"#utility.yul\":6065:6069   */\n          dup2\n            /* \"#utility.yul\":6056:6062   */\n          dup5\n            /* \"#utility.yul\":5992:6070   */\n          tag_175\n          jump\t// in\n        tag_231:\n            /* \"#utility.yul\":5984:6070   */\n          swap1\n          pop\n            /* \"#utility.yul\":5764:6077   */\n          swap3\n          swap2\n          pop\n          pop\n          jump\t// out\n            /* \"#utility.yul\":6083:6502   */\n        tag_129:\n            /* \"#utility.yul\":6249:6253   */\n          0x00\n            /* \"#utility.yul\":6287:6289   */\n          0x20\n            /* \"#utility.yul\":6276:6285   */\n          dup3\n            /* \"#utility.yul\":6272:6290   */\n          add\n            /* \"#utility.yul\":6264:6290   */\n          swap1\n          pop\n            /* \"#utility.yul\":6336:6345   */\n          dup2\n            /* \"#utility.yul\":6330:6334   */\n          dup2\n            /* \"#utility.yul\":6326:6346   */\n          sub\n            /* \"#utility.yul\":6322:6323   */\n          0x00\n            /* \"#utility.yul\":6311:6320   */\n          dup4\n            /* \"#utility.yul\":6307:6324   */\n          add\n            /* \"#utility.yul\":6300:6347   */\n          mstore\n            /* \"#utility.yul\":6364:6495   */\n          tag_233\n            /* \"#utility.yul\":6490:6494   */\n          dup2\n            /* \"#utility.yul\":6364:6495   */\n          tag_185\n          jump\t// in\n        tag_233:\n            /* \"#utility.yul\":6356:6495   */\n          swap1\n          pop\n            /* \"#utility.yul\":6083:6502   */\n          swap2\n          swap1\n          pop\n          jump\t// out\n            /* \"#utility.yul\":6508:6927   */\n        tag_114:\n            /* \"#utility.yul\":6674:6678   */\n          0x00\n            /* \"#utility.yul\":6712:6714   */\n          0x20\n            /* \"#utility.yul\":6701:6710   */\n          dup3\n            /* \"#utility.yul\":6697:6715   */\n          add\n            /* \"#utility.yul\":6689:6715   */\n          swap1\n          pop\n            /* \"#utility.yul\":6761:6770   */\n          dup2\n            /* \"#utility.yul\":6755:6759   */\n          dup2\n            /* \"#utility.yul\":6751:6771   */\n          sub\n            /* \"#utility.yul\":6747:6748   */\n          0x00\n            /* \"#utility.yul\":6736:6745   */\n          dup4\n            /* \"#utility.yul\":6732:6749   */\n          add\n            /* \"#utility.yul\":6725:6772   */\n          mstore\n            /* \"#utility.yul\":6789:6920   */\n          tag_235\n            /* \"#utility.yul\":6915:6919   */\n          dup2\n            /* \"#utility.yul\":6789:6920   */\n          tag_190\n          jump\t// in\n        tag_235:\n            /* \"#utility.yul\":6781:6920   */\n          swap1\n          pop\n            /* \"#utility.yul\":6508:6927   */\n          swap2\n          swap1\n          pop\n          jump\t// out\n            /* \"#utility.yul\":6933:7352   */\n        tag_121:\n            /* \"#utility.yul\":7099:7103   */\n          0x00\n            /* \"#utility.yul\":7137:7139   */\n          0x20\n            /* \"#utility.yul\":7126:7135   */\n          dup3\n            /* \"#utility.yul\":7122:7140   */\n          add\n            /* \"#utility.yul\":7114:7140   */\n          swap1\n          pop\n            /* \"#utility.yul\":7186:7195   */\n          dup2\n            /* \"#utility.yul\":7180:7184   */\n          dup2\n            /* \"#utility.yul\":7176:7196   */\n          sub\n            /* \"#utility.yul\":7172:7173   */\n          0x00\n            /* \"#utility.yul\":7161:7170   */\n          dup4\n            /* \"#utility.yul\":7157:7174   */\n          add\n            /* \"#utility.yul\":7150:7197   */\n          mstore\n            /* \"#utility.yul\":7214:7345   */\n          tag_237\n            /* \"#utility.yul\":7340:7344   */\n          dup2\n            /* \"#utility.yul\":7214:7345   */\n          tag_195\n          jump\t// in\n        tag_237:\n            /* \"#utility.yul\":7206:7345   */\n          swap1\n          pop\n            /* \"#utility.yul\":6933:7352   */\n          swap2\n          swap1\n          pop\n          jump\t// out\n            /* \"#utility.yul\":7358:7777   */\n        tag_134:\n            /* \"#utility.yul\":7524:7528   */\n          0x00\n            /* \"#utility.yul\":7562:7564   */\n          0x20\n            /* \"#utility.yul\":7551:7560   */\n          dup3\n            /* \"#utility.yul\":7547:7565   */\n          add\n            /* \"#utility.yul\":7539:7565   */\n          swap1\n          pop\n            /* \"#utility.yul\":7611:7620   */\n          dup2\n            /* \"#utility.yul\":7605:7609   */\n          dup2\n            /* \"#utility.yul\":7601:7621   */\n          sub\n            /* \"#utility.yul\":7597:7598   */\n          0x00\n            /* \"#utility.yul\":7586:7595   */\n          dup4\n            /* \"#utility.yul\":7582:7599   */\n          add\n            /* \"#utility.yul\":7575:7622   */\n          mstore\n            /* \"#utility.yul\":7639:7770   */\n          tag_239\n            /* \"#utility.yul\":7765:7769   */\n          dup2\n            /* \"#utility.yul\":7639:7770   */\n          tag_200\n          jump\t// in\n        tag_239:\n            /* \"#utility.yul\":7631:7770   */\n          swap1\n          pop\n            /* \"#utility.yul\":7358:7777   */\n          swap2\n          swap1\n          pop\n          jump\t// out\n            /* \"#utility.yul\":7783:8202   */\n        tag_126:\n            /* \"#utility.yul\":7949:7953   */\n          0x00\n            /* \"#utility.yul\":7987:7989   */\n          0x20\n            /* \"#utility.yul\":7976:7985   */\n          dup3\n            /* \"#utility.yul\":7972:7990   */\n          add\n            /* \"#utility.yul\":7964:7990   */\n          swap1\n          pop\n            /* \"#utility.yul\":8036:8045   */\n          dup2\n            /* \"#utility.yul\":8030:8034   */\n          dup2\n            /* \"#utility.yul\":8026:8046   */\n          sub\n            /* \"#utility.yul\":8022:8023   */\n          0x00\n            /* \"#utility.yul\":8011:8020   */\n          dup4\n            /* \"#utility.yul\":8007:8024   */\n          add\n            /* \"#utility.yul\":8000:8047   */\n          mstore\n            /* \"#utility.yul\":8064:8195   */\n          tag_241\n            /* \"#utility.yul\":8190:8194   */\n          dup2\n            /* \"#utility.yul\":8064:8195   */\n          tag_205\n          jump\t// in\n        tag_241:\n            /* \"#utility.yul\":8056:8195   */\n          swap1\n          pop\n            /* \"#utility.yul\":7783:8202   */\n          swap2\n          swap1\n          pop\n          jump\t// out\n            /* \"#utility.yul\":8208:8627   */\n        tag_111:\n            /* \"#utility.yul\":8374:8378   */\n          0x00\n            /* \"#utility.yul\":8412:8414   */\n          0x20\n            /* \"#utility.yul\":8401:8410   */\n          dup3\n            /* \"#utility.yul\":8397:8415   */\n          add\n            /* \"#utility.yul\":8389:8415   */\n          swap1\n          pop\n            /* \"#utility.yul\":8461:8470   */\n          dup2\n            /* \"#utility.yul\":8455:8459   */\n          dup2\n            /* \"#utility.yul\":8451:8471   */\n          sub\n            /* \"#utility.yul\":8447:8448   */\n          0x00\n            /* \"#utility.yul\":8436:8445   */\n          dup4\n            /* \"#utility.yul\":8432:8449   */\n          add\n            /* \"#utility.yul\":8425:8472   */\n          mstore\n            /* \"#utility.yul\":8489:8620   */\n          tag_243\n            /* \"#utility.yul\":8615:8619   */\n          dup2\n            /* \"#utility.yul\":8489:8620   */\n          tag_210\n          jump\t// in\n        tag_243:\n            /* \"#utility.yul\":8481:8620   */\n          swap1\n          pop\n            /* \"#utility.yul\":8208:8627   */\n          swap2\n          swap1\n          pop\n          jump\t// out\n            /* \"#utility.yul\":8633:9052   */\n        tag_101:\n            /* \"#utility.yul\":8799:8803   */\n          0x00\n            /* \"#utility.yul\":8837:8839   */\n          0x20\n            /* \"#utility.yul\":8826:8835   */\n          dup3\n            /* \"#utility.yul\":8822:8840   */\n          add\n            /* \"#utility.yul\":8814:8840   */\n          swap1\n          pop\n            /* \"#utility.yul\":8886:8895   */\n          dup2\n            /* \"#utility.yul\":8880:8884   */\n          dup2\n            /* \"#utility.yul\":8876:8896   */\n          sub\n            /* \"#utility.yul\":8872:8873   */\n          0x00\n            /* \"#utility.yul\":8861:8870   */\n          dup4\n            /* \"#utility.yul\":8857:8874   */\n          add\n            /* \"#utility.yul\":8850:8897   */\n          mstore\n            /* \"#utility.yul\":8914:9045   */\n          tag_245\n            /* \"#utility.yul\":9040:9044   */\n          dup2\n            /* \"#utility.yul\":8914:9045   */\n          tag_215\n          jump\t// in\n        tag_245:\n            /* \"#utility.yul\":8906:9045   */\n          swap1\n          pop\n            /* \"#utility.yul\":8633:9052   */\n          swap2\n          swap1\n          pop\n          jump\t// out\n            /* \"#utility.yul\":9058:9280   */\n        tag_28:\n            /* \"#utility.yul\":9151:9155   */\n          0x00\n            /* \"#utility.yul\":9189:9191   */\n          0x20\n            /* \"#utility.yul\":9178:9187   */\n          dup3\n            /* \"#utility.yul\":9174:9192   */\n          add\n            /* \"#utility.yul\":9166:9192   */\n          swap1\n          pop\n            /* \"#utility.yul\":9202:9273   */\n          tag_247\n            /* \"#utility.yul\":9270:9271   */\n          0x00\n            /* \"#utility.yul\":9259:9268   */\n          dup4\n            /* \"#utility.yul\":9255:9272   */\n          add\n            /* \"#utility.yul\":9246:9252   */\n          dup5\n            /* \"#utility.yul\":9202:9273   */\n          tag_220\n          jump\t// in\n        tag_247:\n            /* \"#utility.yul\":9058:9280   */\n          swap3\n          swap2\n          pop\n          pop\n          jump\t// out\n            /* \"#utility.yul\":9286:9500   */\n        tag_37:\n            /* \"#utility.yul\":9375:9379   */\n          0x00\n            /* \"#utility.yul\":9413:9415   */\n          0x20\n            /* \"#utility.yul\":9402:9411   */\n          dup3\n            /* \"#utility.yul\":9398:9416   */\n          add\n            /* \"#utility.yul\":9390:9416   */\n          swap1\n          pop\n            /* \"#utility.yul\":9426:9493   */\n          tag_249\n            /* \"#utility.yul\":9490:9491   */\n          0x00\n            /* \"#utility.yul\":9479:9488   */\n          dup4\n            /* \"#utility.yul\":9475:9492   */\n          add\n            /* \"#utility.yul\":9466:9472   */\n          dup5\n            /* \"#utility.yul\":9426:9493   */\n          tag_224\n          jump\t// in\n        tag_249:\n            /* \"#utility.yul\":9286:9500   */\n          swap3\n          swap2\n          pop\n          pop\n          jump\t// out\n            /* \"#utility.yul\":9587:9686   */\n        tag_178:\n            /* \"#utility.yul\":9639:9645   */\n          0x00\n            /* \"#utility.yul\":9673:9678   */\n          dup2\n            /* \"#utility.yul\":9667:9679   */\n          mload\n            /* \"#utility.yul\":9657:9679   */\n          swap1\n          pop\n            /* \"#utility.yul\":9587:9686   */\n          swap2\n          swap1\n          pop\n          jump\t// out\n            /* \"#utility.yul\":9692:9861   */\n        tag_180:\n            /* \"#utility.yul\":9776:9787   */\n          0x00\n            /* \"#utility.yul\":9810:9816   */\n          dup3\n            /* \"#utility.yul\":9805:9808   */\n          dup3\n            /* \"#utility.yul\":9798:9817   */\n          mstore\n            /* \"#utility.yul\":9850:9854   */\n          0x20\n            /* \"#utility.yul\":9845:9848   */\n          dup3\n            /* \"#utility.yul\":9841:9855   */\n          add\n            /* \"#utility.yul\":9826:9855   */\n          swap1\n          pop\n            /* \"#utility.yul\":9692:9861   */\n          swap3\n          swap2\n          pop\n          pop\n          jump\t// out\n            /* \"#utility.yul\":9867:10172   */\n        tag_88:\n            /* \"#utility.yul\":9907:9910   */\n          0x00\n            /* \"#utility.yul\":9926:9946   */\n          tag_255\n            /* \"#utility.yul\":9944:9945   */\n          dup3\n            /* \"#utility.yul\":9926:9946   */\n          tag_223\n          jump\t// in\n        tag_255:\n            /* \"#utility.yul\":9921:9946   */\n          swap2\n          pop\n            /* \"#utility.yul\":9960:9980   */\n          tag_256\n            /* \"#utility.yul\":9978:9979   */\n          dup4\n            /* \"#utility.yul\":9960:9980   */\n          tag_223\n          jump\t// in\n        tag_256:\n            /* \"#utility.yul\":9955:9980   */\n          swap3\n          pop\n            /* \"#utility.yul\":10114:10115   */\n          dup3\n            /* \"#utility.yul\":10046:10112   */\n          0xffffffffffffffffffffffffffffffffffffffffffffffffffffffffffffffff\n            /* \"#utility.yul\":10042:10116   */\n          sub\n            /* \"#utility.yul\":10039:10040   */\n          dup3\n            /* \"#utility.yul\":10036:10117   */\n          gt\n            /* \"#utility.yul\":10033:10140   */\n          iszero\n          tag_257\n          jumpi\n            /* \"#utility.yul\":10120:10138   */\n          tag_258\n          tag_259\n          jump\t// in\n        tag_258:\n            /* \"#utility.yul\":10033:10140   */\n        tag_257:\n            /* \"#utility.yul\":10164:10165   */\n          dup3\n            /* \"#utility.yul\":10161:10162   */\n          dup3\n            /* \"#utility.yul\":10157:10166   */\n          add\n            /* \"#utility.yul\":10150:10166   */\n          swap1\n          pop\n            /* \"#utility.yul\":9867:10172   */\n          swap3\n          swap2\n          pop\n          pop\n          jump\t// out\n            /* \"#utility.yul\":10178:10274   */\n        tag_260:\n            /* \"#utility.yul\":10215:10222   */\n          0x00\n            /* \"#utility.yul\":10244:10268   */\n          tag_262\n            /* \"#utility.yul\":10262:10267   */\n          dup3\n            /* \"#utility.yul\":10244:10268   */\n          tag_263\n          jump\t// in\n        tag_262:\n            /* \"#utility.yul\":10233:10268   */\n          swap1\n          pop\n            /* \"#utility.yul\":10178:10274   */\n          swap2\n          swap1\n          pop\n          jump\t// out\n            /* \"#utility.yul\":10280:10370   */\n        tag_174:\n            /* \"#utility.yul\":10314:10321   */\n          0x00\n            /* \"#utility.yul\":10357:10362   */\n          dup2\n            /* \"#utility.yul\":10350:10363   */\n          iszero\n            /* \"#utility.yul\":10343:10364   */\n          iszero\n            /* \"#utility.yul\":10332:10364   */\n          swap1\n          pop\n            /* \"#utility.yul\":10280:10370   */\n          swap2\n          swap1\n          pop\n          jump\t// out\n            /* \"#utility.yul\":10376:10502   */\n        tag_263:\n            /* \"#utility.yul\":10413:10420   */\n          0x00\n            /* \"#utility.yul\":10453:10495   */\n          0xffffffffffffffffffffffffffffffffffffffff\n            /* \"#utility.yul\":10446:10451   */\n          dup3\n            /* \"#utility.yul\":10442:10496   */\n          and\n            /* \"#utility.yul\":10431:10496   */\n          swap1\n          pop\n            /* \"#utility.yul\":10376:10502   */\n          swap2\n          swap1\n          pop\n          jump\t// out\n            /* \"#utility.yul\":10508:10585   */\n        tag_223:\n            /* \"#utility.yul\":10545:10552   */\n          0x00\n            /* \"#utility.yul\":10574:10579   */\n          dup2\n            /* \"#utility.yul\":10563:10579   */\n          swap1\n          pop\n            /* \"#utility.yul\":10508:10585   */\n          swap2\n          swap1\n          pop\n          jump\t// out\n            /* \"#utility.yul\":10591:10677   */\n        tag_227:\n            /* \"#utility.yul\":10626:10633   */\n          0x00\n            /* \"#utility.yul\":10666:10670   */\n          0xff\n            /* \"#utility.yul\":10659:10664   */\n          dup3\n            /* \"#utility.yul\":10655:10671   */\n          and\n            /* \"#utility.yul\":10644:10671   */\n          swap1\n          pop\n            /* \"#utility.yul\":10591:10677   */\n          swap2\n          swap1\n          pop\n          jump\t// out\n            /* \"#utility.yul\":10683:10990   */\n        tag_182:\n            /* \"#utility.yul\":10751:10752   */\n          0x00\n            /* \"#utility.yul\":10761:10874   */\n        tag_269:\n            /* \"#utility.yul\":10775:10781   */\n          dup4\n            /* \"#utility.yul\":10772:10773   */\n          dup2\n            /* \"#utility.yul\":10769:10782   */\n          lt\n            /* \"#utility.yul\":10761:10874   */\n          iszero\n          tag_271\n          jumpi\n            /* \"#utility.yul\":10860:10861   */\n          dup1\n            /* \"#utility.yul\":10855:10858   */\n          dup3\n            /* \"#utility.yul\":10851:10862   */\n          add\n            /* \"#utility.yul\":10845:10863   */\n          mload\n            /* \"#utility.yul\":10841:10842   */\n          dup2\n            /* \"#utility.yul\":10836:10839   */\n          dup5\n            /* \"#utility.yul\":10832:10843   */\n          add\n            /* \"#utility.yul\":10825:10864   */\n          mstore\n            /* \"#utility.yul\":10797:10799   */\n          0x20\n            /* \"#utility.yul\":10794:10795   */\n          dup2\n            /* \"#utility.yul\":10790:10800   */\n          add\n            /* \"#utility.yul\":10785:10800   */\n          swap1\n          pop\n            /* \"#utility.yul\":10761:10874   */\n          jump(tag_269)\n        tag_271:\n            /* \"#utility.yul\":10892:10898   */\n          dup4\n            /* \"#utility.yul\":10889:10890   */\n          dup2\n            /* \"#utility.yul\":10886:10899   */\n          gt\n            /* \"#utility.yul\":10883:10984   */\n          iszero\n          tag_272\n          jumpi\n            /* \"#utility.yul\":10972:10973   */\n          0x00\n            /* \"#utility.yul\":10963:10969   */\n          dup5\n            /* \"#utility.yul\":10958:10961   */\n          dup5\n            /* \"#utility.yul\":10954:10970   */\n          add\n            /* \"#utility.yul\":10947:10974   */\n          mstore\n            /* \"#utility.yul\":10883:10984   */\n        tag_272:\n            /* \"#utility.yul\":10732:10990   */\n          pop\n            /* \"#utility.yul\":10683:10990   */\n          pop\n          pop\n          pop\n          jump\t// out\n            /* \"#utility.yul\":10996:11316   */\n        tag_65:\n            /* \"#utility.yul\":11040:11046   */\n          0x00\n            /* \"#utility.yul\":11077:11078   */\n          0x02\n            /* \"#utility.yul\":11071:11075   */\n          dup3\n            /* \"#utility.yul\":11067:11079   */\n          div\n            /* \"#utility.yul\":11057:11079   */\n          swap1\n          pop\n            /* \"#utility.yul\":11124:11125   */\n          0x01\n            /* \"#utility.yul\":11118:11122   */\n          dup3\n            /* \"#utility.yul\":11114:11126   */\n          and\n            /* \"#utility.yul\":11145:11163   */\n          dup1\n            /* \"#utility.yul\":11135:11216   */\n          tag_274\n          jumpi\n            /* \"#utility.yul\":11201:11205   */\n          0x7f\n            /* \"#utility.yul\":11193:11199   */\n          dup3\n            /* \"#utility.yul\":11189:11206   */\n          and\n            /* \"#utility.yul\":11179:11206   */\n          swap2\n          pop\n            /* \"#utility.yul\":11135:11216   */\n        tag_274:\n            /* \"#utility.yul\":11263:11265   */\n          0x20\n            /* \"#utility.yul\":11255:11261   */\n          dup3\n            /* \"#utility.yul\":11252:11266   */\n          lt\n            /* \"#utility.yul\":11232:11250   */\n          dup2\n            /* \"#utility.yul\":11229:11267   */\n          eq\n            /* \"#utility.yul\":11226:11310   */\n          iszero\n          tag_275\n          jumpi\n            /* \"#utility.yul\":11282:11300   */\n          tag_276\n          tag_277\n          jump\t// in\n        tag_276:\n            /* \"#utility.yul\":11226:11310   */\n        tag_275:\n            /* \"#utility.yul\":11047:11316   */\n          pop\n            /* \"#utility.yul\":10996:11316   */\n          swap2\n          swap1\n          pop\n          jump\t// out\n            /* \"#utility.yul\":11322:11502   */\n        tag_259:\n            /* \"#utility.yul\":11370:11447   */\n          0x4e487b7100000000000000000000000000000000000000000000000000000000\n            /* \"#utility.yul\":11367:11368   */\n          0x00\n            /* \"#utility.yul\":11360:11448   */\n          mstore\n            /* \"#utility.yul\":11467:11471   */\n          0x11\n            /* \"#utility.yul\":11464:11465   */\n          0x04\n            /* \"#utility.yul\":11457:11472   */\n          mstore\n            /* \"#utility.yul\":11491:11495   */\n          0x24\n            /* \"#utility.yul\":11488:11489   */\n          0x00\n            /* \"#utility.yul\":11481:11496   */\n          revert\n            /* \"#utility.yul\":11508:11688   */\n        tag_277:\n            /* \"#utility.yul\":11556:11633   */\n          0x4e487b7100000000000000000000000000000000000000000000000000000000\n            /* \"#utility.yul\":11553:11554   */\n          0x00\n            /* \"#utility.yul\":11546:11634   */\n          mstore\n            /* \"#utility.yul\":11653:11657   */\n          0x22\n            /* \"#utility.yul\":11650:11651   */\n          0x04\n            /* \"#utility.yul\":11643:11658   */\n          mstore\n            /* \"#utility.yul\":11677:11681   */\n          0x24\n            /* \"#utility.yul\":11674:11675   */\n          0x00\n            /* \"#utility.yul\":11667:11682   */\n          revert\n            /* \"#utility.yul\":11817:11934   */\n        tag_153:\n            /* \"#utility.yul\":11926:11927   */\n          0x00\n            /* \"#utility.yul\":11923:11924   */\n          dup1\n            /* \"#utility.yul\":11916:11928   */\n          revert\n            /* \"#utility.yul\":11940:12042   */\n        tag_184:\n            /* \"#utility.yul\":11981:11987   */\n          0x00\n            /* \"#utility.yul\":12032:12034   */\n          0x1f\n            /* \"#utility.yul\":12028:12035   */\n          not\n            /* \"#utility.yul\":12023:12025   */\n          0x1f\n            /* \"#utility.yul\":12016:12021   */\n          dup4\n            /* \"#utility.yul\":12012:12026   */\n          add\n            /* \"#utility.yul\":12008:12036   */\n          and\n            /* \"#utility.yul\":11998:12036   */\n          swap1\n          pop\n            /* \"#utility.yul\":11940:12042   */\n          swap2\n          swap1\n          pop\n          jump\t// out\n            /* \"#utility.yul\":12048:12270   */\n        tag_189:\n            /* \"#utility.yul\":12188:12222   */\n          0x45524332303a207472616e7366657220746f20746865207a65726f2061646472\n            /* \"#utility.yul\":12184:12185   */\n          0x00\n            /* \"#utility.yul\":12176:12182   */\n          dup3\n            /* \"#utility.yul\":12172:12186   */\n          add\n            /* \"#utility.yul\":12165:12223   */\n          mstore\n            /* \"#utility.yul\":12257:12262   */\n          0x6573730000000000000000000000000000000000000000000000000000000000\n            /* \"#utility.yul\":12252:12254   */\n          0x20\n            /* \"#utility.yul\":12244:12250   */\n          dup3\n            /* \"#utility.yul\":12240:12255   */\n          add\n            /* \"#utility.yul\":12233:12263   */\n          mstore\n            /* \"#utility.yul\":12048:12270   */\n          pop\n          jump\t// out\n            /* \"#utility.yul\":12276:12497   */\n        tag_194:\n            /* \"#utility.yul\":12416:12450   */\n          0x45524332303a20617070726f766520746f20746865207a65726f206164647265\n            /* \"#utility.yul\":12412:12413   */\n          0x00\n            /* \"#utility.yul\":12404:12410   */\n          dup3\n            /* \"#utility.yul\":12400:12414   */\n          add\n            /* \"#utility.yul\":12393:12451   */\n          mstore\n            /* \"#utility.yul\":12485:12489   */\n          0x7373000000000000000000000000000000000000000000000000000000000000\n            /* \"#utility.yul\":12480:12482   */\n          0x20\n            /* \"#utility.yul\":12472:12478   */\n          dup3\n            /* \"#utility.yul\":12468:12483   */\n          add\n            /* \"#utility.yul\":12461:12490   */\n          mstore\n            /* \"#utility.yul\":12276:12497   */\n          pop\n          jump\t// out\n            /* \"#utility.yul\":12503:12682   */\n        tag_199:\n            /* \"#utility.yul\":12643:12674   */\n          0x45524332303a20696e73756666696369656e7420616c6c6f77616e6365000000\n            /* \"#utility.yul\":12639:12640   */\n          0x00\n            /* \"#utility.yul\":12631:12637   */\n          dup3\n            /* \"#utility.yul\":12627:12641   */\n          add\n            /* \"#utility.yul\":12620:12675   */\n          mstore\n            /* \"#utility.yul\":12503:12682   */\n          pop\n          jump\t// out\n            /* \"#utility.yul\":12688:12913   */\n        tag_204:\n            /* \"#utility.yul\":12828:12862   */\n          0x45524332303a207472616e7366657220616d6f756e7420657863656564732062\n            /* \"#utility.yul\":12824:12825   */\n          0x00\n            /* \"#utility.yul\":12816:12822   */\n          dup3\n            /* \"#utility.yul\":12812:12826   */\n          add\n            /* \"#utility.yul\":12805:12863   */\n          mstore\n            /* \"#utility.yul\":12897:12905   */\n          0x616c616e63650000000000000000000000000000000000000000000000000000\n            /* \"#utility.yul\":12892:12894   */\n          0x20\n            /* \"#utility.yul\":12884:12890   */\n          dup3\n            /* \"#utility.yul\":12880:12895   */\n          add\n            /* \"#utility.yul\":12873:12906   */\n          mstore\n            /* \"#utility.yul\":12688:12913   */\n          pop\n          jump\t// out\n            /* \"#utility.yul\":12919:13143   */\n        tag_209:\n            /* \"#utility.yul\":13059:13093   */\n          0x45524332303a207472616e736665722066726f6d20746865207a65726f206164\n            /* \"#utility.yul\":13055:13056   */\n          0x00\n            /* \"#utility.yul\":13047:13053   */\n          dup3\n            /* \"#utility.yul\":13043:13057   */\n          add\n            /* \"#utility.yul\":13036:13094   */\n          mstore\n            /* \"#utility.yul\":13128:13135   */\n          0x6472657373000000000000000000000000000000000000000000000000000000\n            /* \"#utility.yul\":13123:13125   */\n          0x20\n            /* \"#utility.yul\":13115:13121   */\n          dup3\n            /* \"#utility.yul\":13111:13126   */\n          add\n            /* \"#utility.yul\":13104:13136   */\n          mstore\n            /* \"#utility.yul\":12919:13143   */\n          pop\n          jump\t// out\n            /* \"#utility.yul\":13149:13372   */\n        tag_214:\n            /* \"#utility.yul\":13289:13323   */\n          0x45524332303a20617070726f76652066726f6d20746865207a65726f20616464\n            /* \"#utility.yul\":13285:13286   */\n          0x00\n            /* \"#utility.yul\":13277:13283   */\n          dup3\n            /* \"#utility.yul\":13273:13287   */\n          add\n            /* \"#utility.yul\":13266:13324   */\n          mstore\n            /* \"#utility.yul\":13358:13364   */\n          0x7265737300000000000000000000000000000000000000000000000000000000\n            /* \"#utility.yul\":13353:13355   */\n          0x20\n            /* \"#utility.yul\":13345:13351   */\n          dup3\n            /* \"#utility.yul\":13341:13356   */\n          add\n            /* \"#utility.yul\":13334:13365   */\n          mstore\n            /* \"#utility.yul\":13149:13372   */\n          pop\n          jump\t// out\n            /* \"#utility.yul\":13378:13602   */\n        tag_219:\n            /* \"#utility.yul\":13518:13552   */\n          0x45524332303a2064656372656173656420616c6c6f77616e63652062656c6f77\n            /* \"#utility.yul\":13514:13515   */\n          0x00\n            /* \"#utility.yul\":13506:13512   */\n          dup3\n            /* \"#utility.yul\":13502:13516   */\n          add\n            /* \"#utility.yul\":13495:13553   */\n          mstore\n            /* \"#utility.yul\":13587:13594   */\n          0x207a65726f000000000000000000000000000000000000000000000000000000\n            /* \"#utility.yul\":13582:13584   */\n          0x20\n            /* \"#utility.yul\":13574:13580   */\n          dup3\n            /* \"#utility.yul\":13570:13585   */\n          add\n            /* \"#utility.yul\":13563:13595   */\n          mstore\n            /* \"#utility.yul\":13378:13602   */\n          pop\n          jump\t// out\n            /* \"#utility.yul\":13608:13730   */\n        tag_145:\n            /* \"#utility.yul\":13681:13705   */\n          tag_292\n            /* \"#utility.yul\":13699:13704   */\n          dup2\n            /* \"#utility.yul\":13681:13705   */\n          tag_260\n          jump\t// in\n        tag_292:\n            /* \"#utility.yul\":13674:13679   */\n          dup2\n            /* \"#utility.yul\":13671:13706   */\n          eq\n            /* \"#utility.yul\":13661:13724   */\n          tag_293\n          jumpi\n            /* \"#utility.yul\":13720:13721   */\n          0x00\n            /* \"#utility.yul\":13717:13718   */\n          dup1\n            /* \"#utility.yul\":13710:13722   */\n          revert\n            /* \"#utility.yul\":13661:13724   */\n        tag_293:\n            /* \"#utility.yul\":13608:13730   */\n          pop\n          jump\t// out\n            /* \"#utility.yul\":13736:13858   */\n        tag_149:\n            /* \"#utility.yul\":13809:13833   */\n          tag_295\n            /* \"#utility.yul\":13827:13832   */\n          dup2\n            /* \"#utility.yul\":13809:13833   */\n          tag_223\n          jump\t// in\n        tag_295:\n            /* \"#utility.yul\":13802:13807   */\n          dup2\n            /* \"#utility.yul\":13799:13834   */\n          eq\n            /* \"#utility.yul\":13789:13852   */\n          tag_296\n          jumpi\n            /* \"#utility.yul\":13848:13849   */\n          0x00\n            /* \"#utility.yul\":13845:13846   */\n          dup1\n            /* \"#utility.yul\":13838:13850   */\n          revert\n            /* \"#utility.yul\":13789:13852   */\n        tag_296:\n            /* \"#utility.yul\":13736:13858   */\n          pop\n          jump\t// out\n\n        auxdata: 0xa2646970667358221220aaa1d2bbf6e06249b55bf99e5b7ea9f5c42fd94c4a6fa80860a5dee966b0153564736f6c63430008070033\n    }\n}\n",
				"bytecode": {
					"linkReferences": {},
					"object": "608060405234801561001057600080fd5b5060405161001d906100bf565b604051809103906000f080158015610039573d6000803e3d6000fd5b506000806101000a81548173ffffffffffffffffffffffffffffffffffffffff021916908373ffffffffffffffffffffffffffffffffffffffff16021790555033600160006101000a81548173ffffffffffffffffffffffffffffffffffffffff021916908373ffffffffffffffffffffffffffffffffffffffff1602179055506100cc565b61172c80610e7583390190565b610d9a806100db6000396000f3fe6080604052600436106100555760003560e01c806313ff490f1461005a5780636f120a5d14610076578063722713f71461009f5780638bb3d85b146100ca57806392ebdcd214610107578063daba642214610132575b600080fd5b610074600480360381019061006f919061087a565b61015d565b005b34801561008257600080fd5b5061009d60048036038101906100989190610820565b6102b7565b005b3480156100ab57600080fd5b506100b4610387565b6040516100c19190610aa9565b60405180910390f35b3480156100d657600080fd5b506100f160048036038101906100ec9190610820565b610438565b6040516100fe9190610a87565b60405180910390f35b34801561011357600080fd5b5061011c610574565b6040516101299190610a23565b60405180910390f35b34801561013e57600080fd5b5061014761059a565b6040516101549190610aa9565b60405180910390f35b6000610167610387565b9050808211156101ac576040517f08c379a00000000000000000000000000000000000000000000000000000000081526004016101a390610a67565b60405180910390fd5b60008054906101000a900473ffffffffffffffffffffffffffffffffffffffff1673ffffffffffffffffffffffffffffffffffffffff1663a9059cbb33846040518363ffffffff1660e01b8152600401610207929190610a3e565b602060405180830381600087803b15801561022157600080fd5b505af1158015610235573d6000803e3d6000fd5b505050506040513d601f19601f82011682018060405250810190610259919061084d565b5081600260003373ffffffffffffffffffffffffffffffffffffffff1673ffffffffffffffffffffffffffffffffffffffff16815260200190815260200160002060000160008282546102ac9190610b2a565b925050819055505050565b604051806040016040528060008152602001600067ffffffffffffffff8111156102e4576102e3610c8b565b5b60405190808252806020026020018201604052801561031757816020015b60608152602001906001900390816103025790505b50815250600260008373ffffffffffffffffffffffffffffffffffffffff1673ffffffffffffffffffffffffffffffffffffffff16815260200190815260200160002060008201518160000155602082015181600101908051906020019061038092919061064b565b5090505050565b60008060009054906101000a900473ffffffffffffffffffffffffffffffffffffffff1673ffffffffffffffffffffffffffffffffffffffff166370a08231306040518263ffffffff1660e01b81526004016103e39190610a23565b60206040518083038186803b1580156103fb57600080fd5b505afa15801561040f573d6000803e3d6000fd5b505050506040513d601f19601f8201168201806040525081019061043391906108a7565b905090565b6104406106ab565b600260008373ffffffffffffffffffffffffffffffffffffffff1673ffffffffffffffffffffffffffffffffffffffff1681526020019081526020016000206040518060400160405290816000820154815260200160018201805480602002602001604051908101604052809291908181526020016000905b828210156105655783829060005260206000200180546104d890610bfb565b80601f016020809104026020016040519081016040528092919081815260200182805461050490610bfb565b80156105515780601f1061052657610100808354040283529160200191610551565b820191906000526020600020905b81548152906001019060200180831161053457829003601f168201915b5050505050815260200190600101906104b9565b50505050815250509050919050565b600160009054906101000a900473ffffffffffffffffffffffffffffffffffffffff1681565b60008060009054906101000a900473ffffffffffffffffffffffffffffffffffffffff1673ffffffffffffffffffffffffffffffffffffffff166370a08231336040518263ffffffff1660e01b81526004016105f69190610a23565b60206040518083038186803b15801561060e57600080fd5b505afa158015610622573d6000803e3d6000fd5b505050506040513d601f19601f8201168201806040525081019061064691906108a7565b905090565b82805482825590600052602060002090810192821561069a579160200282015b828111156106995782518290805190602001906106899291906106c5565b509160200191906001019061066b565b5b5090506106a7919061074b565b5090565b604051806040016040528060008152602001606081525090565b8280546106d190610bfb565b90600052602060002090601f0160209004810192826106f3576000855561073a565b82601f1061070c57805160ff191683800117855561073a565b8280016001018555821561073a579182015b8281111561073957825182559160200191906001019061071e565b5b509050610747919061076f565b5090565b5b8082111561076b5760008181610762919061078c565b5060010161074c565b5090565b5b80821115610788576000816000905550600101610770565b5090565b50805461079890610bfb565b6000825580601f106107aa57506107c9565b601f0160209004906000526020600020908101906107c8919061076f565b5b50565b6000813590506107db81610d1f565b92915050565b6000815190506107f081610d36565b92915050565b60008135905061080581610d4d565b92915050565b60008151905061081a81610d4d565b92915050565b60006020828403121561083657610835610cba565b5b6000610844848285016107cc565b91505092915050565b60006020828403121561086357610862610cba565b5b6000610871848285016107e1565b91505092915050565b6000602082840312156108905761088f610cba565b5b600061089e848285016107f6565b91505092915050565b6000602082840312156108bd576108bc610cba565b5b60006108cb8482850161080b565b91505092915050565b60006108e0838361096c565b905092915050565b6108f181610b80565b82525050565b600061090282610ad4565b61090c8185610af7565b93508360208202850161091e85610ac4565b8060005b8581101561095a578484038952815161093b85826108d4565b945061094683610aea565b925060208a01995050600181019050610922565b50829750879550505050505092915050565b600061097782610adf565b6109818185610b08565b9350610991818560208601610bc8565b61099a81610cbf565b840191505092915050565b60006109b2602983610b19565b91506109bd82610cd0565b604082019050919050565b60006040830160008301516109e06000860182610a05565b50602083015184820360208601526109f882826108f7565b9150508091505092915050565b610a0e81610bbe565b82525050565b610a1d81610bbe565b82525050565b6000602082019050610a3860008301846108e8565b92915050565b6000604082019050610a5360008301856108e8565b610a606020830184610a14565b9392505050565b60006020820190508181036000830152610a80816109a5565b9050919050565b60006020820190508181036000830152610aa181846109c8565b905092915050565b6000602082019050610abe6000830184610a14565b92915050565b6000819050602082019050919050565b600081519050919050565b600081519050919050565b6000602082019050919050565b600082825260208201905092915050565b600082825260208201905092915050565b600082825260208201905092915050565b6000610b3582610bbe565b9150610b4083610bbe565b9250827fffffffffffffffffffffffffffffffffffffffffffffffffffffffffffffffff03821115610b7557610b74610c2d565b5b828201905092915050565b6000610b8b82610b9e565b9050919050565b60008115159050919050565b600073ffffffffffffffffffffffffffffffffffffffff82169050919050565b6000819050919050565b60005b83811015610be6578082015181840152602081019050610bcb565b83811115610bf5576000848401525b50505050565b60006002820490506001821680610c1357607f821691505b60208210811415610c2757610c26610c5c565b5b50919050565b7f4e487b7100000000000000000000000000000000000000000000000000000000600052601160045260246000fd5b7f4e487b7100000000000000000000000000000000000000000000000000000000600052602260045260246000fd5b7f4e487b7100000000000000000000000000000000000000000000000000000000600052604160045260246000fd5b600080fd5b6000601f19601f8301169050919050565b7f4e6f2071756564616e2070756e746f7320646973706f6e69626c65732070617260008201527f6120636f6d707261720000000000000000000000000000000000000000000000602082015250565b610d2881610b80565b8114610d3357600080fd5b50565b610d3f81610b92565b8114610d4a57600080fd5b50565b610d5681610bbe565b8114610d6157600080fd5b5056fea26469706673582212201199af61c686c19c4ac123ae82b5dcae20f1b968d6391c8d44045a97df08287664736f6c6343000807003360806040523480156200001157600080fd5b506040518060400160405280601481526020017f50756e746f735265636f6d656e736173436f696e0000000000000000000000008152506040518060400160405280600381526020017f505243000000000000000000000000000000000000000000000000000000000081525081600390805190602001906200009692919062000258565b508060049080519060200190620000af92919062000258565b505050620000cf336a01a784379d99db42000000620000d560201b60201c565b620004b4565b600073ffffffffffffffffffffffffffffffffffffffff168273ffffffffffffffffffffffffffffffffffffffff16141562000148576040517f08c379a00000000000000000000000000000000000000000000000000000000081526004016200013f9062000340565b60405180910390fd5b6200015c600083836200024e60201b60201c565b806002600082825462000170919062000390565b92505081905550806000808473ffffffffffffffffffffffffffffffffffffffff1673ffffffffffffffffffffffffffffffffffffffff1681526020019081526020016000206000828254620001c7919062000390565b925050819055508173ffffffffffffffffffffffffffffffffffffffff16600073ffffffffffffffffffffffffffffffffffffffff167fddf252ad1be2c89b69c2b068fc378daa952ba7f163c4a11628f55a4df523b3ef836040516200022e919062000362565b60405180910390a36200024a600083836200025360201b60201c565b5050565b505050565b505050565b8280546200026690620003f7565b90600052602060002090601f0160209004810192826200028a5760008555620002d6565b82601f10620002a557805160ff1916838001178555620002d6565b82800160010185558215620002d6579182015b82811115620002d5578251825591602001919060010190620002b8565b5b509050620002e59190620002e9565b5090565b5b8082111562000304576000816000905550600101620002ea565b5090565b600062000317601f836200037f565b915062000324826200048b565b602082019050919050565b6200033a81620003ed565b82525050565b600060208201905081810360008301526200035b8162000308565b9050919050565b60006020820190506200037960008301846200032f565b92915050565b600082825260208201905092915050565b60006200039d82620003ed565b9150620003aa83620003ed565b9250827fffffffffffffffffffffffffffffffffffffffffffffffffffffffffffffffff03821115620003e257620003e16200042d565b5b828201905092915050565b6000819050919050565b600060028204905060018216806200041057607f821691505b602082108114156200042757620004266200045c565b5b50919050565b7f4e487b7100000000000000000000000000000000000000000000000000000000600052601160045260246000fd5b7f4e487b7100000000000000000000000000000000000000000000000000000000600052602260045260246000fd5b7f45524332303a206d696e7420746f20746865207a65726f206164647265737300600082015250565b61126880620004c46000396000f3fe608060405234801561001057600080fd5b50600436106100a95760003560e01c80633950935111610071578063395093511461016857806370a082311461019857806395d89b41146101c8578063a457c2d7146101e6578063a9059cbb14610216578063dd62ed3e14610246576100a9565b806306fdde03146100ae578063095ea7b3146100cc57806318160ddd146100fc57806323b872dd1461011a578063313ce5671461014a575b600080fd5b6100b6610276565b6040516100c39190610d29565b60405180910390f35b6100e660048036038101906100e19190610b73565b610308565b6040516100f39190610d0e565b60405180910390f35b61010461032b565b6040516101119190610e2b565b60405180910390f35b610134600480360381019061012f9190610b20565b610335565b6040516101419190610d0e565b60405180910390f35b610152610364565b60405161015f9190610e46565b60405180910390f35b610182600480360381019061017d9190610b73565b61036d565b60405161018f9190610d0e565b60405180910390f35b6101b260048036038101906101ad9190610ab3565b6103a4565b6040516101bf9190610e2b565b60405180910390f35b6101d06103ec565b6040516101dd9190610d29565b60405180910390f35b61020060048036038101906101fb9190610b73565b61047e565b60405161020d9190610d0e565b60405180910390f35b610230600480360381019061022b9190610b73565b6104f5565b60405161023d9190610d0e565b60405180910390f35b610260600480360381019061025b9190610ae0565b610518565b60405161026d9190610e2b565b60405180910390f35b60606003805461028590610f5b565b80601f01602080910402602001604051908101604052809291908181526020018280546102b190610f5b565b80156102fe5780601f106102d3576101008083540402835291602001916102fe565b820191906000526020600020905b8154815290600101906020018083116102e157829003601f168201915b5050505050905090565b60008061031361059f565b90506103208185856105a7565b600191505092915050565b6000600254905090565b60008061034061059f565b905061034d858285610772565b6103588585856107fe565b60019150509392505050565b60006012905090565b60008061037861059f565b905061039981858561038a8589610518565b6103949190610e7d565b6105a7565b600191505092915050565b60008060008373ffffffffffffffffffffffffffffffffffffffff1673ffffffffffffffffffffffffffffffffffffffff168152602001908152602001600020549050919050565b6060600480546103fb90610f5b565b80601f016020809104026020016040519081016040528092919081815260200182805461042790610f5b565b80156104745780601f1061044957610100808354040283529160200191610474565b820191906000526020600020905b81548152906001019060200180831161045757829003601f168201915b5050505050905090565b60008061048961059f565b905060006104978286610518565b9050838110156104dc576040517f08c379a00000000000000000000000000000000000000000000000000000000081526004016104d390610e0b565b60405180910390fd5b6104e982868684036105a7565b60019250505092915050565b60008061050061059f565b905061050d8185856107fe565b600191505092915050565b6000600160008473ffffffffffffffffffffffffffffffffffffffff1673ffffffffffffffffffffffffffffffffffffffff16815260200190815260200160002060008373ffffffffffffffffffffffffffffffffffffffff1673ffffffffffffffffffffffffffffffffffffffff16815260200190815260200160002054905092915050565b600033905090565b600073ffffffffffffffffffffffffffffffffffffffff168373ffffffffffffffffffffffffffffffffffffffff161415610617576040517f08c379a000000000000000000000000000000000000000000000000000000000815260040161060e90610deb565b60405180910390fd5b600073ffffffffffffffffffffffffffffffffffffffff168273ffffffffffffffffffffffffffffffffffffffff161415610687576040517f08c379a000000000000000000000000000000000000000000000000000000000815260040161067e90610d6b565b60405180910390fd5b80600160008573ffffffffffffffffffffffffffffffffffffffff1673ffffffffffffffffffffffffffffffffffffffff16815260200190815260200160002060008473ffffffffffffffffffffffffffffffffffffffff1673ffffffffffffffffffffffffffffffffffffffff168152602001908152602001600020819055508173ffffffffffffffffffffffffffffffffffffffff168373ffffffffffffffffffffffffffffffffffffffff167f8c5be1e5ebec7d5bd14f71427d1e84f3dd0314c0f7b2291e5b200ac8c7c3b925836040516107659190610e2b565b60405180910390a3505050565b600061077e8484610518565b90507fffffffffffffffffffffffffffffffffffffffffffffffffffffffffffffffff81146107f857818110156107ea576040517f08c379a00000000000000000000000000000000000000000000000000000000081526004016107e190610d8b565b60405180910390fd5b6107f784848484036105a7565b5b50505050565b600073ffffffffffffffffffffffffffffffffffffffff168373ffffffffffffffffffffffffffffffffffffffff16141561086e576040517f08c379a000000000000000000000000000000000000000000000000000000000815260040161086590610dcb565b60405180910390fd5b600073ffffffffffffffffffffffffffffffffffffffff168273ffffffffffffffffffffffffffffffffffffffff1614156108de576040517f08c379a00000000000000000000000000000000000000000000000000000000081526004016108d590610d4b565b60405180910390fd5b6108e9838383610a7f565b60008060008573ffffffffffffffffffffffffffffffffffffffff1673ffffffffffffffffffffffffffffffffffffffff1681526020019081526020016000205490508181101561096f576040517f08c379a000000000000000000000000000000000000000000000000000000000815260040161096690610dab565b60405180910390fd5b8181036000808673ffffffffffffffffffffffffffffffffffffffff1673ffffffffffffffffffffffffffffffffffffffff16815260200190815260200160002081905550816000808573ffffffffffffffffffffffffffffffffffffffff1673ffffffffffffffffffffffffffffffffffffffff1681526020019081526020016000206000828254610a029190610e7d565b925050819055508273ffffffffffffffffffffffffffffffffffffffff168473ffffffffffffffffffffffffffffffffffffffff167fddf252ad1be2c89b69c2b068fc378daa952ba7f163c4a11628f55a4df523b3ef84604051610a669190610e2b565b60405180910390a3610a79848484610a84565b50505050565b505050565b505050565b600081359050610a9881611204565b92915050565b600081359050610aad8161121b565b92915050565b600060208284031215610ac957610ac8610feb565b5b6000610ad784828501610a89565b91505092915050565b60008060408385031215610af757610af6610feb565b5b6000610b0585828601610a89565b9250506020610b1685828601610a89565b9150509250929050565b600080600060608486031215610b3957610b38610feb565b5b6000610b4786828701610a89565b9350506020610b5886828701610a89565b9250506040610b6986828701610a9e565b9150509250925092565b60008060408385031215610b8a57610b89610feb565b5b6000610b9885828601610a89565b9250506020610ba985828601610a9e565b9150509250929050565b610bbc81610ee5565b82525050565b6000610bcd82610e61565b610bd78185610e6c565b9350610be7818560208601610f28565b610bf081610ff0565b840191505092915050565b6000610c08602383610e6c565b9150610c1382611001565b604082019050919050565b6000610c2b602283610e6c565b9150610c3682611050565b604082019050919050565b6000610c4e601d83610e6c565b9150610c598261109f565b602082019050919050565b6000610c71602683610e6c565b9150610c7c826110c8565b604082019050919050565b6000610c94602583610e6c565b9150610c9f82611117565b604082019050919050565b6000610cb7602483610e6c565b9150610cc282611166565b604082019050919050565b6000610cda602583610e6c565b9150610ce5826111b5565b604082019050919050565b610cf981610f11565b82525050565b610d0881610f1b565b82525050565b6000602082019050610d236000830184610bb3565b92915050565b60006020820190508181036000830152610d438184610bc2565b905092915050565b60006020820190508181036000830152610d6481610bfb565b9050919050565b60006020820190508181036000830152610d8481610c1e565b9050919050565b60006020820190508181036000830152610da481610c41565b9050919050565b60006020820190508181036000830152610dc481610c64565b9050919050565b60006020820190508181036000830152610de481610c87565b9050919050565b60006020820190508181036000830152610e0481610caa565b9050919050565b60006020820190508181036000830152610e2481610ccd565b9050919050565b6000602082019050610e406000830184610cf0565b92915050565b6000602082019050610e5b6000830184610cff565b92915050565b600081519050919050565b600082825260208201905092915050565b6000610e8882610f11565b9150610e9383610f11565b9250827fffffffffffffffffffffffffffffffffffffffffffffffffffffffffffffffff03821115610ec857610ec7610f8d565b5b828201905092915050565b6000610ede82610ef1565b9050919050565b60008115159050919050565b600073ffffffffffffffffffffffffffffffffffffffff82169050919050565b6000819050919050565b600060ff82169050919050565b60005b83811015610f46578082015181840152602081019050610f2b565b83811115610f55576000848401525b50505050565b60006002820490506001821680610f7357607f821691505b60208210811415610f8757610f86610fbc565b5b50919050565b7f4e487b7100000000000000000000000000000000000000000000000000000000600052601160045260246000fd5b7f4e487b7100000000000000000000000000000000000000000000000000000000600052602260045260246000fd5b600080fd5b6000601f19601f8301169050919050565b7f45524332303a207472616e7366657220746f20746865207a65726f206164647260008201527f6573730000000000000000000000000000000000000000000000000000000000602082015250565b7f45524332303a20617070726f766520746f20746865207a65726f20616464726560008201527f7373000000000000000000000000000000000000000000000000000000000000602082015250565b7f45524332303a20696e73756666696369656e7420616c6c6f77616e6365000000600082015250565b7f45524332303a207472616e7366657220616d6f756e742065786365656473206260008201527f616c616e63650000000000000000000000000000000000000000000000000000602082015250565b7f45524332303a207472616e736665722066726f6d20746865207a65726f20616460008201527f6472657373000000000000000000000000000000000000000000000000000000602082015250565b7f45524332303a20617070726f76652066726f6d20746865207a65726f2061646460008201527f7265737300000000000000000000000000000000000000000000000000000000602082015250565b7f45524332303a2064656372656173656420616c6c6f77616e63652062656c6f7760008201527f207a65726f000000000000000000000000000000000000000000000000000000602082015250565b61120d81610ed3565b811461121857600080fd5b50565b61122481610f11565b811461122f57600080fd5b5056fea2646970667358221220aaa1d2bbf6e06249b55bf99e5b7ea9f5c42fd94c4a6fa80860a5dee966b0153564736f6c63430008070033",
					"opcodes": "PUSH1 0x80 PUSH1 0x40 MSTORE CALLVALUE DUP1 ISZERO PUSH2 0x10 JUMPI PUSH1 0x0 DUP1 REVERT JUMPDEST POP PUSH1 0x40 MLOAD PUSH2 0x1D SWAP1 PUSH2 0xBF JUMP JUMPDEST PUSH1 0x40 MLOAD DUP1 SWAP2 SUB SWAP1 PUSH1 0x0 CREATE DUP1 ISZERO DUP1 ISZERO PUSH2 0x39 JUMPI RETURNDATASIZE PUSH1 0x0 DUP1 RETURNDATACOPY RETURNDATASIZE PUSH1 0x0 REVERT JUMPDEST POP PUSH1 0x0 DUP1 PUSH2 0x100 EXP DUP2 SLOAD DUP2 PUSH20 0xFFFFFFFFFFFFFFFFFFFFFFFFFFFFFFFFFFFFFFFF MUL NOT AND SWAP1 DUP4 PUSH20 0xFFFFFFFFFFFFFFFFFFFFFFFFFFFFFFFFFFFFFFFF AND MUL OR SWAP1 SSTORE POP CALLER PUSH1 0x1 PUSH1 0x0 PUSH2 0x100 EXP DUP2 SLOAD DUP2 PUSH20 0xFFFFFFFFFFFFFFFFFFFFFFFFFFFFFFFFFFFFFFFF MUL NOT AND SWAP1 DUP4 PUSH20 0xFFFFFFFFFFFFFFFFFFFFFFFFFFFFFFFFFFFFFFFF AND MUL OR SWAP1 SSTORE POP PUSH2 0xCC JUMP JUMPDEST PUSH2 0x172C DUP1 PUSH2 0xE75 DUP4 CODECOPY ADD SWAP1 JUMP JUMPDEST PUSH2 0xD9A DUP1 PUSH2 0xDB PUSH1 0x0 CODECOPY PUSH1 0x0 RETURN INVALID PUSH1 0x80 PUSH1 0x40 MSTORE PUSH1 0x4 CALLDATASIZE LT PUSH2 0x55 JUMPI PUSH1 0x0 CALLDATALOAD PUSH1 0xE0 SHR DUP1 PUSH4 0x13FF490F EQ PUSH2 0x5A JUMPI DUP1 PUSH4 0x6F120A5D EQ PUSH2 0x76 JUMPI DUP1 PUSH4 0x722713F7 EQ PUSH2 0x9F JUMPI DUP1 PUSH4 0x8BB3D85B EQ PUSH2 0xCA JUMPI DUP1 PUSH4 0x92EBDCD2 EQ PUSH2 0x107 JUMPI DUP1 PUSH4 0xDABA6422 EQ PUSH2 0x132 JUMPI JUMPDEST PUSH1 0x0 DUP1 REVERT JUMPDEST PUSH2 0x74 PUSH1 0x4 DUP1 CALLDATASIZE SUB DUP2 ADD SWAP1 PUSH2 0x6F SWAP2 SWAP1 PUSH2 0x87A JUMP JUMPDEST PUSH2 0x15D JUMP JUMPDEST STOP JUMPDEST CALLVALUE DUP1 ISZERO PUSH2 0x82 JUMPI PUSH1 0x0 DUP1 REVERT JUMPDEST POP PUSH2 0x9D PUSH1 0x4 DUP1 CALLDATASIZE SUB DUP2 ADD SWAP1 PUSH2 0x98 SWAP2 SWAP1 PUSH2 0x820 JUMP JUMPDEST PUSH2 0x2B7 JUMP JUMPDEST STOP JUMPDEST CALLVALUE DUP1 ISZERO PUSH2 0xAB JUMPI PUSH1 0x0 DUP1 REVERT JUMPDEST POP PUSH2 0xB4 PUSH2 0x387 JUMP JUMPDEST PUSH1 0x40 MLOAD PUSH2 0xC1 SWAP2 SWAP1 PUSH2 0xAA9 JUMP JUMPDEST PUSH1 0x40 MLOAD DUP1 SWAP2 SUB SWAP1 RETURN JUMPDEST CALLVALUE DUP1 ISZERO PUSH2 0xD6 JUMPI PUSH1 0x0 DUP1 REVERT JUMPDEST POP PUSH2 0xF1 PUSH1 0x4 DUP1 CALLDATASIZE SUB DUP2 ADD SWAP1 PUSH2 0xEC SWAP2 SWAP1 PUSH2 0x820 JUMP JUMPDEST PUSH2 0x438 JUMP JUMPDEST PUSH1 0x40 MLOAD PUSH2 0xFE SWAP2 SWAP1 PUSH2 0xA87 JUMP JUMPDEST PUSH1 0x40 MLOAD DUP1 SWAP2 SUB SWAP1 RETURN JUMPDEST CALLVALUE DUP1 ISZERO PUSH2 0x113 JUMPI PUSH1 0x0 DUP1 REVERT JUMPDEST POP PUSH2 0x11C PUSH2 0x574 JUMP JUMPDEST PUSH1 0x40 MLOAD PUSH2 0x129 SWAP2 SWAP1 PUSH2 0xA23 JUMP JUMPDEST PUSH1 0x40 MLOAD DUP1 SWAP2 SUB SWAP1 RETURN JUMPDEST CALLVALUE DUP1 ISZERO PUSH2 0x13E JUMPI PUSH1 0x0 DUP1 REVERT JUMPDEST POP PUSH2 0x147 PUSH2 0x59A JUMP JUMPDEST PUSH1 0x40 MLOAD PUSH2 0x154 SWAP2 SWAP1 PUSH2 0xAA9 JUMP JUMPDEST PUSH1 0x40 MLOAD DUP1 SWAP2 SUB SWAP1 RETURN JUMPDEST PUSH1 0x0 PUSH2 0x167 PUSH2 0x387 JUMP JUMPDEST SWAP1 POP DUP1 DUP3 GT ISZERO PUSH2 0x1AC JUMPI PUSH1 0x40 MLOAD PUSH32 0x8C379A000000000000000000000000000000000000000000000000000000000 DUP2 MSTORE PUSH1 0x4 ADD PUSH2 0x1A3 SWAP1 PUSH2 0xA67 JUMP JUMPDEST PUSH1 0x40 MLOAD DUP1 SWAP2 SUB SWAP1 REVERT JUMPDEST PUSH1 0x0 DUP1 SLOAD SWAP1 PUSH2 0x100 EXP SWAP1 DIV PUSH20 0xFFFFFFFFFFFFFFFFFFFFFFFFFFFFFFFFFFFFFFFF AND PUSH20 0xFFFFFFFFFFFFFFFFFFFFFFFFFFFFFFFFFFFFFFFF AND PUSH4 0xA9059CBB CALLER DUP5 PUSH1 0x40 MLOAD DUP4 PUSH4 0xFFFFFFFF AND PUSH1 0xE0 SHL DUP2 MSTORE PUSH1 0x4 ADD PUSH2 0x207 SWAP3 SWAP2 SWAP1 PUSH2 0xA3E JUMP JUMPDEST PUSH1 0x20 PUSH1 0x40 MLOAD DUP1 DUP4 SUB DUP2 PUSH1 0x0 DUP8 DUP1 EXTCODESIZE ISZERO DUP1 ISZERO PUSH2 0x221 JUMPI PUSH1 0x0 DUP1 REVERT JUMPDEST POP GAS CALL ISZERO DUP1 ISZERO PUSH2 0x235 JUMPI RETURNDATASIZE PUSH1 0x0 DUP1 RETURNDATACOPY RETURNDATASIZE PUSH1 0x0 REVERT JUMPDEST POP POP POP POP PUSH1 0x40 MLOAD RETURNDATASIZE PUSH1 0x1F NOT PUSH1 0x1F DUP3 ADD AND DUP3 ADD DUP1 PUSH1 0x40 MSTORE POP DUP2 ADD SWAP1 PUSH2 0x259 SWAP2 SWAP1 PUSH2 0x84D JUMP JUMPDEST POP DUP2 PUSH1 0x2 PUSH1 0x0 CALLER PUSH20 0xFFFFFFFFFFFFFFFFFFFFFFFFFFFFFFFFFFFFFFFF AND PUSH20 0xFFFFFFFFFFFFFFFFFFFFFFFFFFFFFFFFFFFFFFFF AND DUP2 MSTORE PUSH1 0x20 ADD SWAP1 DUP2 MSTORE PUSH1 0x20 ADD PUSH1 0x0 KECCAK256 PUSH1 0x0 ADD PUSH1 0x0 DUP3 DUP3 SLOAD PUSH2 0x2AC SWAP2 SWAP1 PUSH2 0xB2A JUMP JUMPDEST SWAP3 POP POP DUP2 SWAP1 SSTORE POP POP POP JUMP JUMPDEST PUSH1 0x40 MLOAD DUP1 PUSH1 0x40 ADD PUSH1 0x40 MSTORE DUP1 PUSH1 0x0 DUP2 MSTORE PUSH1 0x20 ADD PUSH1 0x0 PUSH8 0xFFFFFFFFFFFFFFFF DUP2 GT ISZERO PUSH2 0x2E4 JUMPI PUSH2 0x2E3 PUSH2 0xC8B JUMP JUMPDEST JUMPDEST PUSH1 0x40 MLOAD SWAP1 DUP1 DUP3 MSTORE DUP1 PUSH1 0x20 MUL PUSH1 0x20 ADD DUP3 ADD PUSH1 0x40 MSTORE DUP1 ISZERO PUSH2 0x317 JUMPI DUP2 PUSH1 0x20 ADD JUMPDEST PUSH1 0x60 DUP2 MSTORE PUSH1 0x20 ADD SWAP1 PUSH1 0x1 SWAP1 SUB SWAP1 DUP2 PUSH2 0x302 JUMPI SWAP1 POP JUMPDEST POP DUP2 MSTORE POP PUSH1 0x2 PUSH1 0x0 DUP4 PUSH20 0xFFFFFFFFFFFFFFFFFFFFFFFFFFFFFFFFFFFFFFFF AND PUSH20 0xFFFFFFFFFFFFFFFFFFFFFFFFFFFFFFFFFFFFFFFF AND DUP2 MSTORE PUSH1 0x20 ADD SWAP1 DUP2 MSTORE PUSH1 0x20 ADD PUSH1 0x0 KECCAK256 PUSH1 0x0 DUP3 ADD MLOAD DUP2 PUSH1 0x0 ADD SSTORE PUSH1 0x20 DUP3 ADD MLOAD DUP2 PUSH1 0x1 ADD SWAP1 DUP1 MLOAD SWAP1 PUSH1 0x20 ADD SWAP1 PUSH2 0x380 SWAP3 SWAP2 SWAP1 PUSH2 0x64B JUMP JUMPDEST POP SWAP1 POP POP POP JUMP JUMPDEST PUSH1 0x0 DUP1 PUSH1 0x0 SWAP1 SLOAD SWAP1 PUSH2 0x100 EXP SWAP1 DIV PUSH20 0xFFFFFFFFFFFFFFFFFFFFFFFFFFFFFFFFFFFFFFFF AND PUSH20 0xFFFFFFFFFFFFFFFFFFFFFFFFFFFFFFFFFFFFFFFF AND PUSH4 0x70A08231 ADDRESS PUSH1 0x40 MLOAD DUP3 PUSH4 0xFFFFFFFF AND PUSH1 0xE0 SHL DUP2 MSTORE PUSH1 0x4 ADD PUSH2 0x3E3 SWAP2 SWAP1 PUSH2 0xA23 JUMP JUMPDEST PUSH1 0x20 PUSH1 0x40 MLOAD DUP1 DUP4 SUB DUP2 DUP7 DUP1 EXTCODESIZE ISZERO DUP1 ISZERO PUSH2 0x3FB JUMPI PUSH1 0x0 DUP1 REVERT JUMPDEST POP GAS STATICCALL ISZERO DUP1 ISZERO PUSH2 0x40F JUMPI RETURNDATASIZE PUSH1 0x0 DUP1 RETURNDATACOPY RETURNDATASIZE PUSH1 0x0 REVERT JUMPDEST POP POP POP POP PUSH1 0x40 MLOAD RETURNDATASIZE PUSH1 0x1F NOT PUSH1 0x1F DUP3 ADD AND DUP3 ADD DUP1 PUSH1 0x40 MSTORE POP DUP2 ADD SWAP1 PUSH2 0x433 SWAP2 SWAP1 PUSH2 0x8A7 JUMP JUMPDEST SWAP1 POP SWAP1 JUMP JUMPDEST PUSH2 0x440 PUSH2 0x6AB JUMP JUMPDEST PUSH1 0x2 PUSH1 0x0 DUP4 PUSH20 0xFFFFFFFFFFFFFFFFFFFFFFFFFFFFFFFFFFFFFFFF AND PUSH20 0xFFFFFFFFFFFFFFFFFFFFFFFFFFFFFFFFFFFFFFFF AND DUP2 MSTORE PUSH1 0x20 ADD SWAP1 DUP2 MSTORE PUSH1 0x20 ADD PUSH1 0x0 KECCAK256 PUSH1 0x40 MLOAD DUP1 PUSH1 0x40 ADD PUSH1 0x40 MSTORE SWAP1 DUP2 PUSH1 0x0 DUP3 ADD SLOAD DUP2 MSTORE PUSH1 0x20 ADD PUSH1 0x1 DUP3 ADD DUP1 SLOAD DUP1 PUSH1 0x20 MUL PUSH1 0x20 ADD PUSH1 0x40 MLOAD SWAP1 DUP2 ADD PUSH1 0x40 MSTORE DUP1 SWAP3 SWAP2 SWAP1 DUP2 DUP2 MSTORE PUSH1 0x20 ADD PUSH1 0x0 SWAP1 JUMPDEST DUP3 DUP3 LT ISZERO PUSH2 0x565 JUMPI DUP4 DUP3 SWAP1 PUSH1 0x0 MSTORE PUSH1 0x20 PUSH1 0x0 KECCAK256 ADD DUP1 SLOAD PUSH2 0x4D8 SWAP1 PUSH2 0xBFB JUMP JUMPDEST DUP1 PUSH1 0x1F ADD PUSH1 0x20 DUP1 SWAP2 DIV MUL PUSH1 0x20 ADD PUSH1 0x40 MLOAD SWAP1 DUP2 ADD PUSH1 0x40 MSTORE DUP1 SWAP3 SWAP2 SWAP1 DUP2 DUP2 MSTORE PUSH1 0x20 ADD DUP3 DUP1 SLOAD PUSH2 0x504 SWAP1 PUSH2 0xBFB JUMP JUMPDEST DUP1 ISZERO PUSH2 0x551 JUMPI DUP1 PUSH1 0x1F LT PUSH2 0x526 JUMPI PUSH2 0x100 DUP1 DUP4 SLOAD DIV MUL DUP4 MSTORE SWAP2 PUSH1 0x20 ADD SWAP2 PUSH2 0x551 JUMP JUMPDEST DUP3 ADD SWAP2 SWAP1 PUSH1 0x0 MSTORE PUSH1 0x20 PUSH1 0x0 KECCAK256 SWAP1 JUMPDEST DUP2 SLOAD DUP2 MSTORE SWAP1 PUSH1 0x1 ADD SWAP1 PUSH1 0x20 ADD DUP1 DUP4 GT PUSH2 0x534 JUMPI DUP3 SWAP1 SUB PUSH1 0x1F AND DUP3 ADD SWAP2 JUMPDEST POP POP POP POP POP DUP2 MSTORE PUSH1 0x20 ADD SWAP1 PUSH1 0x1 ADD SWAP1 PUSH2 0x4B9 JUMP JUMPDEST POP POP POP POP DUP2 MSTORE POP POP SWAP1 POP SWAP2 SWAP1 POP JUMP JUMPDEST PUSH1 0x1 PUSH1 0x0 SWAP1 SLOAD SWAP1 PUSH2 0x100 EXP SWAP1 DIV PUSH20 0xFFFFFFFFFFFFFFFFFFFFFFFFFFFFFFFFFFFFFFFF AND DUP2 JUMP JUMPDEST PUSH1 0x0 DUP1 PUSH1 0x0 SWAP1 SLOAD SWAP1 PUSH2 0x100 EXP SWAP1 DIV PUSH20 0xFFFFFFFFFFFFFFFFFFFFFFFFFFFFFFFFFFFFFFFF AND PUSH20 0xFFFFFFFFFFFFFFFFFFFFFFFFFFFFFFFFFFFFFFFF AND PUSH4 0x70A08231 CALLER PUSH1 0x40 MLOAD DUP3 PUSH4 0xFFFFFFFF AND PUSH1 0xE0 SHL DUP2 MSTORE PUSH1 0x4 ADD PUSH2 0x5F6 SWAP2 SWAP1 PUSH2 0xA23 JUMP JUMPDEST PUSH1 0x20 PUSH1 0x40 MLOAD DUP1 DUP4 SUB DUP2 DUP7 DUP1 EXTCODESIZE ISZERO DUP1 ISZERO PUSH2 0x60E JUMPI PUSH1 0x0 DUP1 REVERT JUMPDEST POP GAS STATICCALL ISZERO DUP1 ISZERO PUSH2 0x622 JUMPI RETURNDATASIZE PUSH1 0x0 DUP1 RETURNDATACOPY RETURNDATASIZE PUSH1 0x0 REVERT JUMPDEST POP POP POP POP PUSH1 0x40 MLOAD RETURNDATASIZE PUSH1 0x1F NOT PUSH1 0x1F DUP3 ADD AND DUP3 ADD DUP1 PUSH1 0x40 MSTORE POP DUP2 ADD SWAP1 PUSH2 0x646 SWAP2 SWAP1 PUSH2 0x8A7 JUMP JUMPDEST SWAP1 POP SWAP1 JUMP JUMPDEST DUP3 DUP1 SLOAD DUP3 DUP3 SSTORE SWAP1 PUSH1 0x0 MSTORE PUSH1 0x20 PUSH1 0x0 KECCAK256 SWAP1 DUP2 ADD SWAP3 DUP3 ISZERO PUSH2 0x69A JUMPI SWAP2 PUSH1 0x20 MUL DUP3 ADD JUMPDEST DUP3 DUP2 GT ISZERO PUSH2 0x699 JUMPI DUP3 MLOAD DUP3 SWAP1 DUP1 MLOAD SWAP1 PUSH1 0x20 ADD SWAP1 PUSH2 0x689 SWAP3 SWAP2 SWAP1 PUSH2 0x6C5 JUMP JUMPDEST POP SWAP2 PUSH1 0x20 ADD SWAP2 SWAP1 PUSH1 0x1 ADD SWAP1 PUSH2 0x66B JUMP JUMPDEST JUMPDEST POP SWAP1 POP PUSH2 0x6A7 SWAP2 SWAP1 PUSH2 0x74B JUMP JUMPDEST POP SWAP1 JUMP JUMPDEST PUSH1 0x40 MLOAD DUP1 PUSH1 0x40 ADD PUSH1 0x40 MSTORE DUP1 PUSH1 0x0 DUP2 MSTORE PUSH1 0x20 ADD PUSH1 0x60 DUP2 MSTORE POP SWAP1 JUMP JUMPDEST DUP3 DUP1 SLOAD PUSH2 0x6D1 SWAP1 PUSH2 0xBFB JUMP JUMPDEST SWAP1 PUSH1 0x0 MSTORE PUSH1 0x20 PUSH1 0x0 KECCAK256 SWAP1 PUSH1 0x1F ADD PUSH1 0x20 SWAP1 DIV DUP2 ADD SWAP3 DUP3 PUSH2 0x6F3 JUMPI PUSH1 0x0 DUP6 SSTORE PUSH2 0x73A JUMP JUMPDEST DUP3 PUSH1 0x1F LT PUSH2 0x70C JUMPI DUP1 MLOAD PUSH1 0xFF NOT AND DUP4 DUP1 ADD OR DUP6 SSTORE PUSH2 0x73A JUMP JUMPDEST DUP3 DUP1 ADD PUSH1 0x1 ADD DUP6 SSTORE DUP3 ISZERO PUSH2 0x73A JUMPI SWAP2 DUP3 ADD JUMPDEST DUP3 DUP2 GT ISZERO PUSH2 0x739 JUMPI DUP3 MLOAD DUP3 SSTORE SWAP2 PUSH1 0x20 ADD SWAP2 SWAP1 PUSH1 0x1 ADD SWAP1 PUSH2 0x71E JUMP JUMPDEST JUMPDEST POP SWAP1 POP PUSH2 0x747 SWAP2 SWAP1 PUSH2 0x76F JUMP JUMPDEST POP SWAP1 JUMP JUMPDEST JUMPDEST DUP1 DUP3 GT ISZERO PUSH2 0x76B JUMPI PUSH1 0x0 DUP2 DUP2 PUSH2 0x762 SWAP2 SWAP1 PUSH2 0x78C JUMP JUMPDEST POP PUSH1 0x1 ADD PUSH2 0x74C JUMP JUMPDEST POP SWAP1 JUMP JUMPDEST JUMPDEST DUP1 DUP3 GT ISZERO PUSH2 0x788 JUMPI PUSH1 0x0 DUP2 PUSH1 0x0 SWAP1 SSTORE POP PUSH1 0x1 ADD PUSH2 0x770 JUMP JUMPDEST POP SWAP1 JUMP JUMPDEST POP DUP1 SLOAD PUSH2 0x798 SWAP1 PUSH2 0xBFB JUMP JUMPDEST PUSH1 0x0 DUP3 SSTORE DUP1 PUSH1 0x1F LT PUSH2 0x7AA JUMPI POP PUSH2 0x7C9 JUMP JUMPDEST PUSH1 0x1F ADD PUSH1 0x20 SWAP1 DIV SWAP1 PUSH1 0x0 MSTORE PUSH1 0x20 PUSH1 0x0 KECCAK256 SWAP1 DUP2 ADD SWAP1 PUSH2 0x7C8 SWAP2 SWAP1 PUSH2 0x76F JUMP JUMPDEST JUMPDEST POP JUMP JUMPDEST PUSH1 0x0 DUP2 CALLDATALOAD SWAP1 POP PUSH2 0x7DB DUP2 PUSH2 0xD1F JUMP JUMPDEST SWAP3 SWAP2 POP POP JUMP JUMPDEST PUSH1 0x0 DUP2 MLOAD SWAP1 POP PUSH2 0x7F0 DUP2 PUSH2 0xD36 JUMP JUMPDEST SWAP3 SWAP2 POP POP JUMP JUMPDEST PUSH1 0x0 DUP2 CALLDATALOAD SWAP1 POP PUSH2 0x805 DUP2 PUSH2 0xD4D JUMP JUMPDEST SWAP3 SWAP2 POP POP JUMP JUMPDEST PUSH1 0x0 DUP2 MLOAD SWAP1 POP PUSH2 0x81A DUP2 PUSH2 0xD4D JUMP JUMPDEST SWAP3 SWAP2 POP POP JUMP JUMPDEST PUSH1 0x0 PUSH1 0x20 DUP3 DUP5 SUB SLT ISZERO PUSH2 0x836 JUMPI PUSH2 0x835 PUSH2 0xCBA JUMP JUMPDEST JUMPDEST PUSH1 0x0 PUSH2 0x844 DUP5 DUP3 DUP6 ADD PUSH2 0x7CC JUMP JUMPDEST SWAP2 POP POP SWAP3 SWAP2 POP POP JUMP JUMPDEST PUSH1 0x0 PUSH1 0x20 DUP3 DUP5 SUB SLT ISZERO PUSH2 0x863 JUMPI PUSH2 0x862 PUSH2 0xCBA JUMP JUMPDEST JUMPDEST PUSH1 0x0 PUSH2 0x871 DUP5 DUP3 DUP6 ADD PUSH2 0x7E1 JUMP JUMPDEST SWAP2 POP POP SWAP3 SWAP2 POP POP JUMP JUMPDEST PUSH1 0x0 PUSH1 0x20 DUP3 DUP5 SUB SLT ISZERO PUSH2 0x890 JUMPI PUSH2 0x88F PUSH2 0xCBA JUMP JUMPDEST JUMPDEST PUSH1 0x0 PUSH2 0x89E DUP5 DUP3 DUP6 ADD PUSH2 0x7F6 JUMP JUMPDEST SWAP2 POP POP SWAP3 SWAP2 POP POP JUMP JUMPDEST PUSH1 0x0 PUSH1 0x20 DUP3 DUP5 SUB SLT ISZERO PUSH2 0x8BD JUMPI PUSH2 0x8BC PUSH2 0xCBA JUMP JUMPDEST JUMPDEST PUSH1 0x0 PUSH2 0x8CB DUP5 DUP3 DUP6 ADD PUSH2 0x80B JUMP JUMPDEST SWAP2 POP POP SWAP3 SWAP2 POP POP JUMP JUMPDEST PUSH1 0x0 PUSH2 0x8E0 DUP4 DUP4 PUSH2 0x96C JUMP JUMPDEST SWAP1 POP SWAP3 SWAP2 POP POP JUMP JUMPDEST PUSH2 0x8F1 DUP2 PUSH2 0xB80 JUMP JUMPDEST DUP3 MSTORE POP POP JUMP JUMPDEST PUSH1 0x0 PUSH2 0x902 DUP3 PUSH2 0xAD4 JUMP JUMPDEST PUSH2 0x90C DUP2 DUP6 PUSH2 0xAF7 JUMP JUMPDEST SWAP4 POP DUP4 PUSH1 0x20 DUP3 MUL DUP6 ADD PUSH2 0x91E DUP6 PUSH2 0xAC4 JUMP JUMPDEST DUP1 PUSH1 0x0 JUMPDEST DUP6 DUP2 LT ISZERO PUSH2 0x95A JUMPI DUP5 DUP5 SUB DUP10 MSTORE DUP2 MLOAD PUSH2 0x93B DUP6 DUP3 PUSH2 0x8D4 JUMP JUMPDEST SWAP5 POP PUSH2 0x946 DUP4 PUSH2 0xAEA JUMP JUMPDEST SWAP3 POP PUSH1 0x20 DUP11 ADD SWAP10 POP POP PUSH1 0x1 DUP2 ADD SWAP1 POP PUSH2 0x922 JUMP JUMPDEST POP DUP3 SWAP8 POP DUP8 SWAP6 POP POP POP POP POP POP SWAP3 SWAP2 POP POP JUMP JUMPDEST PUSH1 0x0 PUSH2 0x977 DUP3 PUSH2 0xADF JUMP JUMPDEST PUSH2 0x981 DUP2 DUP6 PUSH2 0xB08 JUMP JUMPDEST SWAP4 POP PUSH2 0x991 DUP2 DUP6 PUSH1 0x20 DUP7 ADD PUSH2 0xBC8 JUMP JUMPDEST PUSH2 0x99A DUP2 PUSH2 0xCBF JUMP JUMPDEST DUP5 ADD SWAP2 POP POP SWAP3 SWAP2 POP POP JUMP JUMPDEST PUSH1 0x0 PUSH2 0x9B2 PUSH1 0x29 DUP4 PUSH2 0xB19 JUMP JUMPDEST SWAP2 POP PUSH2 0x9BD DUP3 PUSH2 0xCD0 JUMP JUMPDEST PUSH1 0x40 DUP3 ADD SWAP1 POP SWAP2 SWAP1 POP JUMP JUMPDEST PUSH1 0x0 PUSH1 0x40 DUP4 ADD PUSH1 0x0 DUP4 ADD MLOAD PUSH2 0x9E0 PUSH1 0x0 DUP7 ADD DUP3 PUSH2 0xA05 JUMP JUMPDEST POP PUSH1 0x20 DUP4 ADD MLOAD DUP5 DUP3 SUB PUSH1 0x20 DUP7 ADD MSTORE PUSH2 0x9F8 DUP3 DUP3 PUSH2 0x8F7 JUMP JUMPDEST SWAP2 POP POP DUP1 SWAP2 POP POP SWAP3 SWAP2 POP POP JUMP JUMPDEST PUSH2 0xA0E DUP2 PUSH2 0xBBE JUMP JUMPDEST DUP3 MSTORE POP POP JUMP JUMPDEST PUSH2 0xA1D DUP2 PUSH2 0xBBE JUMP JUMPDEST DUP3 MSTORE POP POP JUMP JUMPDEST PUSH1 0x0 PUSH1 0x20 DUP3 ADD SWAP1 POP PUSH2 0xA38 PUSH1 0x0 DUP4 ADD DUP5 PUSH2 0x8E8 JUMP JUMPDEST SWAP3 SWAP2 POP POP JUMP JUMPDEST PUSH1 0x0 PUSH1 0x40 DUP3 ADD SWAP1 POP PUSH2 0xA53 PUSH1 0x0 DUP4 ADD DUP6 PUSH2 0x8E8 JUMP JUMPDEST PUSH2 0xA60 PUSH1 0x20 DUP4 ADD DUP5 PUSH2 0xA14 JUMP JUMPDEST SWAP4 SWAP3 POP POP POP JUMP JUMPDEST PUSH1 0x0 PUSH1 0x20 DUP3 ADD SWAP1 POP DUP2 DUP2 SUB PUSH1 0x0 DUP4 ADD MSTORE PUSH2 0xA80 DUP2 PUSH2 0x9A5 JUMP JUMPDEST SWAP1 POP SWAP2 SWAP1 POP JUMP JUMPDEST PUSH1 0x0 PUSH1 0x20 DUP3 ADD SWAP1 POP DUP2 DUP2 SUB PUSH1 0x0 DUP4 ADD MSTORE PUSH2 0xAA1 DUP2 DUP5 PUSH2 0x9C8 JUMP JUMPDEST SWAP1 POP SWAP3 SWAP2 POP POP JUMP JUMPDEST PUSH1 0x0 PUSH1 0x20 DUP3 ADD SWAP1 POP PUSH2 0xABE PUSH1 0x0 DUP4 ADD DUP5 PUSH2 0xA14 JUMP JUMPDEST SWAP3 SWAP2 POP POP JUMP JUMPDEST PUSH1 0x0 DUP2 SWAP1 POP PUSH1 0x20 DUP3 ADD SWAP1 POP SWAP2 SWAP1 POP JUMP JUMPDEST PUSH1 0x0 DUP2 MLOAD SWAP1 POP SWAP2 SWAP1 POP JUMP JUMPDEST PUSH1 0x0 DUP2 MLOAD SWAP1 POP SWAP2 SWAP1 POP JUMP JUMPDEST PUSH1 0x0 PUSH1 0x20 DUP3 ADD SWAP1 POP SWAP2 SWAP1 POP JUMP JUMPDEST PUSH1 0x0 DUP3 DUP3 MSTORE PUSH1 0x20 DUP3 ADD SWAP1 POP SWAP3 SWAP2 POP POP JUMP JUMPDEST PUSH1 0x0 DUP3 DUP3 MSTORE PUSH1 0x20 DUP3 ADD SWAP1 POP SWAP3 SWAP2 POP POP JUMP JUMPDEST PUSH1 0x0 DUP3 DUP3 MSTORE PUSH1 0x20 DUP3 ADD SWAP1 POP SWAP3 SWAP2 POP POP JUMP JUMPDEST PUSH1 0x0 PUSH2 0xB35 DUP3 PUSH2 0xBBE JUMP JUMPDEST SWAP2 POP PUSH2 0xB40 DUP4 PUSH2 0xBBE JUMP JUMPDEST SWAP3 POP DUP3 PUSH32 0xFFFFFFFFFFFFFFFFFFFFFFFFFFFFFFFFFFFFFFFFFFFFFFFFFFFFFFFFFFFFFFFF SUB DUP3 GT ISZERO PUSH2 0xB75 JUMPI PUSH2 0xB74 PUSH2 0xC2D JUMP JUMPDEST JUMPDEST DUP3 DUP3 ADD SWAP1 POP SWAP3 SWAP2 POP POP JUMP JUMPDEST PUSH1 0x0 PUSH2 0xB8B DUP3 PUSH2 0xB9E JUMP JUMPDEST SWAP1 POP SWAP2 SWAP1 POP JUMP JUMPDEST PUSH1 0x0 DUP2 ISZERO ISZERO SWAP1 POP SWAP2 SWAP1 POP JUMP JUMPDEST PUSH1 0x0 PUSH20 0xFFFFFFFFFFFFFFFFFFFFFFFFFFFFFFFFFFFFFFFF DUP3 AND SWAP1 POP SWAP2 SWAP1 POP JUMP JUMPDEST PUSH1 0x0 DUP2 SWAP1 POP SWAP2 SWAP1 POP JUMP JUMPDEST PUSH1 0x0 JUMPDEST DUP4 DUP2 LT ISZERO PUSH2 0xBE6 JUMPI DUP1 DUP3 ADD MLOAD DUP2 DUP5 ADD MSTORE PUSH1 0x20 DUP2 ADD SWAP1 POP PUSH2 0xBCB JUMP JUMPDEST DUP4 DUP2 GT ISZERO PUSH2 0xBF5 JUMPI PUSH1 0x0 DUP5 DUP5 ADD MSTORE JUMPDEST POP POP POP POP JUMP JUMPDEST PUSH1 0x0 PUSH1 0x2 DUP3 DIV SWAP1 POP PUSH1 0x1 DUP3 AND DUP1 PUSH2 0xC13 JUMPI PUSH1 0x7F DUP3 AND SWAP2 POP JUMPDEST PUSH1 0x20 DUP3 LT DUP2 EQ ISZERO PUSH2 0xC27 JUMPI PUSH2 0xC26 PUSH2 0xC5C JUMP JUMPDEST JUMPDEST POP SWAP2 SWAP1 POP JUMP JUMPDEST PUSH32 0x4E487B7100000000000000000000000000000000000000000000000000000000 PUSH1 0x0 MSTORE PUSH1 0x11 PUSH1 0x4 MSTORE PUSH1 0x24 PUSH1 0x0 REVERT JUMPDEST PUSH32 0x4E487B7100000000000000000000000000000000000000000000000000000000 PUSH1 0x0 MSTORE PUSH1 0x22 PUSH1 0x4 MSTORE PUSH1 0x24 PUSH1 0x0 REVERT JUMPDEST PUSH32 0x4E487B7100000000000000000000000000000000000000000000000000000000 PUSH1 0x0 MSTORE PUSH1 0x41 PUSH1 0x4 MSTORE PUSH1 0x24 PUSH1 0x0 REVERT JUMPDEST PUSH1 0x0 DUP1 REVERT JUMPDEST PUSH1 0x0 PUSH1 0x1F NOT PUSH1 0x1F DUP4 ADD AND SWAP1 POP SWAP2 SWAP1 POP JUMP JUMPDEST PUSH32 0x4E6F2071756564616E2070756E746F7320646973706F6E69626C657320706172 PUSH1 0x0 DUP3 ADD MSTORE PUSH32 0x6120636F6D707261720000000000000000000000000000000000000000000000 PUSH1 0x20 DUP3 ADD MSTORE POP JUMP JUMPDEST PUSH2 0xD28 DUP2 PUSH2 0xB80 JUMP JUMPDEST DUP2 EQ PUSH2 0xD33 JUMPI PUSH1 0x0 DUP1 REVERT JUMPDEST POP JUMP JUMPDEST PUSH2 0xD3F DUP2 PUSH2 0xB92 JUMP JUMPDEST DUP2 EQ PUSH2 0xD4A JUMPI PUSH1 0x0 DUP1 REVERT JUMPDEST POP JUMP JUMPDEST PUSH2 0xD56 DUP2 PUSH2 0xBBE JUMP JUMPDEST DUP2 EQ PUSH2 0xD61 JUMPI PUSH1 0x0 DUP1 REVERT JUMPDEST POP JUMP INVALID LOG2 PUSH5 0x6970667358 0x22 SLT KECCAK256 GT SWAP10 0xAF PUSH2 0xC686 0xC1 SWAP13 0x4A 0xC1 0x23 0xAE DUP3 0xB5 0xDC 0xAE KECCAK256 CALL 0xB9 PUSH9 0xD6391C8D44045A97DF ADDMOD 0x28 PUSH23 0x64736F6C63430008070033608060405234801562000011 JUMPI PUSH1 0x0 DUP1 REVERT JUMPDEST POP PUSH1 0x40 MLOAD DUP1 PUSH1 0x40 ADD PUSH1 0x40 MSTORE DUP1 PUSH1 0x14 DUP2 MSTORE PUSH1 0x20 ADD PUSH32 0x50756E746F735265636F6D656E736173436F696E000000000000000000000000 DUP2 MSTORE POP PUSH1 0x40 MLOAD DUP1 PUSH1 0x40 ADD PUSH1 0x40 MSTORE DUP1 PUSH1 0x3 DUP2 MSTORE PUSH1 0x20 ADD PUSH32 0x5052430000000000000000000000000000000000000000000000000000000000 DUP2 MSTORE POP DUP2 PUSH1 0x3 SWAP1 DUP1 MLOAD SWAP1 PUSH1 0x20 ADD SWAP1 PUSH3 0x96 SWAP3 SWAP2 SWAP1 PUSH3 0x258 JUMP JUMPDEST POP DUP1 PUSH1 0x4 SWAP1 DUP1 MLOAD SWAP1 PUSH1 0x20 ADD SWAP1 PUSH3 0xAF SWAP3 SWAP2 SWAP1 PUSH3 0x258 JUMP JUMPDEST POP POP POP PUSH3 0xCF CALLER PUSH11 0x1A784379D99DB42000000 PUSH3 0xD5 PUSH1 0x20 SHL PUSH1 0x20 SHR JUMP JUMPDEST PUSH3 0x4B4 JUMP JUMPDEST PUSH1 0x0 PUSH20 0xFFFFFFFFFFFFFFFFFFFFFFFFFFFFFFFFFFFFFFFF AND DUP3 PUSH20 0xFFFFFFFFFFFFFFFFFFFFFFFFFFFFFFFFFFFFFFFF AND EQ ISZERO PUSH3 0x148 JUMPI PUSH1 0x40 MLOAD PUSH32 0x8C379A000000000000000000000000000000000000000000000000000000000 DUP2 MSTORE PUSH1 0x4 ADD PUSH3 0x13F SWAP1 PUSH3 0x340 JUMP JUMPDEST PUSH1 0x40 MLOAD DUP1 SWAP2 SUB SWAP1 REVERT JUMPDEST PUSH3 0x15C PUSH1 0x0 DUP4 DUP4 PUSH3 0x24E PUSH1 0x20 SHL PUSH1 0x20 SHR JUMP JUMPDEST DUP1 PUSH1 0x2 PUSH1 0x0 DUP3 DUP3 SLOAD PUSH3 0x170 SWAP2 SWAP1 PUSH3 0x390 JUMP JUMPDEST SWAP3 POP POP DUP2 SWAP1 SSTORE POP DUP1 PUSH1 0x0 DUP1 DUP5 PUSH20 0xFFFFFFFFFFFFFFFFFFFFFFFFFFFFFFFFFFFFFFFF AND PUSH20 0xFFFFFFFFFFFFFFFFFFFFFFFFFFFFFFFFFFFFFFFF AND DUP2 MSTORE PUSH1 0x20 ADD SWAP1 DUP2 MSTORE PUSH1 0x20 ADD PUSH1 0x0 KECCAK256 PUSH1 0x0 DUP3 DUP3 SLOAD PUSH3 0x1C7 SWAP2 SWAP1 PUSH3 0x390 JUMP JUMPDEST SWAP3 POP POP DUP2 SWAP1 SSTORE POP DUP2 PUSH20 0xFFFFFFFFFFFFFFFFFFFFFFFFFFFFFFFFFFFFFFFF AND PUSH1 0x0 PUSH20 0xFFFFFFFFFFFFFFFFFFFFFFFFFFFFFFFFFFFFFFFF AND PUSH32 0xDDF252AD1BE2C89B69C2B068FC378DAA952BA7F163C4A11628F55A4DF523B3EF DUP4 PUSH1 0x40 MLOAD PUSH3 0x22E SWAP2 SWAP1 PUSH3 0x362 JUMP JUMPDEST PUSH1 0x40 MLOAD DUP1 SWAP2 SUB SWAP1 LOG3 PUSH3 0x24A PUSH1 0x0 DUP4 DUP4 PUSH3 0x253 PUSH1 0x20 SHL PUSH1 0x20 SHR JUMP JUMPDEST POP POP JUMP JUMPDEST POP POP POP JUMP JUMPDEST POP POP POP JUMP JUMPDEST DUP3 DUP1 SLOAD PUSH3 0x266 SWAP1 PUSH3 0x3F7 JUMP JUMPDEST SWAP1 PUSH1 0x0 MSTORE PUSH1 0x20 PUSH1 0x0 KECCAK256 SWAP1 PUSH1 0x1F ADD PUSH1 0x20 SWAP1 DIV DUP2 ADD SWAP3 DUP3 PUSH3 0x28A JUMPI PUSH1 0x0 DUP6 SSTORE PUSH3 0x2D6 JUMP JUMPDEST DUP3 PUSH1 0x1F LT PUSH3 0x2A5 JUMPI DUP1 MLOAD PUSH1 0xFF NOT AND DUP4 DUP1 ADD OR DUP6 SSTORE PUSH3 0x2D6 JUMP JUMPDEST DUP3 DUP1 ADD PUSH1 0x1 ADD DUP6 SSTORE DUP3 ISZERO PUSH3 0x2D6 JUMPI SWAP2 DUP3 ADD JUMPDEST DUP3 DUP2 GT ISZERO PUSH3 0x2D5 JUMPI DUP3 MLOAD DUP3 SSTORE SWAP2 PUSH1 0x20 ADD SWAP2 SWAP1 PUSH1 0x1 ADD SWAP1 PUSH3 0x2B8 JUMP JUMPDEST JUMPDEST POP SWAP1 POP PUSH3 0x2E5 SWAP2 SWAP1 PUSH3 0x2E9 JUMP JUMPDEST POP SWAP1 JUMP JUMPDEST JUMPDEST DUP1 DUP3 GT ISZERO PUSH3 0x304 JUMPI PUSH1 0x0 DUP2 PUSH1 0x0 SWAP1 SSTORE POP PUSH1 0x1 ADD PUSH3 0x2EA JUMP JUMPDEST POP SWAP1 JUMP JUMPDEST PUSH1 0x0 PUSH3 0x317 PUSH1 0x1F DUP4 PUSH3 0x37F JUMP JUMPDEST SWAP2 POP PUSH3 0x324 DUP3 PUSH3 0x48B JUMP JUMPDEST PUSH1 0x20 DUP3 ADD SWAP1 POP SWAP2 SWAP1 POP JUMP JUMPDEST PUSH3 0x33A DUP2 PUSH3 0x3ED JUMP JUMPDEST DUP3 MSTORE POP POP JUMP JUMPDEST PUSH1 0x0 PUSH1 0x20 DUP3 ADD SWAP1 POP DUP2 DUP2 SUB PUSH1 0x0 DUP4 ADD MSTORE PUSH3 0x35B DUP2 PUSH3 0x308 JUMP JUMPDEST SWAP1 POP SWAP2 SWAP1 POP JUMP JUMPDEST PUSH1 0x0 PUSH1 0x20 DUP3 ADD SWAP1 POP PUSH3 0x379 PUSH1 0x0 DUP4 ADD DUP5 PUSH3 0x32F JUMP JUMPDEST SWAP3 SWAP2 POP POP JUMP JUMPDEST PUSH1 0x0 DUP3 DUP3 MSTORE PUSH1 0x20 DUP3 ADD SWAP1 POP SWAP3 SWAP2 POP POP JUMP JUMPDEST PUSH1 0x0 PUSH3 0x39D DUP3 PUSH3 0x3ED JUMP JUMPDEST SWAP2 POP PUSH3 0x3AA DUP4 PUSH3 0x3ED JUMP JUMPDEST SWAP3 POP DUP3 PUSH32 0xFFFFFFFFFFFFFFFFFFFFFFFFFFFFFFFFFFFFFFFFFFFFFFFFFFFFFFFFFFFFFFFF SUB DUP3 GT ISZERO PUSH3 0x3E2 JUMPI PUSH3 0x3E1 PUSH3 0x42D JUMP JUMPDEST JUMPDEST DUP3 DUP3 ADD SWAP1 POP SWAP3 SWAP2 POP POP JUMP JUMPDEST PUSH1 0x0 DUP2 SWAP1 POP SWAP2 SWAP1 POP JUMP JUMPDEST PUSH1 0x0 PUSH1 0x2 DUP3 DIV SWAP1 POP PUSH1 0x1 DUP3 AND DUP1 PUSH3 0x410 JUMPI PUSH1 0x7F DUP3 AND SWAP2 POP JUMPDEST PUSH1 0x20 DUP3 LT DUP2 EQ ISZERO PUSH3 0x427 JUMPI PUSH3 0x426 PUSH3 0x45C JUMP JUMPDEST JUMPDEST POP SWAP2 SWAP1 POP JUMP JUMPDEST PUSH32 0x4E487B7100000000000000000000000000000000000000000000000000000000 PUSH1 0x0 MSTORE PUSH1 0x11 PUSH1 0x4 MSTORE PUSH1 0x24 PUSH1 0x0 REVERT JUMPDEST PUSH32 0x4E487B7100000000000000000000000000000000000000000000000000000000 PUSH1 0x0 MSTORE PUSH1 0x22 PUSH1 0x4 MSTORE PUSH1 0x24 PUSH1 0x0 REVERT JUMPDEST PUSH32 0x45524332303A206D696E7420746F20746865207A65726F206164647265737300 PUSH1 0x0 DUP3 ADD MSTORE POP JUMP JUMPDEST PUSH2 0x1268 DUP1 PUSH3 0x4C4 PUSH1 0x0 CODECOPY PUSH1 0x0 RETURN INVALID PUSH1 0x80 PUSH1 0x40 MSTORE CALLVALUE DUP1 ISZERO PUSH2 0x10 JUMPI PUSH1 0x0 DUP1 REVERT JUMPDEST POP PUSH1 0x4 CALLDATASIZE LT PUSH2 0xA9 JUMPI PUSH1 0x0 CALLDATALOAD PUSH1 0xE0 SHR DUP1 PUSH4 0x39509351 GT PUSH2 0x71 JUMPI DUP1 PUSH4 0x39509351 EQ PUSH2 0x168 JUMPI DUP1 PUSH4 0x70A08231 EQ PUSH2 0x198 JUMPI DUP1 PUSH4 0x95D89B41 EQ PUSH2 0x1C8 JUMPI DUP1 PUSH4 0xA457C2D7 EQ PUSH2 0x1E6 JUMPI DUP1 PUSH4 0xA9059CBB EQ PUSH2 0x216 JUMPI DUP1 PUSH4 0xDD62ED3E EQ PUSH2 0x246 JUMPI PUSH2 0xA9 JUMP JUMPDEST DUP1 PUSH4 0x6FDDE03 EQ PUSH2 0xAE JUMPI DUP1 PUSH4 0x95EA7B3 EQ PUSH2 0xCC JUMPI DUP1 PUSH4 0x18160DDD EQ PUSH2 0xFC JUMPI DUP1 PUSH4 0x23B872DD EQ PUSH2 0x11A JUMPI DUP1 PUSH4 0x313CE567 EQ PUSH2 0x14A JUMPI JUMPDEST PUSH1 0x0 DUP1 REVERT JUMPDEST PUSH2 0xB6 PUSH2 0x276 JUMP JUMPDEST PUSH1 0x40 MLOAD PUSH2 0xC3 SWAP2 SWAP1 PUSH2 0xD29 JUMP JUMPDEST PUSH1 0x40 MLOAD DUP1 SWAP2 SUB SWAP1 RETURN JUMPDEST PUSH2 0xE6 PUSH1 0x4 DUP1 CALLDATASIZE SUB DUP2 ADD SWAP1 PUSH2 0xE1 SWAP2 SWAP1 PUSH2 0xB73 JUMP JUMPDEST PUSH2 0x308 JUMP JUMPDEST PUSH1 0x40 MLOAD PUSH2 0xF3 SWAP2 SWAP1 PUSH2 0xD0E JUMP JUMPDEST PUSH1 0x40 MLOAD DUP1 SWAP2 SUB SWAP1 RETURN JUMPDEST PUSH2 0x104 PUSH2 0x32B JUMP JUMPDEST PUSH1 0x40 MLOAD PUSH2 0x111 SWAP2 SWAP1 PUSH2 0xE2B JUMP JUMPDEST PUSH1 0x40 MLOAD DUP1 SWAP2 SUB SWAP1 RETURN JUMPDEST PUSH2 0x134 PUSH1 0x4 DUP1 CALLDATASIZE SUB DUP2 ADD SWAP1 PUSH2 0x12F SWAP2 SWAP1 PUSH2 0xB20 JUMP JUMPDEST PUSH2 0x335 JUMP JUMPDEST PUSH1 0x40 MLOAD PUSH2 0x141 SWAP2 SWAP1 PUSH2 0xD0E JUMP JUMPDEST PUSH1 0x40 MLOAD DUP1 SWAP2 SUB SWAP1 RETURN JUMPDEST PUSH2 0x152 PUSH2 0x364 JUMP JUMPDEST PUSH1 0x40 MLOAD PUSH2 0x15F SWAP2 SWAP1 PUSH2 0xE46 JUMP JUMPDEST PUSH1 0x40 MLOAD DUP1 SWAP2 SUB SWAP1 RETURN JUMPDEST PUSH2 0x182 PUSH1 0x4 DUP1 CALLDATASIZE SUB DUP2 ADD SWAP1 PUSH2 0x17D SWAP2 SWAP1 PUSH2 0xB73 JUMP JUMPDEST PUSH2 0x36D JUMP JUMPDEST PUSH1 0x40 MLOAD PUSH2 0x18F SWAP2 SWAP1 PUSH2 0xD0E JUMP JUMPDEST PUSH1 0x40 MLOAD DUP1 SWAP2 SUB SWAP1 RETURN JUMPDEST PUSH2 0x1B2 PUSH1 0x4 DUP1 CALLDATASIZE SUB DUP2 ADD SWAP1 PUSH2 0x1AD SWAP2 SWAP1 PUSH2 0xAB3 JUMP JUMPDEST PUSH2 0x3A4 JUMP JUMPDEST PUSH1 0x40 MLOAD PUSH2 0x1BF SWAP2 SWAP1 PUSH2 0xE2B JUMP JUMPDEST PUSH1 0x40 MLOAD DUP1 SWAP2 SUB SWAP1 RETURN JUMPDEST PUSH2 0x1D0 PUSH2 0x3EC JUMP JUMPDEST PUSH1 0x40 MLOAD PUSH2 0x1DD SWAP2 SWAP1 PUSH2 0xD29 JUMP JUMPDEST PUSH1 0x40 MLOAD DUP1 SWAP2 SUB SWAP1 RETURN JUMPDEST PUSH2 0x200 PUSH1 0x4 DUP1 CALLDATASIZE SUB DUP2 ADD SWAP1 PUSH2 0x1FB SWAP2 SWAP1 PUSH2 0xB73 JUMP JUMPDEST PUSH2 0x47E JUMP JUMPDEST PUSH1 0x40 MLOAD PUSH2 0x20D SWAP2 SWAP1 PUSH2 0xD0E JUMP JUMPDEST PUSH1 0x40 MLOAD DUP1 SWAP2 SUB SWAP1 RETURN JUMPDEST PUSH2 0x230 PUSH1 0x4 DUP1 CALLDATASIZE SUB DUP2 ADD SWAP1 PUSH2 0x22B SWAP2 SWAP1 PUSH2 0xB73 JUMP JUMPDEST PUSH2 0x4F5 JUMP JUMPDEST PUSH1 0x40 MLOAD PUSH2 0x23D SWAP2 SWAP1 PUSH2 0xD0E JUMP JUMPDEST PUSH1 0x40 MLOAD DUP1 SWAP2 SUB SWAP1 RETURN JUMPDEST PUSH2 0x260 PUSH1 0x4 DUP1 CALLDATASIZE SUB DUP2 ADD SWAP1 PUSH2 0x25B SWAP2 SWAP1 PUSH2 0xAE0 JUMP JUMPDEST PUSH2 0x518 JUMP JUMPDEST PUSH1 0x40 MLOAD PUSH2 0x26D SWAP2 SWAP1 PUSH2 0xE2B JUMP JUMPDEST PUSH1 0x40 MLOAD DUP1 SWAP2 SUB SWAP1 RETURN JUMPDEST PUSH1 0x60 PUSH1 0x3 DUP1 SLOAD PUSH2 0x285 SWAP1 PUSH2 0xF5B JUMP JUMPDEST DUP1 PUSH1 0x1F ADD PUSH1 0x20 DUP1 SWAP2 DIV MUL PUSH1 0x20 ADD PUSH1 0x40 MLOAD SWAP1 DUP2 ADD PUSH1 0x40 MSTORE DUP1 SWAP3 SWAP2 SWAP1 DUP2 DUP2 MSTORE PUSH1 0x20 ADD DUP3 DUP1 SLOAD PUSH2 0x2B1 SWAP1 PUSH2 0xF5B JUMP JUMPDEST DUP1 ISZERO PUSH2 0x2FE JUMPI DUP1 PUSH1 0x1F LT PUSH2 0x2D3 JUMPI PUSH2 0x100 DUP1 DUP4 SLOAD DIV MUL DUP4 MSTORE SWAP2 PUSH1 0x20 ADD SWAP2 PUSH2 0x2FE JUMP JUMPDEST DUP3 ADD SWAP2 SWAP1 PUSH1 0x0 MSTORE PUSH1 0x20 PUSH1 0x0 KECCAK256 SWAP1 JUMPDEST DUP2 SLOAD DUP2 MSTORE SWAP1 PUSH1 0x1 ADD SWAP1 PUSH1 0x20 ADD DUP1 DUP4 GT PUSH2 0x2E1 JUMPI DUP3 SWAP1 SUB PUSH1 0x1F AND DUP3 ADD SWAP2 JUMPDEST POP POP POP POP POP SWAP1 POP SWAP1 JUMP JUMPDEST PUSH1 0x0 DUP1 PUSH2 0x313 PUSH2 0x59F JUMP JUMPDEST SWAP1 POP PUSH2 0x320 DUP2 DUP6 DUP6 PUSH2 0x5A7 JUMP JUMPDEST PUSH1 0x1 SWAP2 POP POP SWAP3 SWAP2 POP POP JUMP JUMPDEST PUSH1 0x0 PUSH1 0x2 SLOAD SWAP1 POP SWAP1 JUMP JUMPDEST PUSH1 0x0 DUP1 PUSH2 0x340 PUSH2 0x59F JUMP JUMPDEST SWAP1 POP PUSH2 0x34D DUP6 DUP3 DUP6 PUSH2 0x772 JUMP JUMPDEST PUSH2 0x358 DUP6 DUP6 DUP6 PUSH2 0x7FE JUMP JUMPDEST PUSH1 0x1 SWAP2 POP POP SWAP4 SWAP3 POP POP POP JUMP JUMPDEST PUSH1 0x0 PUSH1 0x12 SWAP1 POP SWAP1 JUMP JUMPDEST PUSH1 0x0 DUP1 PUSH2 0x378 PUSH2 0x59F JUMP JUMPDEST SWAP1 POP PUSH2 0x399 DUP2 DUP6 DUP6 PUSH2 0x38A DUP6 DUP10 PUSH2 0x518 JUMP JUMPDEST PUSH2 0x394 SWAP2 SWAP1 PUSH2 0xE7D JUMP JUMPDEST PUSH2 0x5A7 JUMP JUMPDEST PUSH1 0x1 SWAP2 POP POP SWAP3 SWAP2 POP POP JUMP JUMPDEST PUSH1 0x0 DUP1 PUSH1 0x0 DUP4 PUSH20 0xFFFFFFFFFFFFFFFFFFFFFFFFFFFFFFFFFFFFFFFF AND PUSH20 0xFFFFFFFFFFFFFFFFFFFFFFFFFFFFFFFFFFFFFFFF AND DUP2 MSTORE PUSH1 0x20 ADD SWAP1 DUP2 MSTORE PUSH1 0x20 ADD PUSH1 0x0 KECCAK256 SLOAD SWAP1 POP SWAP2 SWAP1 POP JUMP JUMPDEST PUSH1 0x60 PUSH1 0x4 DUP1 SLOAD PUSH2 0x3FB SWAP1 PUSH2 0xF5B JUMP JUMPDEST DUP1 PUSH1 0x1F ADD PUSH1 0x20 DUP1 SWAP2 DIV MUL PUSH1 0x20 ADD PUSH1 0x40 MLOAD SWAP1 DUP2 ADD PUSH1 0x40 MSTORE DUP1 SWAP3 SWAP2 SWAP1 DUP2 DUP2 MSTORE PUSH1 0x20 ADD DUP3 DUP1 SLOAD PUSH2 0x427 SWAP1 PUSH2 0xF5B JUMP JUMPDEST DUP1 ISZERO PUSH2 0x474 JUMPI DUP1 PUSH1 0x1F LT PUSH2 0x449 JUMPI PUSH2 0x100 DUP1 DUP4 SLOAD DIV MUL DUP4 MSTORE SWAP2 PUSH1 0x20 ADD SWAP2 PUSH2 0x474 JUMP JUMPDEST DUP3 ADD SWAP2 SWAP1 PUSH1 0x0 MSTORE PUSH1 0x20 PUSH1 0x0 KECCAK256 SWAP1 JUMPDEST DUP2 SLOAD DUP2 MSTORE SWAP1 PUSH1 0x1 ADD SWAP1 PUSH1 0x20 ADD DUP1 DUP4 GT PUSH2 0x457 JUMPI DUP3 SWAP1 SUB PUSH1 0x1F AND DUP3 ADD SWAP2 JUMPDEST POP POP POP POP POP SWAP1 POP SWAP1 JUMP JUMPDEST PUSH1 0x0 DUP1 PUSH2 0x489 PUSH2 0x59F JUMP JUMPDEST SWAP1 POP PUSH1 0x0 PUSH2 0x497 DUP3 DUP7 PUSH2 0x518 JUMP JUMPDEST SWAP1 POP DUP4 DUP2 LT ISZERO PUSH2 0x4DC JUMPI PUSH1 0x40 MLOAD PUSH32 0x8C379A000000000000000000000000000000000000000000000000000000000 DUP2 MSTORE PUSH1 0x4 ADD PUSH2 0x4D3 SWAP1 PUSH2 0xE0B JUMP JUMPDEST PUSH1 0x40 MLOAD DUP1 SWAP2 SUB SWAP1 REVERT JUMPDEST PUSH2 0x4E9 DUP3 DUP7 DUP7 DUP5 SUB PUSH2 0x5A7 JUMP JUMPDEST PUSH1 0x1 SWAP3 POP POP POP SWAP3 SWAP2 POP POP JUMP JUMPDEST PUSH1 0x0 DUP1 PUSH2 0x500 PUSH2 0x59F JUMP JUMPDEST SWAP1 POP PUSH2 0x50D DUP2 DUP6 DUP6 PUSH2 0x7FE JUMP JUMPDEST PUSH1 0x1 SWAP2 POP POP SWAP3 SWAP2 POP POP JUMP JUMPDEST PUSH1 0x0 PUSH1 0x1 PUSH1 0x0 DUP5 PUSH20 0xFFFFFFFFFFFFFFFFFFFFFFFFFFFFFFFFFFFFFFFF AND PUSH20 0xFFFFFFFFFFFFFFFFFFFFFFFFFFFFFFFFFFFFFFFF AND DUP2 MSTORE PUSH1 0x20 ADD SWAP1 DUP2 MSTORE PUSH1 0x20 ADD PUSH1 0x0 KECCAK256 PUSH1 0x0 DUP4 PUSH20 0xFFFFFFFFFFFFFFFFFFFFFFFFFFFFFFFFFFFFFFFF AND PUSH20 0xFFFFFFFFFFFFFFFFFFFFFFFFFFFFFFFFFFFFFFFF AND DUP2 MSTORE PUSH1 0x20 ADD SWAP1 DUP2 MSTORE PUSH1 0x20 ADD PUSH1 0x0 KECCAK256 SLOAD SWAP1 POP SWAP3 SWAP2 POP POP JUMP JUMPDEST PUSH1 0x0 CALLER SWAP1 POP SWAP1 JUMP JUMPDEST PUSH1 0x0 PUSH20 0xFFFFFFFFFFFFFFFFFFFFFFFFFFFFFFFFFFFFFFFF AND DUP4 PUSH20 0xFFFFFFFFFFFFFFFFFFFFFFFFFFFFFFFFFFFFFFFF AND EQ ISZERO PUSH2 0x617 JUMPI PUSH1 0x40 MLOAD PUSH32 0x8C379A000000000000000000000000000000000000000000000000000000000 DUP2 MSTORE PUSH1 0x4 ADD PUSH2 0x60E SWAP1 PUSH2 0xDEB JUMP JUMPDEST PUSH1 0x40 MLOAD DUP1 SWAP2 SUB SWAP1 REVERT JUMPDEST PUSH1 0x0 PUSH20 0xFFFFFFFFFFFFFFFFFFFFFFFFFFFFFFFFFFFFFFFF AND DUP3 PUSH20 0xFFFFFFFFFFFFFFFFFFFFFFFFFFFFFFFFFFFFFFFF AND EQ ISZERO PUSH2 0x687 JUMPI PUSH1 0x40 MLOAD PUSH32 0x8C379A000000000000000000000000000000000000000000000000000000000 DUP2 MSTORE PUSH1 0x4 ADD PUSH2 0x67E SWAP1 PUSH2 0xD6B JUMP JUMPDEST PUSH1 0x40 MLOAD DUP1 SWAP2 SUB SWAP1 REVERT JUMPDEST DUP1 PUSH1 0x1 PUSH1 0x0 DUP6 PUSH20 0xFFFFFFFFFFFFFFFFFFFFFFFFFFFFFFFFFFFFFFFF AND PUSH20 0xFFFFFFFFFFFFFFFFFFFFFFFFFFFFFFFFFFFFFFFF AND DUP2 MSTORE PUSH1 0x20 ADD SWAP1 DUP2 MSTORE PUSH1 0x20 ADD PUSH1 0x0 KECCAK256 PUSH1 0x0 DUP5 PUSH20 0xFFFFFFFFFFFFFFFFFFFFFFFFFFFFFFFFFFFFFFFF AND PUSH20 0xFFFFFFFFFFFFFFFFFFFFFFFFFFFFFFFFFFFFFFFF AND DUP2 MSTORE PUSH1 0x20 ADD SWAP1 DUP2 MSTORE PUSH1 0x20 ADD PUSH1 0x0 KECCAK256 DUP2 SWAP1 SSTORE POP DUP2 PUSH20 0xFFFFFFFFFFFFFFFFFFFFFFFFFFFFFFFFFFFFFFFF AND DUP4 PUSH20 0xFFFFFFFFFFFFFFFFFFFFFFFFFFFFFFFFFFFFFFFF AND PUSH32 0x8C5BE1E5EBEC7D5BD14F71427D1E84F3DD0314C0F7B2291E5B200AC8C7C3B925 DUP4 PUSH1 0x40 MLOAD PUSH2 0x765 SWAP2 SWAP1 PUSH2 0xE2B JUMP JUMPDEST PUSH1 0x40 MLOAD DUP1 SWAP2 SUB SWAP1 LOG3 POP POP POP JUMP JUMPDEST PUSH1 0x0 PUSH2 0x77E DUP5 DUP5 PUSH2 0x518 JUMP JUMPDEST SWAP1 POP PUSH32 0xFFFFFFFFFFFFFFFFFFFFFFFFFFFFFFFFFFFFFFFFFFFFFFFFFFFFFFFFFFFFFFFF DUP2 EQ PUSH2 0x7F8 JUMPI DUP2 DUP2 LT ISZERO PUSH2 0x7EA JUMPI PUSH1 0x40 MLOAD PUSH32 0x8C379A000000000000000000000000000000000000000000000000000000000 DUP2 MSTORE PUSH1 0x4 ADD PUSH2 0x7E1 SWAP1 PUSH2 0xD8B JUMP JUMPDEST PUSH1 0x40 MLOAD DUP1 SWAP2 SUB SWAP1 REVERT JUMPDEST PUSH2 0x7F7 DUP5 DUP5 DUP5 DUP5 SUB PUSH2 0x5A7 JUMP JUMPDEST JUMPDEST POP POP POP POP JUMP JUMPDEST PUSH1 0x0 PUSH20 0xFFFFFFFFFFFFFFFFFFFFFFFFFFFFFFFFFFFFFFFF AND DUP4 PUSH20 0xFFFFFFFFFFFFFFFFFFFFFFFFFFFFFFFFFFFFFFFF AND EQ ISZERO PUSH2 0x86E JUMPI PUSH1 0x40 MLOAD PUSH32 0x8C379A000000000000000000000000000000000000000000000000000000000 DUP2 MSTORE PUSH1 0x4 ADD PUSH2 0x865 SWAP1 PUSH2 0xDCB JUMP JUMPDEST PUSH1 0x40 MLOAD DUP1 SWAP2 SUB SWAP1 REVERT JUMPDEST PUSH1 0x0 PUSH20 0xFFFFFFFFFFFFFFFFFFFFFFFFFFFFFFFFFFFFFFFF AND DUP3 PUSH20 0xFFFFFFFFFFFFFFFFFFFFFFFFFFFFFFFFFFFFFFFF AND EQ ISZERO PUSH2 0x8DE JUMPI PUSH1 0x40 MLOAD PUSH32 0x8C379A000000000000000000000000000000000000000000000000000000000 DUP2 MSTORE PUSH1 0x4 ADD PUSH2 0x8D5 SWAP1 PUSH2 0xD4B JUMP JUMPDEST PUSH1 0x40 MLOAD DUP1 SWAP2 SUB SWAP1 REVERT JUMPDEST PUSH2 0x8E9 DUP4 DUP4 DUP4 PUSH2 0xA7F JUMP JUMPDEST PUSH1 0x0 DUP1 PUSH1 0x0 DUP6 PUSH20 0xFFFFFFFFFFFFFFFFFFFFFFFFFFFFFFFFFFFFFFFF AND PUSH20 0xFFFFFFFFFFFFFFFFFFFFFFFFFFFFFFFFFFFFFFFF AND DUP2 MSTORE PUSH1 0x20 ADD SWAP1 DUP2 MSTORE PUSH1 0x20 ADD PUSH1 0x0 KECCAK256 SLOAD SWAP1 POP DUP2 DUP2 LT ISZERO PUSH2 0x96F JUMPI PUSH1 0x40 MLOAD PUSH32 0x8C379A000000000000000000000000000000000000000000000000000000000 DUP2 MSTORE PUSH1 0x4 ADD PUSH2 0x966 SWAP1 PUSH2 0xDAB JUMP JUMPDEST PUSH1 0x40 MLOAD DUP1 SWAP2 SUB SWAP1 REVERT JUMPDEST DUP2 DUP2 SUB PUSH1 0x0 DUP1 DUP7 PUSH20 0xFFFFFFFFFFFFFFFFFFFFFFFFFFFFFFFFFFFFFFFF AND PUSH20 0xFFFFFFFFFFFFFFFFFFFFFFFFFFFFFFFFFFFFFFFF AND DUP2 MSTORE PUSH1 0x20 ADD SWAP1 DUP2 MSTORE PUSH1 0x20 ADD PUSH1 0x0 KECCAK256 DUP2 SWAP1 SSTORE POP DUP2 PUSH1 0x0 DUP1 DUP6 PUSH20 0xFFFFFFFFFFFFFFFFFFFFFFFFFFFFFFFFFFFFFFFF AND PUSH20 0xFFFFFFFFFFFFFFFFFFFFFFFFFFFFFFFFFFFFFFFF AND DUP2 MSTORE PUSH1 0x20 ADD SWAP1 DUP2 MSTORE PUSH1 0x20 ADD PUSH1 0x0 KECCAK256 PUSH1 0x0 DUP3 DUP3 SLOAD PUSH2 0xA02 SWAP2 SWAP1 PUSH2 0xE7D JUMP JUMPDEST SWAP3 POP POP DUP2 SWAP1 SSTORE POP DUP3 PUSH20 0xFFFFFFFFFFFFFFFFFFFFFFFFFFFFFFFFFFFFFFFF AND DUP5 PUSH20 0xFFFFFFFFFFFFFFFFFFFFFFFFFFFFFFFFFFFFFFFF AND PUSH32 0xDDF252AD1BE2C89B69C2B068FC378DAA952BA7F163C4A11628F55A4DF523B3EF DUP5 PUSH1 0x40 MLOAD PUSH2 0xA66 SWAP2 SWAP1 PUSH2 0xE2B JUMP JUMPDEST PUSH1 0x40 MLOAD DUP1 SWAP2 SUB SWAP1 LOG3 PUSH2 0xA79 DUP5 DUP5 DUP5 PUSH2 0xA84 JUMP JUMPDEST POP POP POP POP JUMP JUMPDEST POP POP POP JUMP JUMPDEST POP POP POP JUMP JUMPDEST PUSH1 0x0 DUP2 CALLDATALOAD SWAP1 POP PUSH2 0xA98 DUP2 PUSH2 0x1204 JUMP JUMPDEST SWAP3 SWAP2 POP POP JUMP JUMPDEST PUSH1 0x0 DUP2 CALLDATALOAD SWAP1 POP PUSH2 0xAAD DUP2 PUSH2 0x121B JUMP JUMPDEST SWAP3 SWAP2 POP POP JUMP JUMPDEST PUSH1 0x0 PUSH1 0x20 DUP3 DUP5 SUB SLT ISZERO PUSH2 0xAC9 JUMPI PUSH2 0xAC8 PUSH2 0xFEB JUMP JUMPDEST JUMPDEST PUSH1 0x0 PUSH2 0xAD7 DUP5 DUP3 DUP6 ADD PUSH2 0xA89 JUMP JUMPDEST SWAP2 POP POP SWAP3 SWAP2 POP POP JUMP JUMPDEST PUSH1 0x0 DUP1 PUSH1 0x40 DUP4 DUP6 SUB SLT ISZERO PUSH2 0xAF7 JUMPI PUSH2 0xAF6 PUSH2 0xFEB JUMP JUMPDEST JUMPDEST PUSH1 0x0 PUSH2 0xB05 DUP6 DUP3 DUP7 ADD PUSH2 0xA89 JUMP JUMPDEST SWAP3 POP POP PUSH1 0x20 PUSH2 0xB16 DUP6 DUP3 DUP7 ADD PUSH2 0xA89 JUMP JUMPDEST SWAP2 POP POP SWAP3 POP SWAP3 SWAP1 POP JUMP JUMPDEST PUSH1 0x0 DUP1 PUSH1 0x0 PUSH1 0x60 DUP5 DUP7 SUB SLT ISZERO PUSH2 0xB39 JUMPI PUSH2 0xB38 PUSH2 0xFEB JUMP JUMPDEST JUMPDEST PUSH1 0x0 PUSH2 0xB47 DUP7 DUP3 DUP8 ADD PUSH2 0xA89 JUMP JUMPDEST SWAP4 POP POP PUSH1 0x20 PUSH2 0xB58 DUP7 DUP3 DUP8 ADD PUSH2 0xA89 JUMP JUMPDEST SWAP3 POP POP PUSH1 0x40 PUSH2 0xB69 DUP7 DUP3 DUP8 ADD PUSH2 0xA9E JUMP JUMPDEST SWAP2 POP POP SWAP3 POP SWAP3 POP SWAP3 JUMP JUMPDEST PUSH1 0x0 DUP1 PUSH1 0x40 DUP4 DUP6 SUB SLT ISZERO PUSH2 0xB8A JUMPI PUSH2 0xB89 PUSH2 0xFEB JUMP JUMPDEST JUMPDEST PUSH1 0x0 PUSH2 0xB98 DUP6 DUP3 DUP7 ADD PUSH2 0xA89 JUMP JUMPDEST SWAP3 POP POP PUSH1 0x20 PUSH2 0xBA9 DUP6 DUP3 DUP7 ADD PUSH2 0xA9E JUMP JUMPDEST SWAP2 POP POP SWAP3 POP SWAP3 SWAP1 POP JUMP JUMPDEST PUSH2 0xBBC DUP2 PUSH2 0xEE5 JUMP JUMPDEST DUP3 MSTORE POP POP JUMP JUMPDEST PUSH1 0x0 PUSH2 0xBCD DUP3 PUSH2 0xE61 JUMP JUMPDEST PUSH2 0xBD7 DUP2 DUP6 PUSH2 0xE6C JUMP JUMPDEST SWAP4 POP PUSH2 0xBE7 DUP2 DUP6 PUSH1 0x20 DUP7 ADD PUSH2 0xF28 JUMP JUMPDEST PUSH2 0xBF0 DUP2 PUSH2 0xFF0 JUMP JUMPDEST DUP5 ADD SWAP2 POP POP SWAP3 SWAP2 POP POP JUMP JUMPDEST PUSH1 0x0 PUSH2 0xC08 PUSH1 0x23 DUP4 PUSH2 0xE6C JUMP JUMPDEST SWAP2 POP PUSH2 0xC13 DUP3 PUSH2 0x1001 JUMP JUMPDEST PUSH1 0x40 DUP3 ADD SWAP1 POP SWAP2 SWAP1 POP JUMP JUMPDEST PUSH1 0x0 PUSH2 0xC2B PUSH1 0x22 DUP4 PUSH2 0xE6C JUMP JUMPDEST SWAP2 POP PUSH2 0xC36 DUP3 PUSH2 0x1050 JUMP JUMPDEST PUSH1 0x40 DUP3 ADD SWAP1 POP SWAP2 SWAP1 POP JUMP JUMPDEST PUSH1 0x0 PUSH2 0xC4E PUSH1 0x1D DUP4 PUSH2 0xE6C JUMP JUMPDEST SWAP2 POP PUSH2 0xC59 DUP3 PUSH2 0x109F JUMP JUMPDEST PUSH1 0x20 DUP3 ADD SWAP1 POP SWAP2 SWAP1 POP JUMP JUMPDEST PUSH1 0x0 PUSH2 0xC71 PUSH1 0x26 DUP4 PUSH2 0xE6C JUMP JUMPDEST SWAP2 POP PUSH2 0xC7C DUP3 PUSH2 0x10C8 JUMP JUMPDEST PUSH1 0x40 DUP3 ADD SWAP1 POP SWAP2 SWAP1 POP JUMP JUMPDEST PUSH1 0x0 PUSH2 0xC94 PUSH1 0x25 DUP4 PUSH2 0xE6C JUMP JUMPDEST SWAP2 POP PUSH2 0xC9F DUP3 PUSH2 0x1117 JUMP JUMPDEST PUSH1 0x40 DUP3 ADD SWAP1 POP SWAP2 SWAP1 POP JUMP JUMPDEST PUSH1 0x0 PUSH2 0xCB7 PUSH1 0x24 DUP4 PUSH2 0xE6C JUMP JUMPDEST SWAP2 POP PUSH2 0xCC2 DUP3 PUSH2 0x1166 JUMP JUMPDEST PUSH1 0x40 DUP3 ADD SWAP1 POP SWAP2 SWAP1 POP JUMP JUMPDEST PUSH1 0x0 PUSH2 0xCDA PUSH1 0x25 DUP4 PUSH2 0xE6C JUMP JUMPDEST SWAP2 POP PUSH2 0xCE5 DUP3 PUSH2 0x11B5 JUMP JUMPDEST PUSH1 0x40 DUP3 ADD SWAP1 POP SWAP2 SWAP1 POP JUMP JUMPDEST PUSH2 0xCF9 DUP2 PUSH2 0xF11 JUMP JUMPDEST DUP3 MSTORE POP POP JUMP JUMPDEST PUSH2 0xD08 DUP2 PUSH2 0xF1B JUMP JUMPDEST DUP3 MSTORE POP POP JUMP JUMPDEST PUSH1 0x0 PUSH1 0x20 DUP3 ADD SWAP1 POP PUSH2 0xD23 PUSH1 0x0 DUP4 ADD DUP5 PUSH2 0xBB3 JUMP JUMPDEST SWAP3 SWAP2 POP POP JUMP JUMPDEST PUSH1 0x0 PUSH1 0x20 DUP3 ADD SWAP1 POP DUP2 DUP2 SUB PUSH1 0x0 DUP4 ADD MSTORE PUSH2 0xD43 DUP2 DUP5 PUSH2 0xBC2 JUMP JUMPDEST SWAP1 POP SWAP3 SWAP2 POP POP JUMP JUMPDEST PUSH1 0x0 PUSH1 0x20 DUP3 ADD SWAP1 POP DUP2 DUP2 SUB PUSH1 0x0 DUP4 ADD MSTORE PUSH2 0xD64 DUP2 PUSH2 0xBFB JUMP JUMPDEST SWAP1 POP SWAP2 SWAP1 POP JUMP JUMPDEST PUSH1 0x0 PUSH1 0x20 DUP3 ADD SWAP1 POP DUP2 DUP2 SUB PUSH1 0x0 DUP4 ADD MSTORE PUSH2 0xD84 DUP2 PUSH2 0xC1E JUMP JUMPDEST SWAP1 POP SWAP2 SWAP1 POP JUMP JUMPDEST PUSH1 0x0 PUSH1 0x20 DUP3 ADD SWAP1 POP DUP2 DUP2 SUB PUSH1 0x0 DUP4 ADD MSTORE PUSH2 0xDA4 DUP2 PUSH2 0xC41 JUMP JUMPDEST SWAP1 POP SWAP2 SWAP1 POP JUMP JUMPDEST PUSH1 0x0 PUSH1 0x20 DUP3 ADD SWAP1 POP DUP2 DUP2 SUB PUSH1 0x0 DUP4 ADD MSTORE PUSH2 0xDC4 DUP2 PUSH2 0xC64 JUMP JUMPDEST SWAP1 POP SWAP2 SWAP1 POP JUMP JUMPDEST PUSH1 0x0 PUSH1 0x20 DUP3 ADD SWAP1 POP DUP2 DUP2 SUB PUSH1 0x0 DUP4 ADD MSTORE PUSH2 0xDE4 DUP2 PUSH2 0xC87 JUMP JUMPDEST SWAP1 POP SWAP2 SWAP1 POP JUMP JUMPDEST PUSH1 0x0 PUSH1 0x20 DUP3 ADD SWAP1 POP DUP2 DUP2 SUB PUSH1 0x0 DUP4 ADD MSTORE PUSH2 0xE04 DUP2 PUSH2 0xCAA JUMP JUMPDEST SWAP1 POP SWAP2 SWAP1 POP JUMP JUMPDEST PUSH1 0x0 PUSH1 0x20 DUP3 ADD SWAP1 POP DUP2 DUP2 SUB PUSH1 0x0 DUP4 ADD MSTORE PUSH2 0xE24 DUP2 PUSH2 0xCCD JUMP JUMPDEST SWAP1 POP SWAP2 SWAP1 POP JUMP JUMPDEST PUSH1 0x0 PUSH1 0x20 DUP3 ADD SWAP1 POP PUSH2 0xE40 PUSH1 0x0 DUP4 ADD DUP5 PUSH2 0xCF0 JUMP JUMPDEST SWAP3 SWAP2 POP POP JUMP JUMPDEST PUSH1 0x0 PUSH1 0x20 DUP3 ADD SWAP1 POP PUSH2 0xE5B PUSH1 0x0 DUP4 ADD DUP5 PUSH2 0xCFF JUMP JUMPDEST SWAP3 SWAP2 POP POP JUMP JUMPDEST PUSH1 0x0 DUP2 MLOAD SWAP1 POP SWAP2 SWAP1 POP JUMP JUMPDEST PUSH1 0x0 DUP3 DUP3 MSTORE PUSH1 0x20 DUP3 ADD SWAP1 POP SWAP3 SWAP2 POP POP JUMP JUMPDEST PUSH1 0x0 PUSH2 0xE88 DUP3 PUSH2 0xF11 JUMP JUMPDEST SWAP2 POP PUSH2 0xE93 DUP4 PUSH2 0xF11 JUMP JUMPDEST SWAP3 POP DUP3 PUSH32 0xFFFFFFFFFFFFFFFFFFFFFFFFFFFFFFFFFFFFFFFFFFFFFFFFFFFFFFFFFFFFFFFF SUB DUP3 GT ISZERO PUSH2 0xEC8 JUMPI PUSH2 0xEC7 PUSH2 0xF8D JUMP JUMPDEST JUMPDEST DUP3 DUP3 ADD SWAP1 POP SWAP3 SWAP2 POP POP JUMP JUMPDEST PUSH1 0x0 PUSH2 0xEDE DUP3 PUSH2 0xEF1 JUMP JUMPDEST SWAP1 POP SWAP2 SWAP1 POP JUMP JUMPDEST PUSH1 0x0 DUP2 ISZERO ISZERO SWAP1 POP SWAP2 SWAP1 POP JUMP JUMPDEST PUSH1 0x0 PUSH20 0xFFFFFFFFFFFFFFFFFFFFFFFFFFFFFFFFFFFFFFFF DUP3 AND SWAP1 POP SWAP2 SWAP1 POP JUMP JUMPDEST PUSH1 0x0 DUP2 SWAP1 POP SWAP2 SWAP1 POP JUMP JUMPDEST PUSH1 0x0 PUSH1 0xFF DUP3 AND SWAP1 POP SWAP2 SWAP1 POP JUMP JUMPDEST PUSH1 0x0 JUMPDEST DUP4 DUP2 LT ISZERO PUSH2 0xF46 JUMPI DUP1 DUP3 ADD MLOAD DUP2 DUP5 ADD MSTORE PUSH1 0x20 DUP2 ADD SWAP1 POP PUSH2 0xF2B JUMP JUMPDEST DUP4 DUP2 GT ISZERO PUSH2 0xF55 JUMPI PUSH1 0x0 DUP5 DUP5 ADD MSTORE JUMPDEST POP POP POP POP JUMP JUMPDEST PUSH1 0x0 PUSH1 0x2 DUP3 DIV SWAP1 POP PUSH1 0x1 DUP3 AND DUP1 PUSH2 0xF73 JUMPI PUSH1 0x7F DUP3 AND SWAP2 POP JUMPDEST PUSH1 0x20 DUP3 LT DUP2 EQ ISZERO PUSH2 0xF87 JUMPI PUSH2 0xF86 PUSH2 0xFBC JUMP JUMPDEST JUMPDEST POP SWAP2 SWAP1 POP JUMP JUMPDEST PUSH32 0x4E487B7100000000000000000000000000000000000000000000000000000000 PUSH1 0x0 MSTORE PUSH1 0x11 PUSH1 0x4 MSTORE PUSH1 0x24 PUSH1 0x0 REVERT JUMPDEST PUSH32 0x4E487B7100000000000000000000000000000000000000000000000000000000 PUSH1 0x0 MSTORE PUSH1 0x22 PUSH1 0x4 MSTORE PUSH1 0x24 PUSH1 0x0 REVERT JUMPDEST PUSH1 0x0 DUP1 REVERT JUMPDEST PUSH1 0x0 PUSH1 0x1F NOT PUSH1 0x1F DUP4 ADD AND SWAP1 POP SWAP2 SWAP1 POP JUMP JUMPDEST PUSH32 0x45524332303A207472616E7366657220746F20746865207A65726F2061646472 PUSH1 0x0 DUP3 ADD MSTORE PUSH32 0x6573730000000000000000000000000000000000000000000000000000000000 PUSH1 0x20 DUP3 ADD MSTORE POP JUMP JUMPDEST PUSH32 0x45524332303A20617070726F766520746F20746865207A65726F206164647265 PUSH1 0x0 DUP3 ADD MSTORE PUSH32 0x7373000000000000000000000000000000000000000000000000000000000000 PUSH1 0x20 DUP3 ADD MSTORE POP JUMP JUMPDEST PUSH32 0x45524332303A20696E73756666696369656E7420616C6C6F77616E6365000000 PUSH1 0x0 DUP3 ADD MSTORE POP JUMP JUMPDEST PUSH32 0x45524332303A207472616E7366657220616D6F756E7420657863656564732062 PUSH1 0x0 DUP3 ADD MSTORE PUSH32 0x616C616E63650000000000000000000000000000000000000000000000000000 PUSH1 0x20 DUP3 ADD MSTORE POP JUMP JUMPDEST PUSH32 0x45524332303A207472616E736665722066726F6D20746865207A65726F206164 PUSH1 0x0 DUP3 ADD MSTORE PUSH32 0x6472657373000000000000000000000000000000000000000000000000000000 PUSH1 0x20 DUP3 ADD MSTORE POP JUMP JUMPDEST PUSH32 0x45524332303A20617070726F76652066726F6D20746865207A65726F20616464 PUSH1 0x0 DUP3 ADD MSTORE PUSH32 0x7265737300000000000000000000000000000000000000000000000000000000 PUSH1 0x20 DUP3 ADD MSTORE POP JUMP JUMPDEST PUSH32 0x45524332303A2064656372656173656420616C6C6F77616E63652062656C6F77 PUSH1 0x0 DUP3 ADD MSTORE PUSH32 0x207A65726F000000000000000000000000000000000000000000000000000000 PUSH1 0x20 DUP3 ADD MSTORE POP JUMP JUMPDEST PUSH2 0x120D DUP2 PUSH2 0xED3 JUMP JUMPDEST DUP2 EQ PUSH2 0x1218 JUMPI PUSH1 0x0 DUP1 REVERT JUMPDEST POP JUMP JUMPDEST PUSH2 0x1224 DUP2 PUSH2 0xF11 JUMP JUMPDEST DUP2 EQ PUSH2 0x122F JUMPI PUSH1 0x0 DUP1 REVERT JUMPDEST POP JUMP INVALID LOG2 PUSH5 0x6970667358 0x22 SLT KECCAK256 0xAA LOG1 0xD2 0xBB 0xF6 0xE0 PUSH3 0x49B55B 0xF9 SWAP15 JUMPDEST PUSH31 0xA9F5C42FD94C4A6FA80860A5DEE966B0153564736F6C634300080700330000 "
				},
				"gasEstimates": {
					"creation": {
						"codeDepositCost": "696400",
						"executionCost": "infinite",
						"totalCost": "infinite"
					},
					"external": {
						"AgregarCliente(address)": "infinite",
						"CanjearPuntos(uint256)": "infinite",
						"ObtenerCliente(address)": "infinite",
						"ObtenerPuntos()": "infinite",
						"balanceOf()": "infinite",
						"creador()": "2580"
					}
				},
				"methodIdentifiers": {
					"AgregarCliente(address)": "6f120a5d",
					"CanjearPuntos(uint256)": "13ff490f",
					"ObtenerCliente(address)": "8bb3d85b",
					"ObtenerPuntos()": "daba6422",
					"balanceOf()": "722713f7",
					"creador()": "92ebdcd2"
				}
			},
			"storageLayout": {
				"storage": [
					{
						"astId": 716,
						"contract": "PycharmProjects/UsalMasterCoin/contracts/GestionPuntos.sol:PuntosFidelizacion",
						"label": "puntos",
						"offset": 0,
						"slot": "0",
						"type": "t_contract(PuntosRecompensasCoin)881"
					},
					{
						"astId": 718,
						"contract": "PycharmProjects/UsalMasterCoin/contracts/GestionPuntos.sol:PuntosFidelizacion",
						"label": "creador",
						"offset": 0,
						"slot": "1",
						"type": "t_address"
					},
					{
						"astId": 745,
						"contract": "PycharmProjects/UsalMasterCoin/contracts/GestionPuntos.sol:PuntosFidelizacion",
						"label": "clientes",
						"offset": 0,
						"slot": "2",
						"type": "t_mapping(t_address,t_struct(Cliente)740_storage)"
					}
				],
				"types": {
					"t_address": {
						"encoding": "inplace",
						"label": "address",
						"numberOfBytes": "20"
					},
					"t_array(t_string_storage)dyn_storage": {
						"base": "t_string_storage",
						"encoding": "dynamic_array",
						"label": "string[]",
						"numberOfBytes": "32"
					},
					"t_contract(PuntosRecompensasCoin)881": {
						"encoding": "inplace",
						"label": "contract PuntosRecompensasCoin",
						"numberOfBytes": "20"
					},
					"t_mapping(t_address,t_struct(Cliente)740_storage)": {
						"encoding": "mapping",
						"key": "t_address",
						"label": "mapping(address => struct PuntosFidelizacion.Cliente)",
						"numberOfBytes": "32",
						"value": "t_struct(Cliente)740_storage"
					},
					"t_string_storage": {
						"encoding": "bytes",
						"label": "string",
						"numberOfBytes": "32"
					},
					"t_struct(Cliente)740_storage": {
						"encoding": "inplace",
						"label": "struct PuntosFidelizacion.Cliente",
						"members": [
							{
								"astId": 736,
								"contract": "PycharmProjects/UsalMasterCoin/contracts/GestionPuntos.sol:PuntosFidelizacion",
								"label": "puntos_canjeados",
								"offset": 0,
								"slot": "0",
								"type": "t_uint256"
							},
							{
								"astId": 739,
								"contract": "PycharmProjects/UsalMasterCoin/contracts/GestionPuntos.sol:PuntosFidelizacion",
								"label": "id_productos_comprados",
								"offset": 0,
								"slot": "1",
								"type": "t_array(t_string_storage)dyn_storage"
							}
						],
						"numberOfBytes": "64"
					},
					"t_uint256": {
						"encoding": "inplace",
						"label": "uint256",
						"numberOfBytes": "32"
					}
				}
			},
			"userdoc": {
				"kind": "user",
				"methods": {},
				"version": 1
			}
		}
	}
}